{
	"contracts/SimpleStorage.sol": {
		"SimpleStorage": {
			"abi": [
				{
					"inputs": [
						{
							"internalType": "uint256",
							"name": "amount",
							"type": "uint256"
						},
						{
							"internalType": "address",
							"name": "_address",
							"type": "address"
						}
					],
					"name": "addMoreFunds",
					"outputs": [
						{
							"internalType": "string",
							"name": "",
							"type": "string"
						}
					],
					"stateMutability": "nonpayable",
					"type": "function"
				},
				{
					"inputs": [
						{
							"internalType": "int256",
							"name": "_numbers",
							"type": "int256"
						}
					],
					"name": "addSecretNumbers",
					"outputs": [],
					"stateMutability": "nonpayable",
					"type": "function"
				},
				{
					"inputs": [],
					"name": "response",
					"outputs": [
						{
							"internalType": "string",
							"name": "",
							"type": "string"
						}
					],
					"stateMutability": "view",
					"type": "function"
				},
				{
					"inputs": [],
					"name": "viewFunds",
					"outputs": [
						{
							"internalType": "uint256",
							"name": "",
							"type": "uint256"
						}
					],
					"stateMutability": "view",
					"type": "function"
				},
				{
					"inputs": [],
					"name": "viewSecretNumbers",
					"outputs": [
						{
							"internalType": "int256[]",
							"name": "",
							"type": "int256[]"
						}
					],
					"stateMutability": "view",
					"type": "function"
				}
			],
			"devdoc": {
				"kind": "dev",
				"methods": {},
				"version": 1
			},
			"evm": {
				"assembly": "    /* \"contracts/SimpleStorage.sol\":56:1188  contract SimpleStorage {... */\n  mstore(0x40, 0x80)\n    /* \"contracts/SimpleStorage.sol\":110:114  true */\n  0x01\n    /* \"contracts/SimpleStorage.sol\":86:114  bool hasFundsInWallet = true */\n  0x00\n  dup1\n  0x0100\n  exp\n  dup2\n  sload\n  dup2\n  0xff\n  mul\n  not\n  and\n  swap1\n  dup4\n  iszero\n  iszero\n  mul\n  or\n  swap1\n  sstore\n  pop\n    /* \"contracts/SimpleStorage.sol\":147:148  7 */\n  0x07\n    /* \"contracts/SimpleStorage.sol\":121:148  uint256   fundsInWallet = 7 */\n  0x01\n  sstore\n    /* \"contracts/SimpleStorage.sol\":178:210  string accountName = \"Fortunate\" */\n  mload(0x40)\n  dup1\n  0x40\n  add\n  0x40\n  mstore\n  dup1\n  0x09\n  dup2\n  mstore\n  0x20\n  add\n  0x466f7274756e6174650000000000000000000000000000000000000000000000\n  dup2\n  mstore\n  pop\n  0x02\n  swap1\n  dup2\n  tag_1\n  swap2\n  swap1\n  tag_2\n  jump\t// in\ntag_1:\n  pop\n    /* \"contracts/SimpleStorage.sol\":242:284  0x5FF791d4Fbd1fE7E62B1c4bAbe3138dfCD9A60c4 */\n  0x5ff791d4fbd1fe7e62b1c4babe3138dfcd9a60c4\n    /* \"contracts/SimpleStorage.sol\":217:284  address accountAddress = 0x5FF791d4Fbd1fE7E62B1c4bAbe3138dfCD9A60c4 */\n  0x03\n  exp(0x0100, 0x00)\n  dup2\n  sload\n  dup2\n  0xffffffffffffffffffffffffffffffffffffffff\n  mul\n  not\n  and\n  swap1\n  dup4\n  0xffffffffffffffffffffffffffffffffffffffff\n  and\n  mul\n  or\n  swap1\n  sstore\n  pop\n    /* \"contracts/SimpleStorage.sol\":56:1188  contract SimpleStorage {... */\n  callvalue\n  dup1\n  iszero\n  tag_3\n  jumpi\n  0x00\n  dup1\n  revert\ntag_3:\n  pop\n  jump(tag_4)\n    /* \"#utility.yul\":7:106   */\ntag_5:\n    /* \"#utility.yul\":59:65   */\n  0x00\n    /* \"#utility.yul\":93:98   */\n  dup2\n    /* \"#utility.yul\":87:99   */\n  mload\n    /* \"#utility.yul\":77:99   */\n  swap1\n  pop\n    /* \"#utility.yul\":7:106   */\n  swap2\n  swap1\n  pop\n  jump\t// out\n    /* \"#utility.yul\":112:292   */\ntag_6:\n    /* \"#utility.yul\":160:237   */\n  0x4e487b7100000000000000000000000000000000000000000000000000000000\n    /* \"#utility.yul\":157:158   */\n  0x00\n    /* \"#utility.yul\":150:238   */\n  mstore\n    /* \"#utility.yul\":257:261   */\n  0x41\n    /* \"#utility.yul\":254:255   */\n  0x04\n    /* \"#utility.yul\":247:262   */\n  mstore\n    /* \"#utility.yul\":281:285   */\n  0x24\n    /* \"#utility.yul\":278:279   */\n  0x00\n    /* \"#utility.yul\":271:286   */\n  revert\n    /* \"#utility.yul\":298:478   */\ntag_7:\n    /* \"#utility.yul\":346:423   */\n  0x4e487b7100000000000000000000000000000000000000000000000000000000\n    /* \"#utility.yul\":343:344   */\n  0x00\n    /* \"#utility.yul\":336:424   */\n  mstore\n    /* \"#utility.yul\":443:447   */\n  0x22\n    /* \"#utility.yul\":440:441   */\n  0x04\n    /* \"#utility.yul\":433:448   */\n  mstore\n    /* \"#utility.yul\":467:471   */\n  0x24\n    /* \"#utility.yul\":464:465   */\n  0x00\n    /* \"#utility.yul\":457:472   */\n  revert\n    /* \"#utility.yul\":484:804   */\ntag_8:\n    /* \"#utility.yul\":528:534   */\n  0x00\n    /* \"#utility.yul\":565:566   */\n  0x02\n    /* \"#utility.yul\":559:563   */\n  dup3\n    /* \"#utility.yul\":555:567   */\n  div\n    /* \"#utility.yul\":545:567   */\n  swap1\n  pop\n    /* \"#utility.yul\":612:613   */\n  0x01\n    /* \"#utility.yul\":606:610   */\n  dup3\n    /* \"#utility.yul\":602:614   */\n  and\n    /* \"#utility.yul\":633:651   */\n  dup1\n    /* \"#utility.yul\":623:704   */\n  tag_30\n  jumpi\n    /* \"#utility.yul\":689:693   */\n  0x7f\n    /* \"#utility.yul\":681:687   */\n  dup3\n    /* \"#utility.yul\":677:694   */\n  and\n    /* \"#utility.yul\":667:694   */\n  swap2\n  pop\n    /* \"#utility.yul\":623:704   */\ntag_30:\n    /* \"#utility.yul\":751:753   */\n  0x20\n    /* \"#utility.yul\":743:749   */\n  dup3\n    /* \"#utility.yul\":740:754   */\n  lt\n    /* \"#utility.yul\":720:738   */\n  dup2\n    /* \"#utility.yul\":717:755   */\n  sub\n    /* \"#utility.yul\":714:798   */\n  tag_31\n  jumpi\n    /* \"#utility.yul\":770:788   */\n  tag_32\n  tag_7\n  jump\t// in\ntag_32:\n    /* \"#utility.yul\":714:798   */\ntag_31:\n    /* \"#utility.yul\":535:804   */\n  pop\n    /* \"#utility.yul\":484:804   */\n  swap2\n  swap1\n  pop\n  jump\t// out\n    /* \"#utility.yul\":810:951   */\ntag_9:\n    /* \"#utility.yul\":859:863   */\n  0x00\n    /* \"#utility.yul\":882:885   */\n  dup2\n    /* \"#utility.yul\":874:885   */\n  swap1\n  pop\n    /* \"#utility.yul\":905:908   */\n  dup2\n    /* \"#utility.yul\":902:903   */\n  0x00\n    /* \"#utility.yul\":895:909   */\n  mstore\n    /* \"#utility.yul\":939:943   */\n  0x20\n    /* \"#utility.yul\":936:937   */\n  0x00\n    /* \"#utility.yul\":926:944   */\n  keccak256\n    /* \"#utility.yul\":918:944   */\n  swap1\n  pop\n    /* \"#utility.yul\":810:951   */\n  swap2\n  swap1\n  pop\n  jump\t// out\n    /* \"#utility.yul\":957:1050   */\ntag_10:\n    /* \"#utility.yul\":994:1000   */\n  0x00\n    /* \"#utility.yul\":1041:1043   */\n  0x20\n    /* \"#utility.yul\":1036:1038   */\n  0x1f\n    /* \"#utility.yul\":1029:1034   */\n  dup4\n    /* \"#utility.yul\":1025:1039   */\n  add\n    /* \"#utility.yul\":1021:1044   */\n  div\n    /* \"#utility.yul\":1011:1044   */\n  swap1\n  pop\n    /* \"#utility.yul\":957:1050   */\n  swap2\n  swap1\n  pop\n  jump\t// out\n    /* \"#utility.yul\":1056:1163   */\ntag_11:\n    /* \"#utility.yul\":1100:1108   */\n  0x00\n    /* \"#utility.yul\":1150:1155   */\n  dup3\n    /* \"#utility.yul\":1144:1148   */\n  dup3\n    /* \"#utility.yul\":1140:1156   */\n  shl\n    /* \"#utility.yul\":1119:1156   */\n  swap1\n  pop\n    /* \"#utility.yul\":1056:1163   */\n  swap3\n  swap2\n  pop\n  pop\n  jump\t// out\n    /* \"#utility.yul\":1169:1562   */\ntag_12:\n    /* \"#utility.yul\":1238:1244   */\n  0x00\n    /* \"#utility.yul\":1288:1289   */\n  0x08\n    /* \"#utility.yul\":1276:1286   */\n  dup4\n    /* \"#utility.yul\":1272:1290   */\n  mul\n    /* \"#utility.yul\":1311:1408   */\n  tag_37\n    /* \"#utility.yul\":1341:1407   */\n  0xffffffffffffffffffffffffffffffffffffffffffffffffffffffffffffffff\n    /* \"#utility.yul\":1330:1339   */\n  dup3\n    /* \"#utility.yul\":1311:1408   */\n  tag_11\n  jump\t// in\ntag_37:\n    /* \"#utility.yul\":1429:1468   */\n  tag_38\n    /* \"#utility.yul\":1459:1467   */\n  dup7\n    /* \"#utility.yul\":1448:1457   */\n  dup4\n    /* \"#utility.yul\":1429:1468   */\n  tag_11\n  jump\t// in\ntag_38:\n    /* \"#utility.yul\":1417:1468   */\n  swap6\n  pop\n    /* \"#utility.yul\":1501:1505   */\n  dup1\n    /* \"#utility.yul\":1497:1506   */\n  not\n    /* \"#utility.yul\":1490:1495   */\n  dup5\n    /* \"#utility.yul\":1486:1507   */\n  and\n    /* \"#utility.yul\":1477:1507   */\n  swap4\n  pop\n    /* \"#utility.yul\":1550:1554   */\n  dup1\n    /* \"#utility.yul\":1540:1548   */\n  dup7\n    /* \"#utility.yul\":1536:1555   */\n  and\n    /* \"#utility.yul\":1529:1534   */\n  dup5\n    /* \"#utility.yul\":1526:1556   */\n  or\n    /* \"#utility.yul\":1516:1556   */\n  swap3\n  pop\n    /* \"#utility.yul\":1245:1562   */\n  pop\n  pop\n    /* \"#utility.yul\":1169:1562   */\n  swap4\n  swap3\n  pop\n  pop\n  pop\n  jump\t// out\n    /* \"#utility.yul\":1568:1645   */\ntag_13:\n    /* \"#utility.yul\":1605:1612   */\n  0x00\n    /* \"#utility.yul\":1634:1639   */\n  dup2\n    /* \"#utility.yul\":1623:1639   */\n  swap1\n  pop\n    /* \"#utility.yul\":1568:1645   */\n  swap2\n  swap1\n  pop\n  jump\t// out\n    /* \"#utility.yul\":1651:1711   */\ntag_14:\n    /* \"#utility.yul\":1679:1682   */\n  0x00\n    /* \"#utility.yul\":1700:1705   */\n  dup2\n    /* \"#utility.yul\":1693:1705   */\n  swap1\n  pop\n    /* \"#utility.yul\":1651:1711   */\n  swap2\n  swap1\n  pop\n  jump\t// out\n    /* \"#utility.yul\":1717:1859   */\ntag_15:\n    /* \"#utility.yul\":1767:1776   */\n  0x00\n    /* \"#utility.yul\":1800:1853   */\n  tag_42\n    /* \"#utility.yul\":1818:1852   */\n  tag_43\n    /* \"#utility.yul\":1827:1851   */\n  tag_44\n    /* \"#utility.yul\":1845:1850   */\n  dup5\n    /* \"#utility.yul\":1827:1851   */\n  tag_13\n  jump\t// in\ntag_44:\n    /* \"#utility.yul\":1818:1852   */\n  tag_14\n  jump\t// in\ntag_43:\n    /* \"#utility.yul\":1800:1853   */\n  tag_13\n  jump\t// in\ntag_42:\n    /* \"#utility.yul\":1787:1853   */\n  swap1\n  pop\n    /* \"#utility.yul\":1717:1859   */\n  swap2\n  swap1\n  pop\n  jump\t// out\n    /* \"#utility.yul\":1865:1940   */\ntag_16:\n    /* \"#utility.yul\":1908:1911   */\n  0x00\n    /* \"#utility.yul\":1929:1934   */\n  dup2\n    /* \"#utility.yul\":1922:1934   */\n  swap1\n  pop\n    /* \"#utility.yul\":1865:1940   */\n  swap2\n  swap1\n  pop\n  jump\t// out\n    /* \"#utility.yul\":1946:2215   */\ntag_17:\n    /* \"#utility.yul\":2056:2095   */\n  tag_47\n    /* \"#utility.yul\":2087:2094   */\n  dup4\n    /* \"#utility.yul\":2056:2095   */\n  tag_15\n  jump\t// in\ntag_47:\n    /* \"#utility.yul\":2117:2208   */\n  tag_48\n    /* \"#utility.yul\":2166:2207   */\n  tag_49\n    /* \"#utility.yul\":2190:2206   */\n  dup3\n    /* \"#utility.yul\":2166:2207   */\n  tag_16\n  jump\t// in\ntag_49:\n    /* \"#utility.yul\":2158:2164   */\n  dup5\n    /* \"#utility.yul\":2151:2155   */\n  dup5\n    /* \"#utility.yul\":2145:2156   */\n  sload\n    /* \"#utility.yul\":2117:2208   */\n  tag_12\n  jump\t// in\ntag_48:\n    /* \"#utility.yul\":2111:2115   */\n  dup3\n    /* \"#utility.yul\":2104:2209   */\n  sstore\n    /* \"#utility.yul\":2022:2215   */\n  pop\n    /* \"#utility.yul\":1946:2215   */\n  pop\n  pop\n  pop\n  jump\t// out\n    /* \"#utility.yul\":2221:2294   */\ntag_18:\n    /* \"#utility.yul\":2266:2269   */\n  0x00\n    /* \"#utility.yul\":2221:2294   */\n  swap1\n  jump\t// out\n    /* \"#utility.yul\":2300:2489   */\ntag_19:\n    /* \"#utility.yul\":2377:2409   */\n  tag_52\n  tag_18\n  jump\t// in\ntag_52:\n    /* \"#utility.yul\":2418:2483   */\n  tag_53\n    /* \"#utility.yul\":2476:2482   */\n  dup2\n    /* \"#utility.yul\":2468:2474   */\n  dup5\n    /* \"#utility.yul\":2462:2466   */\n  dup5\n    /* \"#utility.yul\":2418:2483   */\n  tag_17\n  jump\t// in\ntag_53:\n    /* \"#utility.yul\":2353:2489   */\n  pop\n    /* \"#utility.yul\":2300:2489   */\n  pop\n  pop\n  jump\t// out\n    /* \"#utility.yul\":2495:2681   */\ntag_20:\n    /* \"#utility.yul\":2555:2675   */\ntag_55:\n    /* \"#utility.yul\":2572:2575   */\n  dup2\n    /* \"#utility.yul\":2565:2570   */\n  dup2\n    /* \"#utility.yul\":2562:2576   */\n  lt\n    /* \"#utility.yul\":2555:2675   */\n  iszero\n  tag_57\n  jumpi\n    /* \"#utility.yul\":2626:2665   */\n  tag_58\n    /* \"#utility.yul\":2663:2664   */\n  0x00\n    /* \"#utility.yul\":2656:2661   */\n  dup3\n    /* \"#utility.yul\":2626:2665   */\n  tag_19\n  jump\t// in\ntag_58:\n    /* \"#utility.yul\":2599:2600   */\n  0x01\n    /* \"#utility.yul\":2592:2597   */\n  dup2\n    /* \"#utility.yul\":2588:2601   */\n  add\n    /* \"#utility.yul\":2579:2601   */\n  swap1\n  pop\n    /* \"#utility.yul\":2555:2675   */\n  jump(tag_55)\ntag_57:\n    /* \"#utility.yul\":2495:2681   */\n  pop\n  pop\n  jump\t// out\n    /* \"#utility.yul\":2687:3230   */\ntag_21:\n    /* \"#utility.yul\":2788:2790   */\n  0x1f\n    /* \"#utility.yul\":2783:2786   */\n  dup3\n    /* \"#utility.yul\":2780:2791   */\n  gt\n    /* \"#utility.yul\":2777:3223   */\n  iszero\n  tag_60\n  jumpi\n    /* \"#utility.yul\":2822:2860   */\n  tag_61\n    /* \"#utility.yul\":2854:2859   */\n  dup2\n    /* \"#utility.yul\":2822:2860   */\n  tag_9\n  jump\t// in\ntag_61:\n    /* \"#utility.yul\":2906:2935   */\n  tag_62\n    /* \"#utility.yul\":2924:2934   */\n  dup5\n    /* \"#utility.yul\":2906:2935   */\n  tag_10\n  jump\t// in\ntag_62:\n    /* \"#utility.yul\":2896:2904   */\n  dup2\n    /* \"#utility.yul\":2892:2936   */\n  add\n    /* \"#utility.yul\":3089:3091   */\n  0x20\n    /* \"#utility.yul\":3077:3087   */\n  dup6\n    /* \"#utility.yul\":3074:3092   */\n  lt\n    /* \"#utility.yul\":3071:3120   */\n  iszero\n  tag_63\n  jumpi\n    /* \"#utility.yul\":3110:3118   */\n  dup2\n    /* \"#utility.yul\":3095:3118   */\n  swap1\n  pop\n    /* \"#utility.yul\":3071:3120   */\ntag_63:\n    /* \"#utility.yul\":3133:3213   */\n  tag_64\n    /* \"#utility.yul\":3189:3211   */\n  tag_65\n    /* \"#utility.yul\":3207:3210   */\n  dup6\n    /* \"#utility.yul\":3189:3211   */\n  tag_10\n  jump\t// in\ntag_65:\n    /* \"#utility.yul\":3179:3187   */\n  dup4\n    /* \"#utility.yul\":3175:3212   */\n  add\n    /* \"#utility.yul\":3162:3173   */\n  dup3\n    /* \"#utility.yul\":3133:3213   */\n  tag_20\n  jump\t// in\ntag_64:\n    /* \"#utility.yul\":2792:3223   */\n  pop\n  pop\n    /* \"#utility.yul\":2777:3223   */\ntag_60:\n    /* \"#utility.yul\":2687:3230   */\n  pop\n  pop\n  pop\n  jump\t// out\n    /* \"#utility.yul\":3236:3353   */\ntag_22:\n    /* \"#utility.yul\":3290:3298   */\n  0x00\n    /* \"#utility.yul\":3340:3345   */\n  dup3\n    /* \"#utility.yul\":3334:3338   */\n  dup3\n    /* \"#utility.yul\":3330:3346   */\n  shr\n    /* \"#utility.yul\":3309:3346   */\n  swap1\n  pop\n    /* \"#utility.yul\":3236:3353   */\n  swap3\n  swap2\n  pop\n  pop\n  jump\t// out\n    /* \"#utility.yul\":3359:3528   */\ntag_23:\n    /* \"#utility.yul\":3403:3409   */\n  0x00\n    /* \"#utility.yul\":3436:3487   */\n  tag_68\n    /* \"#utility.yul\":3484:3485   */\n  0x00\n    /* \"#utility.yul\":3480:3486   */\n  not\n    /* \"#utility.yul\":3472:3477   */\n  dup5\n    /* \"#utility.yul\":3469:3470   */\n  0x08\n    /* \"#utility.yul\":3465:3478   */\n  mul\n    /* \"#utility.yul\":3436:3487   */\n  tag_22\n  jump\t// in\ntag_68:\n    /* \"#utility.yul\":3432:3488   */\n  not\n    /* \"#utility.yul\":3517:3521   */\n  dup1\n    /* \"#utility.yul\":3511:3515   */\n  dup4\n    /* \"#utility.yul\":3507:3522   */\n  and\n    /* \"#utility.yul\":3497:3522   */\n  swap2\n  pop\n    /* \"#utility.yul\":3410:3528   */\n  pop\n    /* \"#utility.yul\":3359:3528   */\n  swap3\n  swap2\n  pop\n  pop\n  jump\t// out\n    /* \"#utility.yul\":3533:3828   */\ntag_24:\n    /* \"#utility.yul\":3609:3613   */\n  0x00\n    /* \"#utility.yul\":3755:3784   */\n  tag_70\n    /* \"#utility.yul\":3780:3783   */\n  dup4\n    /* \"#utility.yul\":3774:3778   */\n  dup4\n    /* \"#utility.yul\":3755:3784   */\n  tag_23\n  jump\t// in\ntag_70:\n    /* \"#utility.yul\":3747:3784   */\n  swap2\n  pop\n    /* \"#utility.yul\":3817:3820   */\n  dup3\n    /* \"#utility.yul\":3814:3815   */\n  0x02\n    /* \"#utility.yul\":3810:3821   */\n  mul\n    /* \"#utility.yul\":3804:3808   */\n  dup3\n    /* \"#utility.yul\":3801:3822   */\n  or\n    /* \"#utility.yul\":3793:3822   */\n  swap1\n  pop\n    /* \"#utility.yul\":3533:3828   */\n  swap3\n  swap2\n  pop\n  pop\n  jump\t// out\n    /* \"#utility.yul\":3833:5228   */\ntag_2:\n    /* \"#utility.yul\":3950:3987   */\n  tag_72\n    /* \"#utility.yul\":3983:3986   */\n  dup3\n    /* \"#utility.yul\":3950:3987   */\n  tag_5\n  jump\t// in\ntag_72:\n    /* \"#utility.yul\":4052:4070   */\n  0xffffffffffffffff\n    /* \"#utility.yul\":4044:4050   */\n  dup2\n    /* \"#utility.yul\":4041:4071   */\n  gt\n    /* \"#utility.yul\":4038:4094   */\n  iszero\n  tag_73\n  jumpi\n    /* \"#utility.yul\":4074:4092   */\n  tag_74\n  tag_6\n  jump\t// in\ntag_74:\n    /* \"#utility.yul\":4038:4094   */\ntag_73:\n    /* \"#utility.yul\":4118:4156   */\n  tag_75\n    /* \"#utility.yul\":4150:4154   */\n  dup3\n    /* \"#utility.yul\":4144:4155   */\n  sload\n    /* \"#utility.yul\":4118:4156   */\n  tag_8\n  jump\t// in\ntag_75:\n    /* \"#utility.yul\":4203:4270   */\n  tag_76\n    /* \"#utility.yul\":4263:4269   */\n  dup3\n    /* \"#utility.yul\":4255:4261   */\n  dup3\n    /* \"#utility.yul\":4249:4253   */\n  dup6\n    /* \"#utility.yul\":4203:4270   */\n  tag_21\n  jump\t// in\ntag_76:\n    /* \"#utility.yul\":4297:4298   */\n  0x00\n    /* \"#utility.yul\":4321:4325   */\n  0x20\n    /* \"#utility.yul\":4308:4325   */\n  swap1\n  pop\n    /* \"#utility.yul\":4353:4355   */\n  0x1f\n    /* \"#utility.yul\":4345:4351   */\n  dup4\n    /* \"#utility.yul\":4342:4356   */\n  gt\n    /* \"#utility.yul\":4370:4371   */\n  0x01\n    /* \"#utility.yul\":4365:4983   */\n  dup2\n  eq\n  tag_78\n  jumpi\n    /* \"#utility.yul\":5027:5028   */\n  0x00\n    /* \"#utility.yul\":5044:5050   */\n  dup5\n    /* \"#utility.yul\":5041:5118   */\n  iszero\n  tag_79\n  jumpi\n    /* \"#utility.yul\":5093:5102   */\n  dup3\n    /* \"#utility.yul\":5088:5091   */\n  dup8\n    /* \"#utility.yul\":5084:5103   */\n  add\n    /* \"#utility.yul\":5078:5104   */\n  mload\n    /* \"#utility.yul\":5069:5104   */\n  swap1\n  pop\n    /* \"#utility.yul\":5041:5118   */\ntag_79:\n    /* \"#utility.yul\":5144:5211   */\n  tag_80\n    /* \"#utility.yul\":5204:5210   */\n  dup6\n    /* \"#utility.yul\":5197:5202   */\n  dup3\n    /* \"#utility.yul\":5144:5211   */\n  tag_24\n  jump\t// in\ntag_80:\n    /* \"#utility.yul\":5138:5142   */\n  dup7\n    /* \"#utility.yul\":5131:5212   */\n  sstore\n    /* \"#utility.yul\":5000:5222   */\n  pop\n    /* \"#utility.yul\":4335:5222   */\n  jump(tag_77)\n    /* \"#utility.yul\":4365:4983   */\ntag_78:\n    /* \"#utility.yul\":4417:4421   */\n  0x1f\n    /* \"#utility.yul\":4413:4422   */\n  not\n    /* \"#utility.yul\":4405:4411   */\n  dup5\n    /* \"#utility.yul\":4401:4423   */\n  and\n    /* \"#utility.yul\":4451:4488   */\n  tag_81\n    /* \"#utility.yul\":4483:4487   */\n  dup7\n    /* \"#utility.yul\":4451:4488   */\n  tag_9\n  jump\t// in\ntag_81:\n    /* \"#utility.yul\":4510:4511   */\n  0x00\n    /* \"#utility.yul\":4524:4732   */\ntag_82:\n    /* \"#utility.yul\":4538:4545   */\n  dup3\n    /* \"#utility.yul\":4535:4536   */\n  dup2\n    /* \"#utility.yul\":4532:4546   */\n  lt\n    /* \"#utility.yul\":4524:4732   */\n  iszero\n  tag_84\n  jumpi\n    /* \"#utility.yul\":4617:4626   */\n  dup5\n    /* \"#utility.yul\":4612:4615   */\n  dup10\n    /* \"#utility.yul\":4608:4627   */\n  add\n    /* \"#utility.yul\":4602:4628   */\n  mload\n    /* \"#utility.yul\":4594:4600   */\n  dup3\n    /* \"#utility.yul\":4587:4629   */\n  sstore\n    /* \"#utility.yul\":4668:4669   */\n  0x01\n    /* \"#utility.yul\":4660:4666   */\n  dup3\n    /* \"#utility.yul\":4656:4670   */\n  add\n    /* \"#utility.yul\":4646:4670   */\n  swap2\n  pop\n    /* \"#utility.yul\":4715:4717   */\n  0x20\n    /* \"#utility.yul\":4704:4713   */\n  dup6\n    /* \"#utility.yul\":4700:4718   */\n  add\n    /* \"#utility.yul\":4687:4718   */\n  swap5\n  pop\n    /* \"#utility.yul\":4561:4565   */\n  0x20\n    /* \"#utility.yul\":4558:4559   */\n  dup2\n    /* \"#utility.yul\":4554:4566   */\n  add\n    /* \"#utility.yul\":4549:4566   */\n  swap1\n  pop\n    /* \"#utility.yul\":4524:4732   */\n  jump(tag_82)\ntag_84:\n    /* \"#utility.yul\":4760:4766   */\n  dup7\n    /* \"#utility.yul\":4751:4758   */\n  dup4\n    /* \"#utility.yul\":4748:4767   */\n  lt\n    /* \"#utility.yul\":4745:4924   */\n  iszero\n  tag_85\n  jumpi\n    /* \"#utility.yul\":4818:4827   */\n  dup5\n    /* \"#utility.yul\":4813:4816   */\n  dup10\n    /* \"#utility.yul\":4809:4828   */\n  add\n    /* \"#utility.yul\":4803:4829   */\n  mload\n    /* \"#utility.yul\":4861:4909   */\n  tag_86\n    /* \"#utility.yul\":4903:4907   */\n  0x1f\n    /* \"#utility.yul\":4895:4901   */\n  dup10\n    /* \"#utility.yul\":4891:4908   */\n  and\n    /* \"#utility.yul\":4880:4889   */\n  dup3\n    /* \"#utility.yul\":4861:4909   */\n  tag_23\n  jump\t// in\ntag_86:\n    /* \"#utility.yul\":4853:4859   */\n  dup4\n    /* \"#utility.yul\":4846:4910   */\n  sstore\n    /* \"#utility.yul\":4768:4924   */\n  pop\n    /* \"#utility.yul\":4745:4924   */\ntag_85:\n    /* \"#utility.yul\":4970:4971   */\n  0x01\n    /* \"#utility.yul\":4966:4967   */\n  0x02\n    /* \"#utility.yul\":4958:4964   */\n  dup9\n    /* \"#utility.yul\":4954:4968   */\n  mul\n    /* \"#utility.yul\":4950:4972   */\n  add\n    /* \"#utility.yul\":4944:4948   */\n  dup9\n    /* \"#utility.yul\":4937:4973   */\n  sstore\n    /* \"#utility.yul\":4372:4983   */\n  pop\n  pop\n  pop\n    /* \"#utility.yul\":4335:5222   */\ntag_77:\n  pop\n    /* \"#utility.yul\":3925:5228   */\n  pop\n  pop\n  pop\n    /* \"#utility.yul\":3833:5228   */\n  pop\n  pop\n  jump\t// out\n    /* \"contracts/SimpleStorage.sol\":56:1188  contract SimpleStorage {... */\ntag_4:\n  dataSize(sub_0)\n  dup1\n  dataOffset(sub_0)\n  0x00\n  codecopy\n  0x00\n  return\nstop\n\nsub_0: assembly {\n        /* \"contracts/SimpleStorage.sol\":56:1188  contract SimpleStorage {... */\n      mstore(0x40, 0x80)\n      callvalue\n      dup1\n      iszero\n      tag_1\n      jumpi\n      0x00\n      dup1\n      revert\n    tag_1:\n      pop\n      jumpi(tag_2, lt(calldatasize, 0x04))\n      shr(0xe0, calldataload(0x00))\n      dup1\n      0x0bae7ddf\n      eq\n      tag_3\n      jumpi\n      dup1\n      0x379b2495\n      eq\n      tag_4\n      jumpi\n      dup1\n      0x616b0f89\n      eq\n      tag_5\n      jumpi\n      dup1\n      0x63f99bb3\n      eq\n      tag_6\n      jumpi\n      dup1\n      0x7a7f01a7\n      eq\n      tag_7\n      jumpi\n    tag_2:\n      0x00\n      dup1\n      revert\n        /* \"contracts/SimpleStorage.sol\":927:1034  function viewSecretNumbers () public  view returns (int256[] memory){... */\n    tag_3:\n      tag_8\n      tag_9\n      jump\t// in\n    tag_8:\n      mload(0x40)\n      tag_10\n      swap2\n      swap1\n      tag_11\n      jump\t// in\n    tag_10:\n      mload(0x40)\n      dup1\n      swap2\n      sub\n      swap1\n      return\n        /* \"contracts/SimpleStorage.sol\":1094:1185  function viewFunds () public  view returns (uint256){... */\n    tag_4:\n      tag_12\n      tag_13\n      jump\t// in\n    tag_12:\n      mload(0x40)\n      tag_14\n      swap2\n      swap1\n      tag_15\n      jump\t// in\n    tag_14:\n      mload(0x40)\n      dup1\n      swap2\n      sub\n      swap1\n      return\n        /* \"contracts/SimpleStorage.sol\":792:919  function  addSecretNumbers (int256 _numbers) public  {... */\n    tag_5:\n      tag_16\n      0x04\n      dup1\n      calldatasize\n      sub\n      dup2\n      add\n      swap1\n      tag_17\n      swap2\n      swap1\n      tag_18\n      jump\t// in\n    tag_17:\n      tag_19\n      jump\t// in\n    tag_16:\n      stop\n        /* \"contracts/SimpleStorage.sol\":388:784  function addMoreFunds(uint amount, address _address) public returns (string memory){... */\n    tag_6:\n      tag_20\n      0x04\n      dup1\n      calldatasize\n      sub\n      dup2\n      add\n      swap1\n      tag_21\n      swap2\n      swap1\n      tag_22\n      jump\t// in\n    tag_21:\n      tag_23\n      jump\t// in\n    tag_20:\n      mload(0x40)\n      tag_24\n      swap2\n      swap1\n      tag_25\n      jump\t// in\n    tag_24:\n      mload(0x40)\n      dup1\n      swap2\n      sub\n      swap1\n      return\n        /* \"contracts/SimpleStorage.sol\":327:349  string public response */\n    tag_7:\n      tag_26\n      tag_27\n      jump\t// in\n    tag_26:\n      mload(0x40)\n      tag_28\n      swap2\n      swap1\n      tag_25\n      jump\t// in\n    tag_28:\n      mload(0x40)\n      dup1\n      swap2\n      sub\n      swap1\n      return\n        /* \"contracts/SimpleStorage.sol\":927:1034  function viewSecretNumbers () public  view returns (int256[] memory){... */\n    tag_9:\n        /* \"contracts/SimpleStorage.sol\":979:994  int256[] memory */\n      0x60\n        /* \"contracts/SimpleStorage.sol\":1013:1026  secretNumbers */\n      0x05\n        /* \"contracts/SimpleStorage.sol\":1006:1026  return secretNumbers */\n      dup1\n      sload\n      dup1\n      0x20\n      mul\n      0x20\n      add\n      mload(0x40)\n      swap1\n      dup2\n      add\n      0x40\n      mstore\n      dup1\n      swap3\n      swap2\n      swap1\n      dup2\n      dup2\n      mstore\n      0x20\n      add\n      dup3\n      dup1\n      sload\n      dup1\n      iszero\n      tag_30\n      jumpi\n      0x20\n      mul\n      dup3\n      add\n      swap2\n      swap1\n      0x00\n      mstore\n      keccak256(0x00, 0x20)\n      swap1\n    tag_31:\n      dup2\n      sload\n      dup2\n      mstore\n      0x20\n      add\n      swap1\n      0x01\n      add\n      swap1\n      dup1\n      dup4\n      gt\n      tag_31\n      jumpi\n    tag_30:\n      pop\n      pop\n      pop\n      pop\n      pop\n      swap1\n      pop\n        /* \"contracts/SimpleStorage.sol\":927:1034  function viewSecretNumbers () public  view returns (int256[] memory){... */\n      swap1\n      jump\t// out\n        /* \"contracts/SimpleStorage.sol\":1094:1185  function viewFunds () public  view returns (uint256){... */\n    tag_13:\n        /* \"contracts/SimpleStorage.sol\":1138:1145  uint256 */\n      0x00\n        /* \"contracts/SimpleStorage.sol\":1164:1177  fundsInWallet */\n      sload(0x01)\n        /* \"contracts/SimpleStorage.sol\":1157:1177  return fundsInWallet */\n      swap1\n      pop\n        /* \"contracts/SimpleStorage.sol\":1094:1185  function viewFunds () public  view returns (uint256){... */\n      swap1\n      jump\t// out\n        /* \"contracts/SimpleStorage.sol\":792:919  function  addSecretNumbers (int256 _numbers) public  {... */\n    tag_19:\n        /* \"contracts/SimpleStorage.sol\":870:883  secretNumbers */\n      0x05\n        /* \"contracts/SimpleStorage.sol\":889:897  _numbers */\n      dup2\n        /* \"contracts/SimpleStorage.sol\":870:898  secretNumbers.push(_numbers) */\n      swap1\n      dup1\n      0x01\n      dup2\n      sload\n      add\n      dup1\n      dup3\n      sstore\n      dup1\n      swap2\n      pop\n      pop\n      0x01\n      swap1\n      sub\n      swap1\n      0x00\n      mstore\n      keccak256(0x00, 0x20)\n      add\n      0x00\n      swap1\n      swap2\n      swap1\n      swap2\n      swap1\n      swap2\n      pop\n      sstore\n        /* \"contracts/SimpleStorage.sol\":792:919  function  addSecretNumbers (int256 _numbers) public  {... */\n      pop\n      jump\t// out\n        /* \"contracts/SimpleStorage.sol\":388:784  function addMoreFunds(uint amount, address _address) public returns (string memory){... */\n    tag_23:\n        /* \"contracts/SimpleStorage.sol\":457:470  string memory */\n      0x60\n        /* \"contracts/SimpleStorage.sol\":498:512  accountAddress */\n      0x03\n      0x00\n      swap1\n      sload\n      swap1\n      0x0100\n      exp\n      swap1\n      div\n      0xffffffffffffffffffffffffffffffffffffffff\n      and\n        /* \"contracts/SimpleStorage.sol\":486:512  _address == accountAddress */\n      0xffffffffffffffffffffffffffffffffffffffff\n      and\n        /* \"contracts/SimpleStorage.sol\":486:494  _address */\n      dup3\n        /* \"contracts/SimpleStorage.sol\":486:512  _address == accountAddress */\n      0xffffffffffffffffffffffffffffffffffffffff\n      and\n      eq\n        /* \"contracts/SimpleStorage.sol\":486:526  _address == accountAddress && amount > 0 */\n      dup1\n      iszero\n      tag_36\n      jumpi\n      pop\n        /* \"contracts/SimpleStorage.sol\":525:526  0 */\n      0x00\n        /* \"contracts/SimpleStorage.sol\":516:522  amount */\n      dup4\n        /* \"contracts/SimpleStorage.sol\":516:526  amount > 0 */\n      gt\n        /* \"contracts/SimpleStorage.sol\":486:526  _address == accountAddress && amount > 0 */\n    tag_36:\n        /* \"contracts/SimpleStorage.sol\":482:775  if (_address == accountAddress && amount > 0) {... */\n      iszero\n      tag_37\n      jumpi\n        /* \"contracts/SimpleStorage.sol\":560:566  amount */\n      dup3\n        /* \"contracts/SimpleStorage.sol\":543:556  fundsInWallet */\n      0x01\n      0x00\n        /* \"contracts/SimpleStorage.sol\":543:566  fundsInWallet += amount */\n      dup3\n      dup3\n      sload\n      tag_38\n      swap2\n      swap1\n      tag_39\n      jump\t// in\n    tag_38:\n      swap3\n      pop\n      pop\n      dup2\n      swap1\n      sstore\n      pop\n        /* \"contracts/SimpleStorage.sol\":581:618  response = \"Funds successfully added\" */\n      mload(0x40)\n      dup1\n      0x40\n      add\n      0x40\n      mstore\n      dup1\n      0x18\n      dup2\n      mstore\n      0x20\n      add\n      0x46756e6473207375636365737366756c6c792061646465640000000000000000\n      dup2\n      mstore\n      pop\n        /* \"contracts/SimpleStorage.sol\":581:589  response */\n      0x04\n        /* \"contracts/SimpleStorage.sol\":581:618  response = \"Funds successfully added\" */\n      swap1\n      dup2\n      tag_40\n      swap2\n      swap1\n      tag_41\n      jump\t// in\n    tag_40:\n      pop\n        /* \"contracts/SimpleStorage.sol\":640:648  response */\n      0x04\n        /* \"contracts/SimpleStorage.sol\":633:648  return response */\n      dup1\n      sload\n      tag_42\n      swap1\n      tag_43\n      jump\t// in\n    tag_42:\n      dup1\n      0x1f\n      add\n      0x20\n      dup1\n      swap2\n      div\n      mul\n      0x20\n      add\n      mload(0x40)\n      swap1\n      dup2\n      add\n      0x40\n      mstore\n      dup1\n      swap3\n      swap2\n      swap1\n      dup2\n      dup2\n      mstore\n      0x20\n      add\n      dup3\n      dup1\n      sload\n      tag_44\n      swap1\n      tag_43\n      jump\t// in\n    tag_44:\n      dup1\n      iszero\n      tag_45\n      jumpi\n      dup1\n      0x1f\n      lt\n      tag_46\n      jumpi\n      0x0100\n      dup1\n      dup4\n      sload\n      div\n      mul\n      dup4\n      mstore\n      swap2\n      0x20\n      add\n      swap2\n      jump(tag_45)\n    tag_46:\n      dup3\n      add\n      swap2\n      swap1\n      0x00\n      mstore\n      keccak256(0x00, 0x20)\n      swap1\n    tag_47:\n      dup2\n      sload\n      dup2\n      mstore\n      swap1\n      0x01\n      add\n      swap1\n      0x20\n      add\n      dup1\n      dup4\n      gt\n      tag_47\n      jumpi\n      dup3\n      swap1\n      sub\n      0x1f\n      and\n      dup3\n      add\n      swap2\n    tag_45:\n      pop\n      pop\n      pop\n      pop\n      pop\n      swap1\n      pop\n      jump(tag_35)\n        /* \"contracts/SimpleStorage.sol\":482:775  if (_address == accountAddress && amount > 0) {... */\n    tag_37:\n        /* \"contracts/SimpleStorage.sol\":704:733  response = \"Operation failed\" */\n      mload(0x40)\n      dup1\n      0x40\n      add\n      0x40\n      mstore\n      dup1\n      0x10\n      dup2\n      mstore\n      0x20\n      add\n      0x4f7065726174696f6e206661696c656400000000000000000000000000000000\n      dup2\n      mstore\n      pop\n        /* \"contracts/SimpleStorage.sol\":704:712  response */\n      0x04\n        /* \"contracts/SimpleStorage.sol\":704:733  response = \"Operation failed\" */\n      swap1\n      dup2\n      tag_49\n      swap2\n      swap1\n      tag_41\n      jump\t// in\n    tag_49:\n      pop\n        /* \"contracts/SimpleStorage.sol\":755:763  response */\n      0x04\n        /* \"contracts/SimpleStorage.sol\":748:763  return response */\n      dup1\n      sload\n      tag_50\n      swap1\n      tag_43\n      jump\t// in\n    tag_50:\n      dup1\n      0x1f\n      add\n      0x20\n      dup1\n      swap2\n      div\n      mul\n      0x20\n      add\n      mload(0x40)\n      swap1\n      dup2\n      add\n      0x40\n      mstore\n      dup1\n      swap3\n      swap2\n      swap1\n      dup2\n      dup2\n      mstore\n      0x20\n      add\n      dup3\n      dup1\n      sload\n      tag_51\n      swap1\n      tag_43\n      jump\t// in\n    tag_51:\n      dup1\n      iszero\n      tag_52\n      jumpi\n      dup1\n      0x1f\n      lt\n      tag_53\n      jumpi\n      0x0100\n      dup1\n      dup4\n      sload\n      div\n      mul\n      dup4\n      mstore\n      swap2\n      0x20\n      add\n      swap2\n      jump(tag_52)\n    tag_53:\n      dup3\n      add\n      swap2\n      swap1\n      0x00\n      mstore\n      keccak256(0x00, 0x20)\n      swap1\n    tag_54:\n      dup2\n      sload\n      dup2\n      mstore\n      swap1\n      0x01\n      add\n      swap1\n      0x20\n      add\n      dup1\n      dup4\n      gt\n      tag_54\n      jumpi\n      dup3\n      swap1\n      sub\n      0x1f\n      and\n      dup3\n      add\n      swap2\n    tag_52:\n      pop\n      pop\n      pop\n      pop\n      pop\n      swap1\n      pop\n        /* \"contracts/SimpleStorage.sol\":388:784  function addMoreFunds(uint amount, address _address) public returns (string memory){... */\n    tag_35:\n      swap3\n      swap2\n      pop\n      pop\n      jump\t// out\n        /* \"contracts/SimpleStorage.sol\":327:349  string public response */\n    tag_27:\n      0x04\n      dup1\n      sload\n      tag_55\n      swap1\n      tag_43\n      jump\t// in\n    tag_55:\n      dup1\n      0x1f\n      add\n      0x20\n      dup1\n      swap2\n      div\n      mul\n      0x20\n      add\n      mload(0x40)\n      swap1\n      dup2\n      add\n      0x40\n      mstore\n      dup1\n      swap3\n      swap2\n      swap1\n      dup2\n      dup2\n      mstore\n      0x20\n      add\n      dup3\n      dup1\n      sload\n      tag_56\n      swap1\n      tag_43\n      jump\t// in\n    tag_56:\n      dup1\n      iszero\n      tag_57\n      jumpi\n      dup1\n      0x1f\n      lt\n      tag_58\n      jumpi\n      0x0100\n      dup1\n      dup4\n      sload\n      div\n      mul\n      dup4\n      mstore\n      swap2\n      0x20\n      add\n      swap2\n      jump(tag_57)\n    tag_58:\n      dup3\n      add\n      swap2\n      swap1\n      0x00\n      mstore\n      keccak256(0x00, 0x20)\n      swap1\n    tag_59:\n      dup2\n      sload\n      dup2\n      mstore\n      swap1\n      0x01\n      add\n      swap1\n      0x20\n      add\n      dup1\n      dup4\n      gt\n      tag_59\n      jumpi\n      dup3\n      swap1\n      sub\n      0x1f\n      and\n      dup3\n      add\n      swap2\n    tag_57:\n      pop\n      pop\n      pop\n      pop\n      pop\n      dup2\n      jump\t// out\n        /* \"#utility.yul\":7:120   */\n    tag_60:\n        /* \"#utility.yul\":73:79   */\n      0x00\n        /* \"#utility.yul\":107:112   */\n      dup2\n        /* \"#utility.yul\":101:113   */\n      mload\n        /* \"#utility.yul\":91:113   */\n      swap1\n      pop\n        /* \"#utility.yul\":7:120   */\n      swap2\n      swap1\n      pop\n      jump\t// out\n        /* \"#utility.yul\":126:309   */\n    tag_61:\n        /* \"#utility.yul\":224:235   */\n      0x00\n        /* \"#utility.yul\":258:264   */\n      dup3\n        /* \"#utility.yul\":253:256   */\n      dup3\n        /* \"#utility.yul\":246:265   */\n      mstore\n        /* \"#utility.yul\":298:302   */\n      0x20\n        /* \"#utility.yul\":293:296   */\n      dup3\n        /* \"#utility.yul\":289:303   */\n      add\n        /* \"#utility.yul\":274:303   */\n      swap1\n      pop\n        /* \"#utility.yul\":126:309   */\n      swap3\n      swap2\n      pop\n      pop\n      jump\t// out\n        /* \"#utility.yul\":315:446   */\n    tag_62:\n        /* \"#utility.yul\":381:385   */\n      0x00\n        /* \"#utility.yul\":404:407   */\n      dup2\n        /* \"#utility.yul\":396:407   */\n      swap1\n      pop\n        /* \"#utility.yul\":434:438   */\n      0x20\n        /* \"#utility.yul\":429:432   */\n      dup3\n        /* \"#utility.yul\":425:439   */\n      add\n        /* \"#utility.yul\":417:439   */\n      swap1\n      pop\n        /* \"#utility.yul\":315:446   */\n      swap2\n      swap1\n      pop\n      jump\t// out\n        /* \"#utility.yul\":452:528   */\n    tag_63:\n        /* \"#utility.yul\":488:495   */\n      0x00\n        /* \"#utility.yul\":517:522   */\n      dup2\n        /* \"#utility.yul\":506:522   */\n      swap1\n      pop\n        /* \"#utility.yul\":452:528   */\n      swap2\n      swap1\n      pop\n      jump\t// out\n        /* \"#utility.yul\":534:639   */\n    tag_64:\n        /* \"#utility.yul\":609:632   */\n      tag_110\n        /* \"#utility.yul\":626:631   */\n      dup2\n        /* \"#utility.yul\":609:632   */\n      tag_63\n      jump\t// in\n    tag_110:\n        /* \"#utility.yul\":604:607   */\n      dup3\n        /* \"#utility.yul\":597:633   */\n      mstore\n        /* \"#utility.yul\":534:639   */\n      pop\n      pop\n      jump\t// out\n        /* \"#utility.yul\":645:820   */\n    tag_65:\n        /* \"#utility.yul\":712:722   */\n      0x00\n        /* \"#utility.yul\":733:777   */\n      tag_112\n        /* \"#utility.yul\":773:776   */\n      dup4\n        /* \"#utility.yul\":765:771   */\n      dup4\n        /* \"#utility.yul\":733:777   */\n      tag_64\n      jump\t// in\n    tag_112:\n        /* \"#utility.yul\":809:813   */\n      0x20\n        /* \"#utility.yul\":804:807   */\n      dup4\n        /* \"#utility.yul\":800:814   */\n      add\n        /* \"#utility.yul\":786:814   */\n      swap1\n      pop\n        /* \"#utility.yul\":645:820   */\n      swap3\n      swap2\n      pop\n      pop\n      jump\t// out\n        /* \"#utility.yul\":826:938   */\n    tag_66:\n        /* \"#utility.yul\":895:899   */\n      0x00\n        /* \"#utility.yul\":927:931   */\n      0x20\n        /* \"#utility.yul\":922:925   */\n      dup3\n        /* \"#utility.yul\":918:932   */\n      add\n        /* \"#utility.yul\":910:932   */\n      swap1\n      pop\n        /* \"#utility.yul\":826:938   */\n      swap2\n      swap1\n      pop\n      jump\t// out\n        /* \"#utility.yul\":972:1696   */\n    tag_67:\n        /* \"#utility.yul\":1089:1092   */\n      0x00\n        /* \"#utility.yul\":1118:1171   */\n      tag_115\n        /* \"#utility.yul\":1165:1170   */\n      dup3\n        /* \"#utility.yul\":1118:1171   */\n      tag_60\n      jump\t// in\n    tag_115:\n        /* \"#utility.yul\":1187:1272   */\n      tag_116\n        /* \"#utility.yul\":1265:1271   */\n      dup2\n        /* \"#utility.yul\":1260:1263   */\n      dup6\n        /* \"#utility.yul\":1187:1272   */\n      tag_61\n      jump\t// in\n    tag_116:\n        /* \"#utility.yul\":1180:1272   */\n      swap4\n      pop\n        /* \"#utility.yul\":1296:1351   */\n      tag_117\n        /* \"#utility.yul\":1345:1350   */\n      dup4\n        /* \"#utility.yul\":1296:1351   */\n      tag_62\n      jump\t// in\n    tag_117:\n        /* \"#utility.yul\":1374:1381   */\n      dup1\n        /* \"#utility.yul\":1405:1406   */\n      0x00\n        /* \"#utility.yul\":1390:1671   */\n    tag_118:\n        /* \"#utility.yul\":1415:1421   */\n      dup4\n        /* \"#utility.yul\":1412:1413   */\n      dup2\n        /* \"#utility.yul\":1409:1422   */\n      lt\n        /* \"#utility.yul\":1390:1671   */\n      iszero\n      tag_120\n      jumpi\n        /* \"#utility.yul\":1491:1497   */\n      dup2\n        /* \"#utility.yul\":1485:1498   */\n      mload\n        /* \"#utility.yul\":1518:1579   */\n      tag_121\n        /* \"#utility.yul\":1575:1578   */\n      dup9\n        /* \"#utility.yul\":1560:1573   */\n      dup3\n        /* \"#utility.yul\":1518:1579   */\n      tag_65\n      jump\t// in\n    tag_121:\n        /* \"#utility.yul\":1511:1579   */\n      swap8\n      pop\n        /* \"#utility.yul\":1602:1661   */\n      tag_122\n        /* \"#utility.yul\":1654:1660   */\n      dup4\n        /* \"#utility.yul\":1602:1661   */\n      tag_66\n      jump\t// in\n    tag_122:\n        /* \"#utility.yul\":1592:1661   */\n      swap3\n      pop\n        /* \"#utility.yul\":1450:1671   */\n      pop\n        /* \"#utility.yul\":1437:1438   */\n      0x01\n        /* \"#utility.yul\":1434:1435   */\n      dup2\n        /* \"#utility.yul\":1430:1439   */\n      add\n        /* \"#utility.yul\":1425:1439   */\n      swap1\n      pop\n        /* \"#utility.yul\":1390:1671   */\n      jump(tag_118)\n    tag_120:\n        /* \"#utility.yul\":1394:1408   */\n      pop\n        /* \"#utility.yul\":1687:1690   */\n      dup6\n        /* \"#utility.yul\":1680:1690   */\n      swap4\n      pop\n        /* \"#utility.yul\":1094:1696   */\n      pop\n      pop\n      pop\n        /* \"#utility.yul\":972:1696   */\n      swap3\n      swap2\n      pop\n      pop\n      jump\t// out\n        /* \"#utility.yul\":1702:2071   */\n    tag_11:\n        /* \"#utility.yul\":1843:1847   */\n      0x00\n        /* \"#utility.yul\":1881:1883   */\n      0x20\n        /* \"#utility.yul\":1870:1879   */\n      dup3\n        /* \"#utility.yul\":1866:1884   */\n      add\n        /* \"#utility.yul\":1858:1884   */\n      swap1\n      pop\n        /* \"#utility.yul\":1930:1939   */\n      dup2\n        /* \"#utility.yul\":1924:1928   */\n      dup2\n        /* \"#utility.yul\":1920:1940   */\n      sub\n        /* \"#utility.yul\":1916:1917   */\n      0x00\n        /* \"#utility.yul\":1905:1914   */\n      dup4\n        /* \"#utility.yul\":1901:1918   */\n      add\n        /* \"#utility.yul\":1894:1941   */\n      mstore\n        /* \"#utility.yul\":1958:2064   */\n      tag_124\n        /* \"#utility.yul\":2059:2063   */\n      dup2\n        /* \"#utility.yul\":2050:2056   */\n      dup5\n        /* \"#utility.yul\":1958:2064   */\n      tag_67\n      jump\t// in\n    tag_124:\n        /* \"#utility.yul\":1950:2064   */\n      swap1\n      pop\n        /* \"#utility.yul\":1702:2071   */\n      swap3\n      swap2\n      pop\n      pop\n      jump\t// out\n        /* \"#utility.yul\":2077:2154   */\n    tag_68:\n        /* \"#utility.yul\":2114:2121   */\n      0x00\n        /* \"#utility.yul\":2143:2148   */\n      dup2\n        /* \"#utility.yul\":2132:2148   */\n      swap1\n      pop\n        /* \"#utility.yul\":2077:2154   */\n      swap2\n      swap1\n      pop\n      jump\t// out\n        /* \"#utility.yul\":2160:2278   */\n    tag_69:\n        /* \"#utility.yul\":2247:2271   */\n      tag_127\n        /* \"#utility.yul\":2265:2270   */\n      dup2\n        /* \"#utility.yul\":2247:2271   */\n      tag_68\n      jump\t// in\n    tag_127:\n        /* \"#utility.yul\":2242:2245   */\n      dup3\n        /* \"#utility.yul\":2235:2272   */\n      mstore\n        /* \"#utility.yul\":2160:2278   */\n      pop\n      pop\n      jump\t// out\n        /* \"#utility.yul\":2284:2506   */\n    tag_15:\n        /* \"#utility.yul\":2377:2381   */\n      0x00\n        /* \"#utility.yul\":2415:2417   */\n      0x20\n        /* \"#utility.yul\":2404:2413   */\n      dup3\n        /* \"#utility.yul\":2400:2418   */\n      add\n        /* \"#utility.yul\":2392:2418   */\n      swap1\n      pop\n        /* \"#utility.yul\":2428:2499   */\n      tag_129\n        /* \"#utility.yul\":2496:2497   */\n      0x00\n        /* \"#utility.yul\":2485:2494   */\n      dup4\n        /* \"#utility.yul\":2481:2498   */\n      add\n        /* \"#utility.yul\":2472:2478   */\n      dup5\n        /* \"#utility.yul\":2428:2499   */\n      tag_69\n      jump\t// in\n    tag_129:\n        /* \"#utility.yul\":2284:2506   */\n      swap3\n      swap2\n      pop\n      pop\n      jump\t// out\n        /* \"#utility.yul\":2593:2710   */\n    tag_71:\n        /* \"#utility.yul\":2702:2703   */\n      0x00\n        /* \"#utility.yul\":2699:2700   */\n      dup1\n        /* \"#utility.yul\":2692:2704   */\n      revert\n        /* \"#utility.yul\":2839:2959   */\n    tag_73:\n        /* \"#utility.yul\":2911:2934   */\n      tag_134\n        /* \"#utility.yul\":2928:2933   */\n      dup2\n        /* \"#utility.yul\":2911:2934   */\n      tag_63\n      jump\t// in\n    tag_134:\n        /* \"#utility.yul\":2904:2909   */\n      dup2\n        /* \"#utility.yul\":2901:2935   */\n      eq\n        /* \"#utility.yul\":2891:2953   */\n      tag_135\n      jumpi\n        /* \"#utility.yul\":2949:2950   */\n      0x00\n        /* \"#utility.yul\":2946:2947   */\n      dup1\n        /* \"#utility.yul\":2939:2951   */\n      revert\n        /* \"#utility.yul\":2891:2953   */\n    tag_135:\n        /* \"#utility.yul\":2839:2959   */\n      pop\n      jump\t// out\n        /* \"#utility.yul\":2965:3102   */\n    tag_74:\n        /* \"#utility.yul\":3010:3015   */\n      0x00\n        /* \"#utility.yul\":3048:3054   */\n      dup2\n        /* \"#utility.yul\":3035:3055   */\n      calldataload\n        /* \"#utility.yul\":3026:3055   */\n      swap1\n      pop\n        /* \"#utility.yul\":3064:3096   */\n      tag_137\n        /* \"#utility.yul\":3090:3095   */\n      dup2\n        /* \"#utility.yul\":3064:3096   */\n      tag_73\n      jump\t// in\n    tag_137:\n        /* \"#utility.yul\":2965:3102   */\n      swap3\n      swap2\n      pop\n      pop\n      jump\t// out\n        /* \"#utility.yul\":3108:3435   */\n    tag_18:\n        /* \"#utility.yul\":3166:3172   */\n      0x00\n        /* \"#utility.yul\":3215:3217   */\n      0x20\n        /* \"#utility.yul\":3203:3212   */\n      dup3\n        /* \"#utility.yul\":3194:3201   */\n      dup5\n        /* \"#utility.yul\":3190:3213   */\n      sub\n        /* \"#utility.yul\":3186:3218   */\n      slt\n        /* \"#utility.yul\":3183:3302   */\n      iszero\n      tag_139\n      jumpi\n        /* \"#utility.yul\":3221:3300   */\n      tag_140\n      tag_71\n      jump\t// in\n    tag_140:\n        /* \"#utility.yul\":3183:3302   */\n    tag_139:\n        /* \"#utility.yul\":3341:3342   */\n      0x00\n        /* \"#utility.yul\":3366:3418   */\n      tag_141\n        /* \"#utility.yul\":3410:3417   */\n      dup5\n        /* \"#utility.yul\":3401:3407   */\n      dup3\n        /* \"#utility.yul\":3390:3399   */\n      dup6\n        /* \"#utility.yul\":3386:3408   */\n      add\n        /* \"#utility.yul\":3366:3418   */\n      tag_74\n      jump\t// in\n    tag_141:\n        /* \"#utility.yul\":3356:3418   */\n      swap2\n      pop\n        /* \"#utility.yul\":3312:3428   */\n      pop\n        /* \"#utility.yul\":3108:3435   */\n      swap3\n      swap2\n      pop\n      pop\n      jump\t// out\n        /* \"#utility.yul\":3441:3563   */\n    tag_75:\n        /* \"#utility.yul\":3514:3538   */\n      tag_143\n        /* \"#utility.yul\":3532:3537   */\n      dup2\n        /* \"#utility.yul\":3514:3538   */\n      tag_68\n      jump\t// in\n    tag_143:\n        /* \"#utility.yul\":3507:3512   */\n      dup2\n        /* \"#utility.yul\":3504:3539   */\n      eq\n        /* \"#utility.yul\":3494:3557   */\n      tag_144\n      jumpi\n        /* \"#utility.yul\":3553:3554   */\n      0x00\n        /* \"#utility.yul\":3550:3551   */\n      dup1\n        /* \"#utility.yul\":3543:3555   */\n      revert\n        /* \"#utility.yul\":3494:3557   */\n    tag_144:\n        /* \"#utility.yul\":3441:3563   */\n      pop\n      jump\t// out\n        /* \"#utility.yul\":3569:3708   */\n    tag_76:\n        /* \"#utility.yul\":3615:3620   */\n      0x00\n        /* \"#utility.yul\":3653:3659   */\n      dup2\n        /* \"#utility.yul\":3640:3660   */\n      calldataload\n        /* \"#utility.yul\":3631:3660   */\n      swap1\n      pop\n        /* \"#utility.yul\":3669:3702   */\n      tag_146\n        /* \"#utility.yul\":3696:3701   */\n      dup2\n        /* \"#utility.yul\":3669:3702   */\n      tag_75\n      jump\t// in\n    tag_146:\n        /* \"#utility.yul\":3569:3708   */\n      swap3\n      swap2\n      pop\n      pop\n      jump\t// out\n        /* \"#utility.yul\":3714:3840   */\n    tag_77:\n        /* \"#utility.yul\":3751:3758   */\n      0x00\n        /* \"#utility.yul\":3791:3833   */\n      0xffffffffffffffffffffffffffffffffffffffff\n        /* \"#utility.yul\":3784:3789   */\n      dup3\n        /* \"#utility.yul\":3780:3834   */\n      and\n        /* \"#utility.yul\":3769:3834   */\n      swap1\n      pop\n        /* \"#utility.yul\":3714:3840   */\n      swap2\n      swap1\n      pop\n      jump\t// out\n        /* \"#utility.yul\":3846:3942   */\n    tag_78:\n        /* \"#utility.yul\":3883:3890   */\n      0x00\n        /* \"#utility.yul\":3912:3936   */\n      tag_149\n        /* \"#utility.yul\":3930:3935   */\n      dup3\n        /* \"#utility.yul\":3912:3936   */\n      tag_77\n      jump\t// in\n    tag_149:\n        /* \"#utility.yul\":3901:3936   */\n      swap1\n      pop\n        /* \"#utility.yul\":3846:3942   */\n      swap2\n      swap1\n      pop\n      jump\t// out\n        /* \"#utility.yul\":3948:4070   */\n    tag_79:\n        /* \"#utility.yul\":4021:4045   */\n      tag_151\n        /* \"#utility.yul\":4039:4044   */\n      dup2\n        /* \"#utility.yul\":4021:4045   */\n      tag_78\n      jump\t// in\n    tag_151:\n        /* \"#utility.yul\":4014:4019   */\n      dup2\n        /* \"#utility.yul\":4011:4046   */\n      eq\n        /* \"#utility.yul\":4001:4064   */\n      tag_152\n      jumpi\n        /* \"#utility.yul\":4060:4061   */\n      0x00\n        /* \"#utility.yul\":4057:4058   */\n      dup1\n        /* \"#utility.yul\":4050:4062   */\n      revert\n        /* \"#utility.yul\":4001:4064   */\n    tag_152:\n        /* \"#utility.yul\":3948:4070   */\n      pop\n      jump\t// out\n        /* \"#utility.yul\":4076:4215   */\n    tag_80:\n        /* \"#utility.yul\":4122:4127   */\n      0x00\n        /* \"#utility.yul\":4160:4166   */\n      dup2\n        /* \"#utility.yul\":4147:4167   */\n      calldataload\n        /* \"#utility.yul\":4138:4167   */\n      swap1\n      pop\n        /* \"#utility.yul\":4176:4209   */\n      tag_154\n        /* \"#utility.yul\":4203:4208   */\n      dup2\n        /* \"#utility.yul\":4176:4209   */\n      tag_79\n      jump\t// in\n    tag_154:\n        /* \"#utility.yul\":4076:4215   */\n      swap3\n      swap2\n      pop\n      pop\n      jump\t// out\n        /* \"#utility.yul\":4221:4695   */\n    tag_22:\n        /* \"#utility.yul\":4289:4295   */\n      0x00\n        /* \"#utility.yul\":4297:4303   */\n      dup1\n        /* \"#utility.yul\":4346:4348   */\n      0x40\n        /* \"#utility.yul\":4334:4343   */\n      dup4\n        /* \"#utility.yul\":4325:4332   */\n      dup6\n        /* \"#utility.yul\":4321:4344   */\n      sub\n        /* \"#utility.yul\":4317:4349   */\n      slt\n        /* \"#utility.yul\":4314:4433   */\n      iszero\n      tag_156\n      jumpi\n        /* \"#utility.yul\":4352:4431   */\n      tag_157\n      tag_71\n      jump\t// in\n    tag_157:\n        /* \"#utility.yul\":4314:4433   */\n    tag_156:\n        /* \"#utility.yul\":4472:4473   */\n      0x00\n        /* \"#utility.yul\":4497:4550   */\n      tag_158\n        /* \"#utility.yul\":4542:4549   */\n      dup6\n        /* \"#utility.yul\":4533:4539   */\n      dup3\n        /* \"#utility.yul\":4522:4531   */\n      dup7\n        /* \"#utility.yul\":4518:4540   */\n      add\n        /* \"#utility.yul\":4497:4550   */\n      tag_76\n      jump\t// in\n    tag_158:\n        /* \"#utility.yul\":4487:4550   */\n      swap3\n      pop\n        /* \"#utility.yul\":4443:4560   */\n      pop\n        /* \"#utility.yul\":4599:4601   */\n      0x20\n        /* \"#utility.yul\":4625:4678   */\n      tag_159\n        /* \"#utility.yul\":4670:4677   */\n      dup6\n        /* \"#utility.yul\":4661:4667   */\n      dup3\n        /* \"#utility.yul\":4650:4659   */\n      dup7\n        /* \"#utility.yul\":4646:4668   */\n      add\n        /* \"#utility.yul\":4625:4678   */\n      tag_80\n      jump\t// in\n    tag_159:\n        /* \"#utility.yul\":4615:4678   */\n      swap2\n      pop\n        /* \"#utility.yul\":4570:4688   */\n      pop\n        /* \"#utility.yul\":4221:4695   */\n      swap3\n      pop\n      swap3\n      swap1\n      pop\n      jump\t// out\n        /* \"#utility.yul\":4701:4800   */\n    tag_81:\n        /* \"#utility.yul\":4753:4759   */\n      0x00\n        /* \"#utility.yul\":4787:4792   */\n      dup2\n        /* \"#utility.yul\":4781:4793   */\n      mload\n        /* \"#utility.yul\":4771:4793   */\n      swap1\n      pop\n        /* \"#utility.yul\":4701:4800   */\n      swap2\n      swap1\n      pop\n      jump\t// out\n        /* \"#utility.yul\":4806:4975   */\n    tag_82:\n        /* \"#utility.yul\":4890:4901   */\n      0x00\n        /* \"#utility.yul\":4924:4930   */\n      dup3\n        /* \"#utility.yul\":4919:4922   */\n      dup3\n        /* \"#utility.yul\":4912:4931   */\n      mstore\n        /* \"#utility.yul\":4964:4968   */\n      0x20\n        /* \"#utility.yul\":4959:4962   */\n      dup3\n        /* \"#utility.yul\":4955:4969   */\n      add\n        /* \"#utility.yul\":4940:4969   */\n      swap1\n      pop\n        /* \"#utility.yul\":4806:4975   */\n      swap3\n      swap2\n      pop\n      pop\n      jump\t// out\n        /* \"#utility.yul\":4981:5120   */\n    tag_83:\n        /* \"#utility.yul\":5070:5076   */\n      dup3\n        /* \"#utility.yul\":5065:5068   */\n      dup2\n        /* \"#utility.yul\":5060:5063   */\n      dup4\n        /* \"#utility.yul\":5054:5077   */\n      mcopy\n        /* \"#utility.yul\":5111:5112   */\n      0x00\n        /* \"#utility.yul\":5102:5108   */\n      dup4\n        /* \"#utility.yul\":5097:5100   */\n      dup4\n        /* \"#utility.yul\":5093:5109   */\n      add\n        /* \"#utility.yul\":5086:5113   */\n      mstore\n        /* \"#utility.yul\":4981:5120   */\n      pop\n      pop\n      pop\n      jump\t// out\n        /* \"#utility.yul\":5126:5228   */\n    tag_84:\n        /* \"#utility.yul\":5167:5173   */\n      0x00\n        /* \"#utility.yul\":5218:5220   */\n      0x1f\n        /* \"#utility.yul\":5214:5221   */\n      not\n        /* \"#utility.yul\":5209:5211   */\n      0x1f\n        /* \"#utility.yul\":5202:5207   */\n      dup4\n        /* \"#utility.yul\":5198:5212   */\n      add\n        /* \"#utility.yul\":5194:5222   */\n      and\n        /* \"#utility.yul\":5184:5222   */\n      swap1\n      pop\n        /* \"#utility.yul\":5126:5228   */\n      swap2\n      swap1\n      pop\n      jump\t// out\n        /* \"#utility.yul\":5234:5611   */\n    tag_85:\n        /* \"#utility.yul\":5322:5325   */\n      0x00\n        /* \"#utility.yul\":5350:5389   */\n      tag_165\n        /* \"#utility.yul\":5383:5388   */\n      dup3\n        /* \"#utility.yul\":5350:5389   */\n      tag_81\n      jump\t// in\n    tag_165:\n        /* \"#utility.yul\":5405:5476   */\n      tag_166\n        /* \"#utility.yul\":5469:5475   */\n      dup2\n        /* \"#utility.yul\":5464:5467   */\n      dup6\n        /* \"#utility.yul\":5405:5476   */\n      tag_82\n      jump\t// in\n    tag_166:\n        /* \"#utility.yul\":5398:5476   */\n      swap4\n      pop\n        /* \"#utility.yul\":5485:5550   */\n      tag_167\n        /* \"#utility.yul\":5543:5549   */\n      dup2\n        /* \"#utility.yul\":5538:5541   */\n      dup6\n        /* \"#utility.yul\":5531:5535   */\n      0x20\n        /* \"#utility.yul\":5524:5529   */\n      dup7\n        /* \"#utility.yul\":5520:5536   */\n      add\n        /* \"#utility.yul\":5485:5550   */\n      tag_83\n      jump\t// in\n    tag_167:\n        /* \"#utility.yul\":5575:5604   */\n      tag_168\n        /* \"#utility.yul\":5597:5603   */\n      dup2\n        /* \"#utility.yul\":5575:5604   */\n      tag_84\n      jump\t// in\n    tag_168:\n        /* \"#utility.yul\":5570:5573   */\n      dup5\n        /* \"#utility.yul\":5566:5605   */\n      add\n        /* \"#utility.yul\":5559:5605   */\n      swap2\n      pop\n        /* \"#utility.yul\":5326:5611   */\n      pop\n        /* \"#utility.yul\":5234:5611   */\n      swap3\n      swap2\n      pop\n      pop\n      jump\t// out\n        /* \"#utility.yul\":5617:5930   */\n    tag_25:\n        /* \"#utility.yul\":5730:5734   */\n      0x00\n        /* \"#utility.yul\":5768:5770   */\n      0x20\n        /* \"#utility.yul\":5757:5766   */\n      dup3\n        /* \"#utility.yul\":5753:5771   */\n      add\n        /* \"#utility.yul\":5745:5771   */\n      swap1\n      pop\n        /* \"#utility.yul\":5817:5826   */\n      dup2\n        /* \"#utility.yul\":5811:5815   */\n      dup2\n        /* \"#utility.yul\":5807:5827   */\n      sub\n        /* \"#utility.yul\":5803:5804   */\n      0x00\n        /* \"#utility.yul\":5792:5801   */\n      dup4\n        /* \"#utility.yul\":5788:5805   */\n      add\n        /* \"#utility.yul\":5781:5828   */\n      mstore\n        /* \"#utility.yul\":5845:5923   */\n      tag_170\n        /* \"#utility.yul\":5918:5922   */\n      dup2\n        /* \"#utility.yul\":5909:5915   */\n      dup5\n        /* \"#utility.yul\":5845:5923   */\n      tag_85\n      jump\t// in\n    tag_170:\n        /* \"#utility.yul\":5837:5923   */\n      swap1\n      pop\n        /* \"#utility.yul\":5617:5930   */\n      swap3\n      swap2\n      pop\n      pop\n      jump\t// out\n        /* \"#utility.yul\":5936:6116   */\n    tag_86:\n        /* \"#utility.yul\":5984:6061   */\n      0x4e487b7100000000000000000000000000000000000000000000000000000000\n        /* \"#utility.yul\":5981:5982   */\n      0x00\n        /* \"#utility.yul\":5974:6062   */\n      mstore\n        /* \"#utility.yul\":6081:6085   */\n      0x11\n        /* \"#utility.yul\":6078:6079   */\n      0x04\n        /* \"#utility.yul\":6071:6086   */\n      mstore\n        /* \"#utility.yul\":6105:6109   */\n      0x24\n        /* \"#utility.yul\":6102:6103   */\n      0x00\n        /* \"#utility.yul\":6095:6110   */\n      revert\n        /* \"#utility.yul\":6122:6313   */\n    tag_39:\n        /* \"#utility.yul\":6162:6165   */\n      0x00\n        /* \"#utility.yul\":6181:6201   */\n      tag_173\n        /* \"#utility.yul\":6199:6200   */\n      dup3\n        /* \"#utility.yul\":6181:6201   */\n      tag_68\n      jump\t// in\n    tag_173:\n        /* \"#utility.yul\":6176:6201   */\n      swap2\n      pop\n        /* \"#utility.yul\":6215:6235   */\n      tag_174\n        /* \"#utility.yul\":6233:6234   */\n      dup4\n        /* \"#utility.yul\":6215:6235   */\n      tag_68\n      jump\t// in\n    tag_174:\n        /* \"#utility.yul\":6210:6235   */\n      swap3\n      pop\n        /* \"#utility.yul\":6258:6259   */\n      dup3\n        /* \"#utility.yul\":6255:6256   */\n      dup3\n        /* \"#utility.yul\":6251:6260   */\n      add\n        /* \"#utility.yul\":6244:6260   */\n      swap1\n      pop\n        /* \"#utility.yul\":6279:6282   */\n      dup1\n        /* \"#utility.yul\":6276:6277   */\n      dup3\n        /* \"#utility.yul\":6273:6283   */\n      gt\n        /* \"#utility.yul\":6270:6306   */\n      iszero\n      tag_175\n      jumpi\n        /* \"#utility.yul\":6286:6304   */\n      tag_176\n      tag_86\n      jump\t// in\n    tag_176:\n        /* \"#utility.yul\":6270:6306   */\n    tag_175:\n        /* \"#utility.yul\":6122:6313   */\n      swap3\n      swap2\n      pop\n      pop\n      jump\t// out\n        /* \"#utility.yul\":6319:6499   */\n    tag_87:\n        /* \"#utility.yul\":6367:6444   */\n      0x4e487b7100000000000000000000000000000000000000000000000000000000\n        /* \"#utility.yul\":6364:6365   */\n      0x00\n        /* \"#utility.yul\":6357:6445   */\n      mstore\n        /* \"#utility.yul\":6464:6468   */\n      0x41\n        /* \"#utility.yul\":6461:6462   */\n      0x04\n        /* \"#utility.yul\":6454:6469   */\n      mstore\n        /* \"#utility.yul\":6488:6492   */\n      0x24\n        /* \"#utility.yul\":6485:6486   */\n      0x00\n        /* \"#utility.yul\":6478:6493   */\n      revert\n        /* \"#utility.yul\":6505:6685   */\n    tag_88:\n        /* \"#utility.yul\":6553:6630   */\n      0x4e487b7100000000000000000000000000000000000000000000000000000000\n        /* \"#utility.yul\":6550:6551   */\n      0x00\n        /* \"#utility.yul\":6543:6631   */\n      mstore\n        /* \"#utility.yul\":6650:6654   */\n      0x22\n        /* \"#utility.yul\":6647:6648   */\n      0x04\n        /* \"#utility.yul\":6640:6655   */\n      mstore\n        /* \"#utility.yul\":6674:6678   */\n      0x24\n        /* \"#utility.yul\":6671:6672   */\n      0x00\n        /* \"#utility.yul\":6664:6679   */\n      revert\n        /* \"#utility.yul\":6691:7011   */\n    tag_43:\n        /* \"#utility.yul\":6735:6741   */\n      0x00\n        /* \"#utility.yul\":6772:6773   */\n      0x02\n        /* \"#utility.yul\":6766:6770   */\n      dup3\n        /* \"#utility.yul\":6762:6774   */\n      div\n        /* \"#utility.yul\":6752:6774   */\n      swap1\n      pop\n        /* \"#utility.yul\":6819:6820   */\n      0x01\n        /* \"#utility.yul\":6813:6817   */\n      dup3\n        /* \"#utility.yul\":6809:6821   */\n      and\n        /* \"#utility.yul\":6840:6858   */\n      dup1\n        /* \"#utility.yul\":6830:6911   */\n      tag_180\n      jumpi\n        /* \"#utility.yul\":6896:6900   */\n      0x7f\n        /* \"#utility.yul\":6888:6894   */\n      dup3\n        /* \"#utility.yul\":6884:6901   */\n      and\n        /* \"#utility.yul\":6874:6901   */\n      swap2\n      pop\n        /* \"#utility.yul\":6830:6911   */\n    tag_180:\n        /* \"#utility.yul\":6958:6960   */\n      0x20\n        /* \"#utility.yul\":6950:6956   */\n      dup3\n        /* \"#utility.yul\":6947:6961   */\n      lt\n        /* \"#utility.yul\":6927:6945   */\n      dup2\n        /* \"#utility.yul\":6924:6962   */\n      sub\n        /* \"#utility.yul\":6921:7005   */\n      tag_181\n      jumpi\n        /* \"#utility.yul\":6977:6995   */\n      tag_182\n      tag_88\n      jump\t// in\n    tag_182:\n        /* \"#utility.yul\":6921:7005   */\n    tag_181:\n        /* \"#utility.yul\":6742:7011   */\n      pop\n        /* \"#utility.yul\":6691:7011   */\n      swap2\n      swap1\n      pop\n      jump\t// out\n        /* \"#utility.yul\":7017:7158   */\n    tag_89:\n        /* \"#utility.yul\":7066:7070   */\n      0x00\n        /* \"#utility.yul\":7089:7092   */\n      dup2\n        /* \"#utility.yul\":7081:7092   */\n      swap1\n      pop\n        /* \"#utility.yul\":7112:7115   */\n      dup2\n        /* \"#utility.yul\":7109:7110   */\n      0x00\n        /* \"#utility.yul\":7102:7116   */\n      mstore\n        /* \"#utility.yul\":7146:7150   */\n      0x20\n        /* \"#utility.yul\":7143:7144   */\n      0x00\n        /* \"#utility.yul\":7133:7151   */\n      keccak256\n        /* \"#utility.yul\":7125:7151   */\n      swap1\n      pop\n        /* \"#utility.yul\":7017:7158   */\n      swap2\n      swap1\n      pop\n      jump\t// out\n        /* \"#utility.yul\":7164:7257   */\n    tag_90:\n        /* \"#utility.yul\":7201:7207   */\n      0x00\n        /* \"#utility.yul\":7248:7250   */\n      0x20\n        /* \"#utility.yul\":7243:7245   */\n      0x1f\n        /* \"#utility.yul\":7236:7241   */\n      dup4\n        /* \"#utility.yul\":7232:7246   */\n      add\n        /* \"#utility.yul\":7228:7251   */\n      div\n        /* \"#utility.yul\":7218:7251   */\n      swap1\n      pop\n        /* \"#utility.yul\":7164:7257   */\n      swap2\n      swap1\n      pop\n      jump\t// out\n        /* \"#utility.yul\":7263:7370   */\n    tag_91:\n        /* \"#utility.yul\":7307:7315   */\n      0x00\n        /* \"#utility.yul\":7357:7362   */\n      dup3\n        /* \"#utility.yul\":7351:7355   */\n      dup3\n        /* \"#utility.yul\":7347:7363   */\n      shl\n        /* \"#utility.yul\":7326:7363   */\n      swap1\n      pop\n        /* \"#utility.yul\":7263:7370   */\n      swap3\n      swap2\n      pop\n      pop\n      jump\t// out\n        /* \"#utility.yul\":7376:7769   */\n    tag_92:\n        /* \"#utility.yul\":7445:7451   */\n      0x00\n        /* \"#utility.yul\":7495:7496   */\n      0x08\n        /* \"#utility.yul\":7483:7493   */\n      dup4\n        /* \"#utility.yul\":7479:7497   */\n      mul\n        /* \"#utility.yul\":7518:7615   */\n      tag_187\n        /* \"#utility.yul\":7548:7614   */\n      0xffffffffffffffffffffffffffffffffffffffffffffffffffffffffffffffff\n        /* \"#utility.yul\":7537:7546   */\n      dup3\n        /* \"#utility.yul\":7518:7615   */\n      tag_91\n      jump\t// in\n    tag_187:\n        /* \"#utility.yul\":7636:7675   */\n      tag_188\n        /* \"#utility.yul\":7666:7674   */\n      dup7\n        /* \"#utility.yul\":7655:7664   */\n      dup4\n        /* \"#utility.yul\":7636:7675   */\n      tag_91\n      jump\t// in\n    tag_188:\n        /* \"#utility.yul\":7624:7675   */\n      swap6\n      pop\n        /* \"#utility.yul\":7708:7712   */\n      dup1\n        /* \"#utility.yul\":7704:7713   */\n      not\n        /* \"#utility.yul\":7697:7702   */\n      dup5\n        /* \"#utility.yul\":7693:7714   */\n      and\n        /* \"#utility.yul\":7684:7714   */\n      swap4\n      pop\n        /* \"#utility.yul\":7757:7761   */\n      dup1\n        /* \"#utility.yul\":7747:7755   */\n      dup7\n        /* \"#utility.yul\":7743:7762   */\n      and\n        /* \"#utility.yul\":7736:7741   */\n      dup5\n        /* \"#utility.yul\":7733:7763   */\n      or\n        /* \"#utility.yul\":7723:7763   */\n      swap3\n      pop\n        /* \"#utility.yul\":7452:7769   */\n      pop\n      pop\n        /* \"#utility.yul\":7376:7769   */\n      swap4\n      swap3\n      pop\n      pop\n      pop\n      jump\t// out\n        /* \"#utility.yul\":7775:7835   */\n    tag_93:\n        /* \"#utility.yul\":7803:7806   */\n      0x00\n        /* \"#utility.yul\":7824:7829   */\n      dup2\n        /* \"#utility.yul\":7817:7829   */\n      swap1\n      pop\n        /* \"#utility.yul\":7775:7835   */\n      swap2\n      swap1\n      pop\n      jump\t// out\n        /* \"#utility.yul\":7841:7983   */\n    tag_94:\n        /* \"#utility.yul\":7891:7900   */\n      0x00\n        /* \"#utility.yul\":7924:7977   */\n      tag_191\n        /* \"#utility.yul\":7942:7976   */\n      tag_192\n        /* \"#utility.yul\":7951:7975   */\n      tag_193\n        /* \"#utility.yul\":7969:7974   */\n      dup5\n        /* \"#utility.yul\":7951:7975   */\n      tag_68\n      jump\t// in\n    tag_193:\n        /* \"#utility.yul\":7942:7976   */\n      tag_93\n      jump\t// in\n    tag_192:\n        /* \"#utility.yul\":7924:7977   */\n      tag_68\n      jump\t// in\n    tag_191:\n        /* \"#utility.yul\":7911:7977   */\n      swap1\n      pop\n        /* \"#utility.yul\":7841:7983   */\n      swap2\n      swap1\n      pop\n      jump\t// out\n        /* \"#utility.yul\":7989:8064   */\n    tag_95:\n        /* \"#utility.yul\":8032:8035   */\n      0x00\n        /* \"#utility.yul\":8053:8058   */\n      dup2\n        /* \"#utility.yul\":8046:8058   */\n      swap1\n      pop\n        /* \"#utility.yul\":7989:8064   */\n      swap2\n      swap1\n      pop\n      jump\t// out\n        /* \"#utility.yul\":8070:8339   */\n    tag_96:\n        /* \"#utility.yul\":8180:8219   */\n      tag_196\n        /* \"#utility.yul\":8211:8218   */\n      dup4\n        /* \"#utility.yul\":8180:8219   */\n      tag_94\n      jump\t// in\n    tag_196:\n        /* \"#utility.yul\":8241:8332   */\n      tag_197\n        /* \"#utility.yul\":8290:8331   */\n      tag_198\n        /* \"#utility.yul\":8314:8330   */\n      dup3\n        /* \"#utility.yul\":8290:8331   */\n      tag_95\n      jump\t// in\n    tag_198:\n        /* \"#utility.yul\":8282:8288   */\n      dup5\n        /* \"#utility.yul\":8275:8279   */\n      dup5\n        /* \"#utility.yul\":8269:8280   */\n      sload\n        /* \"#utility.yul\":8241:8332   */\n      tag_92\n      jump\t// in\n    tag_197:\n        /* \"#utility.yul\":8235:8239   */\n      dup3\n        /* \"#utility.yul\":8228:8333   */\n      sstore\n        /* \"#utility.yul\":8146:8339   */\n      pop\n        /* \"#utility.yul\":8070:8339   */\n      pop\n      pop\n      pop\n      jump\t// out\n        /* \"#utility.yul\":8345:8418   */\n    tag_97:\n        /* \"#utility.yul\":8390:8393   */\n      0x00\n        /* \"#utility.yul\":8345:8418   */\n      swap1\n      jump\t// out\n        /* \"#utility.yul\":8424:8613   */\n    tag_98:\n        /* \"#utility.yul\":8501:8533   */\n      tag_201\n      tag_97\n      jump\t// in\n    tag_201:\n        /* \"#utility.yul\":8542:8607   */\n      tag_202\n        /* \"#utility.yul\":8600:8606   */\n      dup2\n        /* \"#utility.yul\":8592:8598   */\n      dup5\n        /* \"#utility.yul\":8586:8590   */\n      dup5\n        /* \"#utility.yul\":8542:8607   */\n      tag_96\n      jump\t// in\n    tag_202:\n        /* \"#utility.yul\":8477:8613   */\n      pop\n        /* \"#utility.yul\":8424:8613   */\n      pop\n      pop\n      jump\t// out\n        /* \"#utility.yul\":8619:8805   */\n    tag_99:\n        /* \"#utility.yul\":8679:8799   */\n    tag_204:\n        /* \"#utility.yul\":8696:8699   */\n      dup2\n        /* \"#utility.yul\":8689:8694   */\n      dup2\n        /* \"#utility.yul\":8686:8700   */\n      lt\n        /* \"#utility.yul\":8679:8799   */\n      iszero\n      tag_206\n      jumpi\n        /* \"#utility.yul\":8750:8789   */\n      tag_207\n        /* \"#utility.yul\":8787:8788   */\n      0x00\n        /* \"#utility.yul\":8780:8785   */\n      dup3\n        /* \"#utility.yul\":8750:8789   */\n      tag_98\n      jump\t// in\n    tag_207:\n        /* \"#utility.yul\":8723:8724   */\n      0x01\n        /* \"#utility.yul\":8716:8721   */\n      dup2\n        /* \"#utility.yul\":8712:8725   */\n      add\n        /* \"#utility.yul\":8703:8725   */\n      swap1\n      pop\n        /* \"#utility.yul\":8679:8799   */\n      jump(tag_204)\n    tag_206:\n        /* \"#utility.yul\":8619:8805   */\n      pop\n      pop\n      jump\t// out\n        /* \"#utility.yul\":8811:9354   */\n    tag_100:\n        /* \"#utility.yul\":8912:8914   */\n      0x1f\n        /* \"#utility.yul\":8907:8910   */\n      dup3\n        /* \"#utility.yul\":8904:8915   */\n      gt\n        /* \"#utility.yul\":8901:9347   */\n      iszero\n      tag_209\n      jumpi\n        /* \"#utility.yul\":8946:8984   */\n      tag_210\n        /* \"#utility.yul\":8978:8983   */\n      dup2\n        /* \"#utility.yul\":8946:8984   */\n      tag_89\n      jump\t// in\n    tag_210:\n        /* \"#utility.yul\":9030:9059   */\n      tag_211\n        /* \"#utility.yul\":9048:9058   */\n      dup5\n        /* \"#utility.yul\":9030:9059   */\n      tag_90\n      jump\t// in\n    tag_211:\n        /* \"#utility.yul\":9020:9028   */\n      dup2\n        /* \"#utility.yul\":9016:9060   */\n      add\n        /* \"#utility.yul\":9213:9215   */\n      0x20\n        /* \"#utility.yul\":9201:9211   */\n      dup6\n        /* \"#utility.yul\":9198:9216   */\n      lt\n        /* \"#utility.yul\":9195:9244   */\n      iszero\n      tag_212\n      jumpi\n        /* \"#utility.yul\":9234:9242   */\n      dup2\n        /* \"#utility.yul\":9219:9242   */\n      swap1\n      pop\n        /* \"#utility.yul\":9195:9244   */\n    tag_212:\n        /* \"#utility.yul\":9257:9337   */\n      tag_213\n        /* \"#utility.yul\":9313:9335   */\n      tag_214\n        /* \"#utility.yul\":9331:9334   */\n      dup6\n        /* \"#utility.yul\":9313:9335   */\n      tag_90\n      jump\t// in\n    tag_214:\n        /* \"#utility.yul\":9303:9311   */\n      dup4\n        /* \"#utility.yul\":9299:9336   */\n      add\n        /* \"#utility.yul\":9286:9297   */\n      dup3\n        /* \"#utility.yul\":9257:9337   */\n      tag_99\n      jump\t// in\n    tag_213:\n        /* \"#utility.yul\":8916:9347   */\n      pop\n      pop\n        /* \"#utility.yul\":8901:9347   */\n    tag_209:\n        /* \"#utility.yul\":8811:9354   */\n      pop\n      pop\n      pop\n      jump\t// out\n        /* \"#utility.yul\":9360:9477   */\n    tag_101:\n        /* \"#utility.yul\":9414:9422   */\n      0x00\n        /* \"#utility.yul\":9464:9469   */\n      dup3\n        /* \"#utility.yul\":9458:9462   */\n      dup3\n        /* \"#utility.yul\":9454:9470   */\n      shr\n        /* \"#utility.yul\":9433:9470   */\n      swap1\n      pop\n        /* \"#utility.yul\":9360:9477   */\n      swap3\n      swap2\n      pop\n      pop\n      jump\t// out\n        /* \"#utility.yul\":9483:9652   */\n    tag_102:\n        /* \"#utility.yul\":9527:9533   */\n      0x00\n        /* \"#utility.yul\":9560:9611   */\n      tag_217\n        /* \"#utility.yul\":9608:9609   */\n      0x00\n        /* \"#utility.yul\":9604:9610   */\n      not\n        /* \"#utility.yul\":9596:9601   */\n      dup5\n        /* \"#utility.yul\":9593:9594   */\n      0x08\n        /* \"#utility.yul\":9589:9602   */\n      mul\n        /* \"#utility.yul\":9560:9611   */\n      tag_101\n      jump\t// in\n    tag_217:\n        /* \"#utility.yul\":9556:9612   */\n      not\n        /* \"#utility.yul\":9641:9645   */\n      dup1\n        /* \"#utility.yul\":9635:9639   */\n      dup4\n        /* \"#utility.yul\":9631:9646   */\n      and\n        /* \"#utility.yul\":9621:9646   */\n      swap2\n      pop\n        /* \"#utility.yul\":9534:9652   */\n      pop\n        /* \"#utility.yul\":9483:9652   */\n      swap3\n      swap2\n      pop\n      pop\n      jump\t// out\n        /* \"#utility.yul\":9657:9952   */\n    tag_103:\n        /* \"#utility.yul\":9733:9737   */\n      0x00\n        /* \"#utility.yul\":9879:9908   */\n      tag_219\n        /* \"#utility.yul\":9904:9907   */\n      dup4\n        /* \"#utility.yul\":9898:9902   */\n      dup4\n        /* \"#utility.yul\":9879:9908   */\n      tag_102\n      jump\t// in\n    tag_219:\n        /* \"#utility.yul\":9871:9908   */\n      swap2\n      pop\n        /* \"#utility.yul\":9941:9944   */\n      dup3\n        /* \"#utility.yul\":9938:9939   */\n      0x02\n        /* \"#utility.yul\":9934:9945   */\n      mul\n        /* \"#utility.yul\":9928:9932   */\n      dup3\n        /* \"#utility.yul\":9925:9946   */\n      or\n        /* \"#utility.yul\":9917:9946   */\n      swap1\n      pop\n        /* \"#utility.yul\":9657:9952   */\n      swap3\n      swap2\n      pop\n      pop\n      jump\t// out\n        /* \"#utility.yul\":9957:11352   */\n    tag_41:\n        /* \"#utility.yul\":10074:10111   */\n      tag_221\n        /* \"#utility.yul\":10107:10110   */\n      dup3\n        /* \"#utility.yul\":10074:10111   */\n      tag_81\n      jump\t// in\n    tag_221:\n        /* \"#utility.yul\":10176:10194   */\n      0xffffffffffffffff\n        /* \"#utility.yul\":10168:10174   */\n      dup2\n        /* \"#utility.yul\":10165:10195   */\n      gt\n        /* \"#utility.yul\":10162:10218   */\n      iszero\n      tag_222\n      jumpi\n        /* \"#utility.yul\":10198:10216   */\n      tag_223\n      tag_87\n      jump\t// in\n    tag_223:\n        /* \"#utility.yul\":10162:10218   */\n    tag_222:\n        /* \"#utility.yul\":10242:10280   */\n      tag_224\n        /* \"#utility.yul\":10274:10278   */\n      dup3\n        /* \"#utility.yul\":10268:10279   */\n      sload\n        /* \"#utility.yul\":10242:10280   */\n      tag_43\n      jump\t// in\n    tag_224:\n        /* \"#utility.yul\":10327:10394   */\n      tag_225\n        /* \"#utility.yul\":10387:10393   */\n      dup3\n        /* \"#utility.yul\":10379:10385   */\n      dup3\n        /* \"#utility.yul\":10373:10377   */\n      dup6\n        /* \"#utility.yul\":10327:10394   */\n      tag_100\n      jump\t// in\n    tag_225:\n        /* \"#utility.yul\":10421:10422   */\n      0x00\n        /* \"#utility.yul\":10445:10449   */\n      0x20\n        /* \"#utility.yul\":10432:10449   */\n      swap1\n      pop\n        /* \"#utility.yul\":10477:10479   */\n      0x1f\n        /* \"#utility.yul\":10469:10475   */\n      dup4\n        /* \"#utility.yul\":10466:10480   */\n      gt\n        /* \"#utility.yul\":10494:10495   */\n      0x01\n        /* \"#utility.yul\":10489:11107   */\n      dup2\n      eq\n      tag_227\n      jumpi\n        /* \"#utility.yul\":11151:11152   */\n      0x00\n        /* \"#utility.yul\":11168:11174   */\n      dup5\n        /* \"#utility.yul\":11165:11242   */\n      iszero\n      tag_228\n      jumpi\n        /* \"#utility.yul\":11217:11226   */\n      dup3\n        /* \"#utility.yul\":11212:11215   */\n      dup8\n        /* \"#utility.yul\":11208:11227   */\n      add\n        /* \"#utility.yul\":11202:11228   */\n      mload\n        /* \"#utility.yul\":11193:11228   */\n      swap1\n      pop\n        /* \"#utility.yul\":11165:11242   */\n    tag_228:\n        /* \"#utility.yul\":11268:11335   */\n      tag_229\n        /* \"#utility.yul\":11328:11334   */\n      dup6\n        /* \"#utility.yul\":11321:11326   */\n      dup3\n        /* \"#utility.yul\":11268:11335   */\n      tag_103\n      jump\t// in\n    tag_229:\n        /* \"#utility.yul\":11262:11266   */\n      dup7\n        /* \"#utility.yul\":11255:11336   */\n      sstore\n        /* \"#utility.yul\":11124:11346   */\n      pop\n        /* \"#utility.yul\":10459:11346   */\n      jump(tag_226)\n        /* \"#utility.yul\":10489:11107   */\n    tag_227:\n        /* \"#utility.yul\":10541:10545   */\n      0x1f\n        /* \"#utility.yul\":10537:10546   */\n      not\n        /* \"#utility.yul\":10529:10535   */\n      dup5\n        /* \"#utility.yul\":10525:10547   */\n      and\n        /* \"#utility.yul\":10575:10612   */\n      tag_230\n        /* \"#utility.yul\":10607:10611   */\n      dup7\n        /* \"#utility.yul\":10575:10612   */\n      tag_89\n      jump\t// in\n    tag_230:\n        /* \"#utility.yul\":10634:10635   */\n      0x00\n        /* \"#utility.yul\":10648:10856   */\n    tag_231:\n        /* \"#utility.yul\":10662:10669   */\n      dup3\n        /* \"#utility.yul\":10659:10660   */\n      dup2\n        /* \"#utility.yul\":10656:10670   */\n      lt\n        /* \"#utility.yul\":10648:10856   */\n      iszero\n      tag_233\n      jumpi\n        /* \"#utility.yul\":10741:10750   */\n      dup5\n        /* \"#utility.yul\":10736:10739   */\n      dup10\n        /* \"#utility.yul\":10732:10751   */\n      add\n        /* \"#utility.yul\":10726:10752   */\n      mload\n        /* \"#utility.yul\":10718:10724   */\n      dup3\n        /* \"#utility.yul\":10711:10753   */\n      sstore\n        /* \"#utility.yul\":10792:10793   */\n      0x01\n        /* \"#utility.yul\":10784:10790   */\n      dup3\n        /* \"#utility.yul\":10780:10794   */\n      add\n        /* \"#utility.yul\":10770:10794   */\n      swap2\n      pop\n        /* \"#utility.yul\":10839:10841   */\n      0x20\n        /* \"#utility.yul\":10828:10837   */\n      dup6\n        /* \"#utility.yul\":10824:10842   */\n      add\n        /* \"#utility.yul\":10811:10842   */\n      swap5\n      pop\n        /* \"#utility.yul\":10685:10689   */\n      0x20\n        /* \"#utility.yul\":10682:10683   */\n      dup2\n        /* \"#utility.yul\":10678:10690   */\n      add\n        /* \"#utility.yul\":10673:10690   */\n      swap1\n      pop\n        /* \"#utility.yul\":10648:10856   */\n      jump(tag_231)\n    tag_233:\n        /* \"#utility.yul\":10884:10890   */\n      dup7\n        /* \"#utility.yul\":10875:10882   */\n      dup4\n        /* \"#utility.yul\":10872:10891   */\n      lt\n        /* \"#utility.yul\":10869:11048   */\n      iszero\n      tag_234\n      jumpi\n        /* \"#utility.yul\":10942:10951   */\n      dup5\n        /* \"#utility.yul\":10937:10940   */\n      dup10\n        /* \"#utility.yul\":10933:10952   */\n      add\n        /* \"#utility.yul\":10927:10953   */\n      mload\n        /* \"#utility.yul\":10985:11033   */\n      tag_235\n        /* \"#utility.yul\":11027:11031   */\n      0x1f\n        /* \"#utility.yul\":11019:11025   */\n      dup10\n        /* \"#utility.yul\":11015:11032   */\n      and\n        /* \"#utility.yul\":11004:11013   */\n      dup3\n        /* \"#utility.yul\":10985:11033   */\n      tag_102\n      jump\t// in\n    tag_235:\n        /* \"#utility.yul\":10977:10983   */\n      dup4\n        /* \"#utility.yul\":10970:11034   */\n      sstore\n        /* \"#utility.yul\":10892:11048   */\n      pop\n        /* \"#utility.yul\":10869:11048   */\n    tag_234:\n        /* \"#utility.yul\":11094:11095   */\n      0x01\n        /* \"#utility.yul\":11090:11091   */\n      0x02\n        /* \"#utility.yul\":11082:11088   */\n      dup9\n        /* \"#utility.yul\":11078:11092   */\n      mul\n        /* \"#utility.yul\":11074:11096   */\n      add\n        /* \"#utility.yul\":11068:11072   */\n      dup9\n        /* \"#utility.yul\":11061:11097   */\n      sstore\n        /* \"#utility.yul\":10496:11107   */\n      pop\n      pop\n      pop\n        /* \"#utility.yul\":10459:11346   */\n    tag_226:\n      pop\n        /* \"#utility.yul\":10049:11352   */\n      pop\n      pop\n      pop\n        /* \"#utility.yul\":9957:11352   */\n      pop\n      pop\n      jump\t// out\n\n    auxdata: 0xa2646970667358221220443e6836deb7338d7209c43606825f776cbe3d1381deadee2be9ceb7a55f956a64736f6c634300081a0033\n}\n",
				"bytecode": {
					"linkReferences": {},
					"object": "608060405260015f806101000a81548160ff02191690831515021790555060076001556040518060400160405280600981526020017f466f7274756e6174650000000000000000000000000000000000000000000000815250600290816100669190610306565b50735ff791d4fbd1fe7e62b1c4babe3138dfcd9a60c460035f6101000a81548173ffffffffffffffffffffffffffffffffffffffff021916908373ffffffffffffffffffffffffffffffffffffffff1602179055503480156100c6575f80fd5b506103d5565b5f81519050919050565b7f4e487b71000000000000000000000000000000000000000000000000000000005f52604160045260245ffd5b7f4e487b71000000000000000000000000000000000000000000000000000000005f52602260045260245ffd5b5f600282049050600182168061014757607f821691505b60208210810361015a57610159610103565b5b50919050565b5f819050815f5260205f209050919050565b5f6020601f8301049050919050565b5f82821b905092915050565b5f600883026101bc7fffffffffffffffffffffffffffffffffffffffffffffffffffffffffffffffff82610181565b6101c68683610181565b95508019841693508086168417925050509392505050565b5f819050919050565b5f819050919050565b5f61020a610205610200846101de565b6101e7565b6101de565b9050919050565b5f819050919050565b610223836101f0565b61023761022f82610211565b84845461018d565b825550505050565b5f90565b61024b61023f565b61025681848461021a565b505050565b5b818110156102795761026e5f82610243565b60018101905061025c565b5050565b601f8211156102be5761028f81610160565b61029884610172565b810160208510156102a7578190505b6102bb6102b385610172565b83018261025b565b50505b505050565b5f82821c905092915050565b5f6102de5f19846008026102c3565b1980831691505092915050565b5f6102f683836102cf565b9150826002028217905092915050565b61030f826100cc565b67ffffffffffffffff811115610328576103276100d6565b5b6103328254610130565b61033d82828561027d565b5f60209050601f83116001811461036e575f841561035c578287015190505b61036685826102eb565b8655506103cd565b601f19841661037c86610160565b5f5b828110156103a35784890151825560018201915060208501945060208101905061037e565b868310156103c057848901516103bc601f8916826102cf565b8355505b6001600288020188555050505b505050505050565b610a81806103e25f395ff3fe608060405234801561000f575f80fd5b5060043610610055575f3560e01c80630bae7ddf14610059578063379b249514610077578063616b0f891461009557806363f99bb3146100b15780637a7f01a7146100e1575b5f80fd5b6100616100ff565b60405161006e91906104f9565b60405180910390f35b61007f610155565b60405161008c9190610531565b60405180910390f35b6100af60048036038101906100aa9190610578565b61015e565b005b6100cb60048036038101906100c69190610627565b610187565b6040516100d891906106d5565b60405180910390f35b6100e96103ad565b6040516100f691906106d5565b60405180910390f35b6060600580548060200260200160405190810160405280929190818152602001828054801561014b57602002820191905f5260205f20905b815481526020019060010190808311610137575b5050505050905090565b5f600154905090565b600581908060018154018082558091505060019003905f5260205f20015f909190919091505550565b606060035f9054906101000a900473ffffffffffffffffffffffffffffffffffffffff1673ffffffffffffffffffffffffffffffffffffffff168273ffffffffffffffffffffffffffffffffffffffff161480156101e457505f83115b156102d6578260015f8282546101fa9190610722565b925050819055506040518060400160405280601881526020017f46756e6473207375636365737366756c6c79206164646564000000000000000081525060049081610245919061097c565b5060048054610253906107af565b80601f016020809104026020016040519081016040528092919081815260200182805461027f906107af565b80156102ca5780601f106102a1576101008083540402835291602001916102ca565b820191905f5260205f20905b8154815290600101906020018083116102ad57829003601f168201915b505050505090506103a7565b6040518060400160405280601081526020017f4f7065726174696f6e206661696c6564000000000000000000000000000000008152506004908161031a919061097c565b5060048054610328906107af565b80601f0160208091040260200160405190810160405280929190818152602001828054610354906107af565b801561039f5780601f106103765761010080835404028352916020019161039f565b820191905f5260205f20905b81548152906001019060200180831161038257829003601f168201915b505050505090505b92915050565b600480546103ba906107af565b80601f01602080910402602001604051908101604052809291908181526020018280546103e6906107af565b80156104315780601f1061040857610100808354040283529160200191610431565b820191905f5260205f20905b81548152906001019060200180831161041457829003601f168201915b505050505081565b5f81519050919050565b5f82825260208201905092915050565b5f819050602082019050919050565b5f819050919050565b61047481610462565b82525050565b5f610485838361046b565b60208301905092915050565b5f602082019050919050565b5f6104a782610439565b6104b18185610443565b93506104bc83610453565b805f5b838110156104ec5781516104d3888261047a565b97506104de83610491565b9250506001810190506104bf565b5085935050505092915050565b5f6020820190508181035f830152610511818461049d565b905092915050565b5f819050919050565b61052b81610519565b82525050565b5f6020820190506105445f830184610522565b92915050565b5f80fd5b61055781610462565b8114610561575f80fd5b50565b5f813590506105728161054e565b92915050565b5f6020828403121561058d5761058c61054a565b5b5f61059a84828501610564565b91505092915050565b6105ac81610519565b81146105b6575f80fd5b50565b5f813590506105c7816105a3565b92915050565b5f73ffffffffffffffffffffffffffffffffffffffff82169050919050565b5f6105f6826105cd565b9050919050565b610606816105ec565b8114610610575f80fd5b50565b5f81359050610621816105fd565b92915050565b5f806040838503121561063d5761063c61054a565b5b5f61064a858286016105b9565b925050602061065b85828601610613565b9150509250929050565b5f81519050919050565b5f82825260208201905092915050565b8281835e5f83830152505050565b5f601f19601f8301169050919050565b5f6106a782610665565b6106b1818561066f565b93506106c181856020860161067f565b6106ca8161068d565b840191505092915050565b5f6020820190508181035f8301526106ed818461069d565b905092915050565b7f4e487b71000000000000000000000000000000000000000000000000000000005f52601160045260245ffd5b5f61072c82610519565b915061073783610519565b925082820190508082111561074f5761074e6106f5565b5b92915050565b7f4e487b71000000000000000000000000000000000000000000000000000000005f52604160045260245ffd5b7f4e487b71000000000000000000000000000000000000000000000000000000005f52602260045260245ffd5b5f60028204905060018216806107c657607f821691505b6020821081036107d9576107d8610782565b5b50919050565b5f819050815f5260205f209050919050565b5f6020601f8301049050919050565b5f82821b905092915050565b5f6008830261083b7fffffffffffffffffffffffffffffffffffffffffffffffffffffffffffffffff82610800565b6108458683610800565b95508019841693508086168417925050509392505050565b5f819050919050565b5f61088061087b61087684610519565b61085d565b610519565b9050919050565b5f819050919050565b61089983610866565b6108ad6108a582610887565b84845461080c565b825550505050565b5f90565b6108c16108b5565b6108cc818484610890565b505050565b5b818110156108ef576108e45f826108b9565b6001810190506108d2565b5050565b601f82111561093457610905816107df565b61090e846107f1565b8101602085101561091d578190505b610931610929856107f1565b8301826108d1565b50505b505050565b5f82821c905092915050565b5f6109545f1984600802610939565b1980831691505092915050565b5f61096c8383610945565b9150826002028217905092915050565b61098582610665565b67ffffffffffffffff81111561099e5761099d610755565b5b6109a882546107af565b6109b38282856108f3565b5f60209050601f8311600181146109e4575f84156109d2578287015190505b6109dc8582610961565b865550610a43565b601f1984166109f2866107df565b5f5b82811015610a19578489015182556001820191506020850194506020810190506109f4565b86831015610a365784890151610a32601f891682610945565b8355505b6001600288020188555050505b50505050505056fea2646970667358221220443e6836deb7338d7209c43606825f776cbe3d1381deadee2be9ceb7a55f956a64736f6c634300081a0033",
					"opcodes": "PUSH1 0x80 PUSH1 0x40 MSTORE PUSH1 0x1 PUSH0 DUP1 PUSH2 0x100 EXP DUP2 SLOAD DUP2 PUSH1 0xFF MUL NOT AND SWAP1 DUP4 ISZERO ISZERO MUL OR SWAP1 SSTORE POP PUSH1 0x7 PUSH1 0x1 SSTORE PUSH1 0x40 MLOAD DUP1 PUSH1 0x40 ADD PUSH1 0x40 MSTORE DUP1 PUSH1 0x9 DUP2 MSTORE PUSH1 0x20 ADD PUSH32 0x466F7274756E6174650000000000000000000000000000000000000000000000 DUP2 MSTORE POP PUSH1 0x2 SWAP1 DUP2 PUSH2 0x66 SWAP2 SWAP1 PUSH2 0x306 JUMP JUMPDEST POP PUSH20 0x5FF791D4FBD1FE7E62B1C4BABE3138DFCD9A60C4 PUSH1 0x3 PUSH0 PUSH2 0x100 EXP DUP2 SLOAD DUP2 PUSH20 0xFFFFFFFFFFFFFFFFFFFFFFFFFFFFFFFFFFFFFFFF MUL NOT AND SWAP1 DUP4 PUSH20 0xFFFFFFFFFFFFFFFFFFFFFFFFFFFFFFFFFFFFFFFF AND MUL OR SWAP1 SSTORE POP CALLVALUE DUP1 ISZERO PUSH2 0xC6 JUMPI PUSH0 DUP1 REVERT JUMPDEST POP PUSH2 0x3D5 JUMP JUMPDEST PUSH0 DUP2 MLOAD SWAP1 POP SWAP2 SWAP1 POP JUMP JUMPDEST PUSH32 0x4E487B7100000000000000000000000000000000000000000000000000000000 PUSH0 MSTORE PUSH1 0x41 PUSH1 0x4 MSTORE PUSH1 0x24 PUSH0 REVERT JUMPDEST PUSH32 0x4E487B7100000000000000000000000000000000000000000000000000000000 PUSH0 MSTORE PUSH1 0x22 PUSH1 0x4 MSTORE PUSH1 0x24 PUSH0 REVERT JUMPDEST PUSH0 PUSH1 0x2 DUP3 DIV SWAP1 POP PUSH1 0x1 DUP3 AND DUP1 PUSH2 0x147 JUMPI PUSH1 0x7F DUP3 AND SWAP2 POP JUMPDEST PUSH1 0x20 DUP3 LT DUP2 SUB PUSH2 0x15A JUMPI PUSH2 0x159 PUSH2 0x103 JUMP JUMPDEST JUMPDEST POP SWAP2 SWAP1 POP JUMP JUMPDEST PUSH0 DUP2 SWAP1 POP DUP2 PUSH0 MSTORE PUSH1 0x20 PUSH0 KECCAK256 SWAP1 POP SWAP2 SWAP1 POP JUMP JUMPDEST PUSH0 PUSH1 0x20 PUSH1 0x1F DUP4 ADD DIV SWAP1 POP SWAP2 SWAP1 POP JUMP JUMPDEST PUSH0 DUP3 DUP3 SHL SWAP1 POP SWAP3 SWAP2 POP POP JUMP JUMPDEST PUSH0 PUSH1 0x8 DUP4 MUL PUSH2 0x1BC PUSH32 0xFFFFFFFFFFFFFFFFFFFFFFFFFFFFFFFFFFFFFFFFFFFFFFFFFFFFFFFFFFFFFFFF DUP3 PUSH2 0x181 JUMP JUMPDEST PUSH2 0x1C6 DUP7 DUP4 PUSH2 0x181 JUMP JUMPDEST SWAP6 POP DUP1 NOT DUP5 AND SWAP4 POP DUP1 DUP7 AND DUP5 OR SWAP3 POP POP POP SWAP4 SWAP3 POP POP POP JUMP JUMPDEST PUSH0 DUP2 SWAP1 POP SWAP2 SWAP1 POP JUMP JUMPDEST PUSH0 DUP2 SWAP1 POP SWAP2 SWAP1 POP JUMP JUMPDEST PUSH0 PUSH2 0x20A PUSH2 0x205 PUSH2 0x200 DUP5 PUSH2 0x1DE JUMP JUMPDEST PUSH2 0x1E7 JUMP JUMPDEST PUSH2 0x1DE JUMP JUMPDEST SWAP1 POP SWAP2 SWAP1 POP JUMP JUMPDEST PUSH0 DUP2 SWAP1 POP SWAP2 SWAP1 POP JUMP JUMPDEST PUSH2 0x223 DUP4 PUSH2 0x1F0 JUMP JUMPDEST PUSH2 0x237 PUSH2 0x22F DUP3 PUSH2 0x211 JUMP JUMPDEST DUP5 DUP5 SLOAD PUSH2 0x18D JUMP JUMPDEST DUP3 SSTORE POP POP POP POP JUMP JUMPDEST PUSH0 SWAP1 JUMP JUMPDEST PUSH2 0x24B PUSH2 0x23F JUMP JUMPDEST PUSH2 0x256 DUP2 DUP5 DUP5 PUSH2 0x21A JUMP JUMPDEST POP POP POP JUMP JUMPDEST JUMPDEST DUP2 DUP2 LT ISZERO PUSH2 0x279 JUMPI PUSH2 0x26E PUSH0 DUP3 PUSH2 0x243 JUMP JUMPDEST PUSH1 0x1 DUP2 ADD SWAP1 POP PUSH2 0x25C JUMP JUMPDEST POP POP JUMP JUMPDEST PUSH1 0x1F DUP3 GT ISZERO PUSH2 0x2BE JUMPI PUSH2 0x28F DUP2 PUSH2 0x160 JUMP JUMPDEST PUSH2 0x298 DUP5 PUSH2 0x172 JUMP JUMPDEST DUP2 ADD PUSH1 0x20 DUP6 LT ISZERO PUSH2 0x2A7 JUMPI DUP2 SWAP1 POP JUMPDEST PUSH2 0x2BB PUSH2 0x2B3 DUP6 PUSH2 0x172 JUMP JUMPDEST DUP4 ADD DUP3 PUSH2 0x25B JUMP JUMPDEST POP POP JUMPDEST POP POP POP JUMP JUMPDEST PUSH0 DUP3 DUP3 SHR SWAP1 POP SWAP3 SWAP2 POP POP JUMP JUMPDEST PUSH0 PUSH2 0x2DE PUSH0 NOT DUP5 PUSH1 0x8 MUL PUSH2 0x2C3 JUMP JUMPDEST NOT DUP1 DUP4 AND SWAP2 POP POP SWAP3 SWAP2 POP POP JUMP JUMPDEST PUSH0 PUSH2 0x2F6 DUP4 DUP4 PUSH2 0x2CF JUMP JUMPDEST SWAP2 POP DUP3 PUSH1 0x2 MUL DUP3 OR SWAP1 POP SWAP3 SWAP2 POP POP JUMP JUMPDEST PUSH2 0x30F DUP3 PUSH2 0xCC JUMP JUMPDEST PUSH8 0xFFFFFFFFFFFFFFFF DUP2 GT ISZERO PUSH2 0x328 JUMPI PUSH2 0x327 PUSH2 0xD6 JUMP JUMPDEST JUMPDEST PUSH2 0x332 DUP3 SLOAD PUSH2 0x130 JUMP JUMPDEST PUSH2 0x33D DUP3 DUP3 DUP6 PUSH2 0x27D JUMP JUMPDEST PUSH0 PUSH1 0x20 SWAP1 POP PUSH1 0x1F DUP4 GT PUSH1 0x1 DUP2 EQ PUSH2 0x36E JUMPI PUSH0 DUP5 ISZERO PUSH2 0x35C JUMPI DUP3 DUP8 ADD MLOAD SWAP1 POP JUMPDEST PUSH2 0x366 DUP6 DUP3 PUSH2 0x2EB JUMP JUMPDEST DUP7 SSTORE POP PUSH2 0x3CD JUMP JUMPDEST PUSH1 0x1F NOT DUP5 AND PUSH2 0x37C DUP7 PUSH2 0x160 JUMP JUMPDEST PUSH0 JUMPDEST DUP3 DUP2 LT ISZERO PUSH2 0x3A3 JUMPI DUP5 DUP10 ADD MLOAD DUP3 SSTORE PUSH1 0x1 DUP3 ADD SWAP2 POP PUSH1 0x20 DUP6 ADD SWAP5 POP PUSH1 0x20 DUP2 ADD SWAP1 POP PUSH2 0x37E JUMP JUMPDEST DUP7 DUP4 LT ISZERO PUSH2 0x3C0 JUMPI DUP5 DUP10 ADD MLOAD PUSH2 0x3BC PUSH1 0x1F DUP10 AND DUP3 PUSH2 0x2CF JUMP JUMPDEST DUP4 SSTORE POP JUMPDEST PUSH1 0x1 PUSH1 0x2 DUP9 MUL ADD DUP9 SSTORE POP POP POP JUMPDEST POP POP POP POP POP POP JUMP JUMPDEST PUSH2 0xA81 DUP1 PUSH2 0x3E2 PUSH0 CODECOPY PUSH0 RETURN INVALID PUSH1 0x80 PUSH1 0x40 MSTORE CALLVALUE DUP1 ISZERO PUSH2 0xF JUMPI PUSH0 DUP1 REVERT JUMPDEST POP PUSH1 0x4 CALLDATASIZE LT PUSH2 0x55 JUMPI PUSH0 CALLDATALOAD PUSH1 0xE0 SHR DUP1 PUSH4 0xBAE7DDF EQ PUSH2 0x59 JUMPI DUP1 PUSH4 0x379B2495 EQ PUSH2 0x77 JUMPI DUP1 PUSH4 0x616B0F89 EQ PUSH2 0x95 JUMPI DUP1 PUSH4 0x63F99BB3 EQ PUSH2 0xB1 JUMPI DUP1 PUSH4 0x7A7F01A7 EQ PUSH2 0xE1 JUMPI JUMPDEST PUSH0 DUP1 REVERT JUMPDEST PUSH2 0x61 PUSH2 0xFF JUMP JUMPDEST PUSH1 0x40 MLOAD PUSH2 0x6E SWAP2 SWAP1 PUSH2 0x4F9 JUMP JUMPDEST PUSH1 0x40 MLOAD DUP1 SWAP2 SUB SWAP1 RETURN JUMPDEST PUSH2 0x7F PUSH2 0x155 JUMP JUMPDEST PUSH1 0x40 MLOAD PUSH2 0x8C SWAP2 SWAP1 PUSH2 0x531 JUMP JUMPDEST PUSH1 0x40 MLOAD DUP1 SWAP2 SUB SWAP1 RETURN JUMPDEST PUSH2 0xAF PUSH1 0x4 DUP1 CALLDATASIZE SUB DUP2 ADD SWAP1 PUSH2 0xAA SWAP2 SWAP1 PUSH2 0x578 JUMP JUMPDEST PUSH2 0x15E JUMP JUMPDEST STOP JUMPDEST PUSH2 0xCB PUSH1 0x4 DUP1 CALLDATASIZE SUB DUP2 ADD SWAP1 PUSH2 0xC6 SWAP2 SWAP1 PUSH2 0x627 JUMP JUMPDEST PUSH2 0x187 JUMP JUMPDEST PUSH1 0x40 MLOAD PUSH2 0xD8 SWAP2 SWAP1 PUSH2 0x6D5 JUMP JUMPDEST PUSH1 0x40 MLOAD DUP1 SWAP2 SUB SWAP1 RETURN JUMPDEST PUSH2 0xE9 PUSH2 0x3AD JUMP JUMPDEST PUSH1 0x40 MLOAD PUSH2 0xF6 SWAP2 SWAP1 PUSH2 0x6D5 JUMP JUMPDEST PUSH1 0x40 MLOAD DUP1 SWAP2 SUB SWAP1 RETURN JUMPDEST PUSH1 0x60 PUSH1 0x5 DUP1 SLOAD DUP1 PUSH1 0x20 MUL PUSH1 0x20 ADD PUSH1 0x40 MLOAD SWAP1 DUP2 ADD PUSH1 0x40 MSTORE DUP1 SWAP3 SWAP2 SWAP1 DUP2 DUP2 MSTORE PUSH1 0x20 ADD DUP3 DUP1 SLOAD DUP1 ISZERO PUSH2 0x14B JUMPI PUSH1 0x20 MUL DUP3 ADD SWAP2 SWAP1 PUSH0 MSTORE PUSH1 0x20 PUSH0 KECCAK256 SWAP1 JUMPDEST DUP2 SLOAD DUP2 MSTORE PUSH1 0x20 ADD SWAP1 PUSH1 0x1 ADD SWAP1 DUP1 DUP4 GT PUSH2 0x137 JUMPI JUMPDEST POP POP POP POP POP SWAP1 POP SWAP1 JUMP JUMPDEST PUSH0 PUSH1 0x1 SLOAD SWAP1 POP SWAP1 JUMP JUMPDEST PUSH1 0x5 DUP2 SWAP1 DUP1 PUSH1 0x1 DUP2 SLOAD ADD DUP1 DUP3 SSTORE DUP1 SWAP2 POP POP PUSH1 0x1 SWAP1 SUB SWAP1 PUSH0 MSTORE PUSH1 0x20 PUSH0 KECCAK256 ADD PUSH0 SWAP1 SWAP2 SWAP1 SWAP2 SWAP1 SWAP2 POP SSTORE POP JUMP JUMPDEST PUSH1 0x60 PUSH1 0x3 PUSH0 SWAP1 SLOAD SWAP1 PUSH2 0x100 EXP SWAP1 DIV PUSH20 0xFFFFFFFFFFFFFFFFFFFFFFFFFFFFFFFFFFFFFFFF AND PUSH20 0xFFFFFFFFFFFFFFFFFFFFFFFFFFFFFFFFFFFFFFFF AND DUP3 PUSH20 0xFFFFFFFFFFFFFFFFFFFFFFFFFFFFFFFFFFFFFFFF AND EQ DUP1 ISZERO PUSH2 0x1E4 JUMPI POP PUSH0 DUP4 GT JUMPDEST ISZERO PUSH2 0x2D6 JUMPI DUP3 PUSH1 0x1 PUSH0 DUP3 DUP3 SLOAD PUSH2 0x1FA SWAP2 SWAP1 PUSH2 0x722 JUMP JUMPDEST SWAP3 POP POP DUP2 SWAP1 SSTORE POP PUSH1 0x40 MLOAD DUP1 PUSH1 0x40 ADD PUSH1 0x40 MSTORE DUP1 PUSH1 0x18 DUP2 MSTORE PUSH1 0x20 ADD PUSH32 0x46756E6473207375636365737366756C6C792061646465640000000000000000 DUP2 MSTORE POP PUSH1 0x4 SWAP1 DUP2 PUSH2 0x245 SWAP2 SWAP1 PUSH2 0x97C JUMP JUMPDEST POP PUSH1 0x4 DUP1 SLOAD PUSH2 0x253 SWAP1 PUSH2 0x7AF JUMP JUMPDEST DUP1 PUSH1 0x1F ADD PUSH1 0x20 DUP1 SWAP2 DIV MUL PUSH1 0x20 ADD PUSH1 0x40 MLOAD SWAP1 DUP2 ADD PUSH1 0x40 MSTORE DUP1 SWAP3 SWAP2 SWAP1 DUP2 DUP2 MSTORE PUSH1 0x20 ADD DUP3 DUP1 SLOAD PUSH2 0x27F SWAP1 PUSH2 0x7AF JUMP JUMPDEST DUP1 ISZERO PUSH2 0x2CA JUMPI DUP1 PUSH1 0x1F LT PUSH2 0x2A1 JUMPI PUSH2 0x100 DUP1 DUP4 SLOAD DIV MUL DUP4 MSTORE SWAP2 PUSH1 0x20 ADD SWAP2 PUSH2 0x2CA JUMP JUMPDEST DUP3 ADD SWAP2 SWAP1 PUSH0 MSTORE PUSH1 0x20 PUSH0 KECCAK256 SWAP1 JUMPDEST DUP2 SLOAD DUP2 MSTORE SWAP1 PUSH1 0x1 ADD SWAP1 PUSH1 0x20 ADD DUP1 DUP4 GT PUSH2 0x2AD JUMPI DUP3 SWAP1 SUB PUSH1 0x1F AND DUP3 ADD SWAP2 JUMPDEST POP POP POP POP POP SWAP1 POP PUSH2 0x3A7 JUMP JUMPDEST PUSH1 0x40 MLOAD DUP1 PUSH1 0x40 ADD PUSH1 0x40 MSTORE DUP1 PUSH1 0x10 DUP2 MSTORE PUSH1 0x20 ADD PUSH32 0x4F7065726174696F6E206661696C656400000000000000000000000000000000 DUP2 MSTORE POP PUSH1 0x4 SWAP1 DUP2 PUSH2 0x31A SWAP2 SWAP1 PUSH2 0x97C JUMP JUMPDEST POP PUSH1 0x4 DUP1 SLOAD PUSH2 0x328 SWAP1 PUSH2 0x7AF JUMP JUMPDEST DUP1 PUSH1 0x1F ADD PUSH1 0x20 DUP1 SWAP2 DIV MUL PUSH1 0x20 ADD PUSH1 0x40 MLOAD SWAP1 DUP2 ADD PUSH1 0x40 MSTORE DUP1 SWAP3 SWAP2 SWAP1 DUP2 DUP2 MSTORE PUSH1 0x20 ADD DUP3 DUP1 SLOAD PUSH2 0x354 SWAP1 PUSH2 0x7AF JUMP JUMPDEST DUP1 ISZERO PUSH2 0x39F JUMPI DUP1 PUSH1 0x1F LT PUSH2 0x376 JUMPI PUSH2 0x100 DUP1 DUP4 SLOAD DIV MUL DUP4 MSTORE SWAP2 PUSH1 0x20 ADD SWAP2 PUSH2 0x39F JUMP JUMPDEST DUP3 ADD SWAP2 SWAP1 PUSH0 MSTORE PUSH1 0x20 PUSH0 KECCAK256 SWAP1 JUMPDEST DUP2 SLOAD DUP2 MSTORE SWAP1 PUSH1 0x1 ADD SWAP1 PUSH1 0x20 ADD DUP1 DUP4 GT PUSH2 0x382 JUMPI DUP3 SWAP1 SUB PUSH1 0x1F AND DUP3 ADD SWAP2 JUMPDEST POP POP POP POP POP SWAP1 POP JUMPDEST SWAP3 SWAP2 POP POP JUMP JUMPDEST PUSH1 0x4 DUP1 SLOAD PUSH2 0x3BA SWAP1 PUSH2 0x7AF JUMP JUMPDEST DUP1 PUSH1 0x1F ADD PUSH1 0x20 DUP1 SWAP2 DIV MUL PUSH1 0x20 ADD PUSH1 0x40 MLOAD SWAP1 DUP2 ADD PUSH1 0x40 MSTORE DUP1 SWAP3 SWAP2 SWAP1 DUP2 DUP2 MSTORE PUSH1 0x20 ADD DUP3 DUP1 SLOAD PUSH2 0x3E6 SWAP1 PUSH2 0x7AF JUMP JUMPDEST DUP1 ISZERO PUSH2 0x431 JUMPI DUP1 PUSH1 0x1F LT PUSH2 0x408 JUMPI PUSH2 0x100 DUP1 DUP4 SLOAD DIV MUL DUP4 MSTORE SWAP2 PUSH1 0x20 ADD SWAP2 PUSH2 0x431 JUMP JUMPDEST DUP3 ADD SWAP2 SWAP1 PUSH0 MSTORE PUSH1 0x20 PUSH0 KECCAK256 SWAP1 JUMPDEST DUP2 SLOAD DUP2 MSTORE SWAP1 PUSH1 0x1 ADD SWAP1 PUSH1 0x20 ADD DUP1 DUP4 GT PUSH2 0x414 JUMPI DUP3 SWAP1 SUB PUSH1 0x1F AND DUP3 ADD SWAP2 JUMPDEST POP POP POP POP POP DUP2 JUMP JUMPDEST PUSH0 DUP2 MLOAD SWAP1 POP SWAP2 SWAP1 POP JUMP JUMPDEST PUSH0 DUP3 DUP3 MSTORE PUSH1 0x20 DUP3 ADD SWAP1 POP SWAP3 SWAP2 POP POP JUMP JUMPDEST PUSH0 DUP2 SWAP1 POP PUSH1 0x20 DUP3 ADD SWAP1 POP SWAP2 SWAP1 POP JUMP JUMPDEST PUSH0 DUP2 SWAP1 POP SWAP2 SWAP1 POP JUMP JUMPDEST PUSH2 0x474 DUP2 PUSH2 0x462 JUMP JUMPDEST DUP3 MSTORE POP POP JUMP JUMPDEST PUSH0 PUSH2 0x485 DUP4 DUP4 PUSH2 0x46B JUMP JUMPDEST PUSH1 0x20 DUP4 ADD SWAP1 POP SWAP3 SWAP2 POP POP JUMP JUMPDEST PUSH0 PUSH1 0x20 DUP3 ADD SWAP1 POP SWAP2 SWAP1 POP JUMP JUMPDEST PUSH0 PUSH2 0x4A7 DUP3 PUSH2 0x439 JUMP JUMPDEST PUSH2 0x4B1 DUP2 DUP6 PUSH2 0x443 JUMP JUMPDEST SWAP4 POP PUSH2 0x4BC DUP4 PUSH2 0x453 JUMP JUMPDEST DUP1 PUSH0 JUMPDEST DUP4 DUP2 LT ISZERO PUSH2 0x4EC JUMPI DUP2 MLOAD PUSH2 0x4D3 DUP9 DUP3 PUSH2 0x47A JUMP JUMPDEST SWAP8 POP PUSH2 0x4DE DUP4 PUSH2 0x491 JUMP JUMPDEST SWAP3 POP POP PUSH1 0x1 DUP2 ADD SWAP1 POP PUSH2 0x4BF JUMP JUMPDEST POP DUP6 SWAP4 POP POP POP POP SWAP3 SWAP2 POP POP JUMP JUMPDEST PUSH0 PUSH1 0x20 DUP3 ADD SWAP1 POP DUP2 DUP2 SUB PUSH0 DUP4 ADD MSTORE PUSH2 0x511 DUP2 DUP5 PUSH2 0x49D JUMP JUMPDEST SWAP1 POP SWAP3 SWAP2 POP POP JUMP JUMPDEST PUSH0 DUP2 SWAP1 POP SWAP2 SWAP1 POP JUMP JUMPDEST PUSH2 0x52B DUP2 PUSH2 0x519 JUMP JUMPDEST DUP3 MSTORE POP POP JUMP JUMPDEST PUSH0 PUSH1 0x20 DUP3 ADD SWAP1 POP PUSH2 0x544 PUSH0 DUP4 ADD DUP5 PUSH2 0x522 JUMP JUMPDEST SWAP3 SWAP2 POP POP JUMP JUMPDEST PUSH0 DUP1 REVERT JUMPDEST PUSH2 0x557 DUP2 PUSH2 0x462 JUMP JUMPDEST DUP2 EQ PUSH2 0x561 JUMPI PUSH0 DUP1 REVERT JUMPDEST POP JUMP JUMPDEST PUSH0 DUP2 CALLDATALOAD SWAP1 POP PUSH2 0x572 DUP2 PUSH2 0x54E JUMP JUMPDEST SWAP3 SWAP2 POP POP JUMP JUMPDEST PUSH0 PUSH1 0x20 DUP3 DUP5 SUB SLT ISZERO PUSH2 0x58D JUMPI PUSH2 0x58C PUSH2 0x54A JUMP JUMPDEST JUMPDEST PUSH0 PUSH2 0x59A DUP5 DUP3 DUP6 ADD PUSH2 0x564 JUMP JUMPDEST SWAP2 POP POP SWAP3 SWAP2 POP POP JUMP JUMPDEST PUSH2 0x5AC DUP2 PUSH2 0x519 JUMP JUMPDEST DUP2 EQ PUSH2 0x5B6 JUMPI PUSH0 DUP1 REVERT JUMPDEST POP JUMP JUMPDEST PUSH0 DUP2 CALLDATALOAD SWAP1 POP PUSH2 0x5C7 DUP2 PUSH2 0x5A3 JUMP JUMPDEST SWAP3 SWAP2 POP POP JUMP JUMPDEST PUSH0 PUSH20 0xFFFFFFFFFFFFFFFFFFFFFFFFFFFFFFFFFFFFFFFF DUP3 AND SWAP1 POP SWAP2 SWAP1 POP JUMP JUMPDEST PUSH0 PUSH2 0x5F6 DUP3 PUSH2 0x5CD JUMP JUMPDEST SWAP1 POP SWAP2 SWAP1 POP JUMP JUMPDEST PUSH2 0x606 DUP2 PUSH2 0x5EC JUMP JUMPDEST DUP2 EQ PUSH2 0x610 JUMPI PUSH0 DUP1 REVERT JUMPDEST POP JUMP JUMPDEST PUSH0 DUP2 CALLDATALOAD SWAP1 POP PUSH2 0x621 DUP2 PUSH2 0x5FD JUMP JUMPDEST SWAP3 SWAP2 POP POP JUMP JUMPDEST PUSH0 DUP1 PUSH1 0x40 DUP4 DUP6 SUB SLT ISZERO PUSH2 0x63D JUMPI PUSH2 0x63C PUSH2 0x54A JUMP JUMPDEST JUMPDEST PUSH0 PUSH2 0x64A DUP6 DUP3 DUP7 ADD PUSH2 0x5B9 JUMP JUMPDEST SWAP3 POP POP PUSH1 0x20 PUSH2 0x65B DUP6 DUP3 DUP7 ADD PUSH2 0x613 JUMP JUMPDEST SWAP2 POP POP SWAP3 POP SWAP3 SWAP1 POP JUMP JUMPDEST PUSH0 DUP2 MLOAD SWAP1 POP SWAP2 SWAP1 POP JUMP JUMPDEST PUSH0 DUP3 DUP3 MSTORE PUSH1 0x20 DUP3 ADD SWAP1 POP SWAP3 SWAP2 POP POP JUMP JUMPDEST DUP3 DUP2 DUP4 MCOPY PUSH0 DUP4 DUP4 ADD MSTORE POP POP POP JUMP JUMPDEST PUSH0 PUSH1 0x1F NOT PUSH1 0x1F DUP4 ADD AND SWAP1 POP SWAP2 SWAP1 POP JUMP JUMPDEST PUSH0 PUSH2 0x6A7 DUP3 PUSH2 0x665 JUMP JUMPDEST PUSH2 0x6B1 DUP2 DUP6 PUSH2 0x66F JUMP JUMPDEST SWAP4 POP PUSH2 0x6C1 DUP2 DUP6 PUSH1 0x20 DUP7 ADD PUSH2 0x67F JUMP JUMPDEST PUSH2 0x6CA DUP2 PUSH2 0x68D JUMP JUMPDEST DUP5 ADD SWAP2 POP POP SWAP3 SWAP2 POP POP JUMP JUMPDEST PUSH0 PUSH1 0x20 DUP3 ADD SWAP1 POP DUP2 DUP2 SUB PUSH0 DUP4 ADD MSTORE PUSH2 0x6ED DUP2 DUP5 PUSH2 0x69D JUMP JUMPDEST SWAP1 POP SWAP3 SWAP2 POP POP JUMP JUMPDEST PUSH32 0x4E487B7100000000000000000000000000000000000000000000000000000000 PUSH0 MSTORE PUSH1 0x11 PUSH1 0x4 MSTORE PUSH1 0x24 PUSH0 REVERT JUMPDEST PUSH0 PUSH2 0x72C DUP3 PUSH2 0x519 JUMP JUMPDEST SWAP2 POP PUSH2 0x737 DUP4 PUSH2 0x519 JUMP JUMPDEST SWAP3 POP DUP3 DUP3 ADD SWAP1 POP DUP1 DUP3 GT ISZERO PUSH2 0x74F JUMPI PUSH2 0x74E PUSH2 0x6F5 JUMP JUMPDEST JUMPDEST SWAP3 SWAP2 POP POP JUMP JUMPDEST PUSH32 0x4E487B7100000000000000000000000000000000000000000000000000000000 PUSH0 MSTORE PUSH1 0x41 PUSH1 0x4 MSTORE PUSH1 0x24 PUSH0 REVERT JUMPDEST PUSH32 0x4E487B7100000000000000000000000000000000000000000000000000000000 PUSH0 MSTORE PUSH1 0x22 PUSH1 0x4 MSTORE PUSH1 0x24 PUSH0 REVERT JUMPDEST PUSH0 PUSH1 0x2 DUP3 DIV SWAP1 POP PUSH1 0x1 DUP3 AND DUP1 PUSH2 0x7C6 JUMPI PUSH1 0x7F DUP3 AND SWAP2 POP JUMPDEST PUSH1 0x20 DUP3 LT DUP2 SUB PUSH2 0x7D9 JUMPI PUSH2 0x7D8 PUSH2 0x782 JUMP JUMPDEST JUMPDEST POP SWAP2 SWAP1 POP JUMP JUMPDEST PUSH0 DUP2 SWAP1 POP DUP2 PUSH0 MSTORE PUSH1 0x20 PUSH0 KECCAK256 SWAP1 POP SWAP2 SWAP1 POP JUMP JUMPDEST PUSH0 PUSH1 0x20 PUSH1 0x1F DUP4 ADD DIV SWAP1 POP SWAP2 SWAP1 POP JUMP JUMPDEST PUSH0 DUP3 DUP3 SHL SWAP1 POP SWAP3 SWAP2 POP POP JUMP JUMPDEST PUSH0 PUSH1 0x8 DUP4 MUL PUSH2 0x83B PUSH32 0xFFFFFFFFFFFFFFFFFFFFFFFFFFFFFFFFFFFFFFFFFFFFFFFFFFFFFFFFFFFFFFFF DUP3 PUSH2 0x800 JUMP JUMPDEST PUSH2 0x845 DUP7 DUP4 PUSH2 0x800 JUMP JUMPDEST SWAP6 POP DUP1 NOT DUP5 AND SWAP4 POP DUP1 DUP7 AND DUP5 OR SWAP3 POP POP POP SWAP4 SWAP3 POP POP POP JUMP JUMPDEST PUSH0 DUP2 SWAP1 POP SWAP2 SWAP1 POP JUMP JUMPDEST PUSH0 PUSH2 0x880 PUSH2 0x87B PUSH2 0x876 DUP5 PUSH2 0x519 JUMP JUMPDEST PUSH2 0x85D JUMP JUMPDEST PUSH2 0x519 JUMP JUMPDEST SWAP1 POP SWAP2 SWAP1 POP JUMP JUMPDEST PUSH0 DUP2 SWAP1 POP SWAP2 SWAP1 POP JUMP JUMPDEST PUSH2 0x899 DUP4 PUSH2 0x866 JUMP JUMPDEST PUSH2 0x8AD PUSH2 0x8A5 DUP3 PUSH2 0x887 JUMP JUMPDEST DUP5 DUP5 SLOAD PUSH2 0x80C JUMP JUMPDEST DUP3 SSTORE POP POP POP POP JUMP JUMPDEST PUSH0 SWAP1 JUMP JUMPDEST PUSH2 0x8C1 PUSH2 0x8B5 JUMP JUMPDEST PUSH2 0x8CC DUP2 DUP5 DUP5 PUSH2 0x890 JUMP JUMPDEST POP POP POP JUMP JUMPDEST JUMPDEST DUP2 DUP2 LT ISZERO PUSH2 0x8EF JUMPI PUSH2 0x8E4 PUSH0 DUP3 PUSH2 0x8B9 JUMP JUMPDEST PUSH1 0x1 DUP2 ADD SWAP1 POP PUSH2 0x8D2 JUMP JUMPDEST POP POP JUMP JUMPDEST PUSH1 0x1F DUP3 GT ISZERO PUSH2 0x934 JUMPI PUSH2 0x905 DUP2 PUSH2 0x7DF JUMP JUMPDEST PUSH2 0x90E DUP5 PUSH2 0x7F1 JUMP JUMPDEST DUP2 ADD PUSH1 0x20 DUP6 LT ISZERO PUSH2 0x91D JUMPI DUP2 SWAP1 POP JUMPDEST PUSH2 0x931 PUSH2 0x929 DUP6 PUSH2 0x7F1 JUMP JUMPDEST DUP4 ADD DUP3 PUSH2 0x8D1 JUMP JUMPDEST POP POP JUMPDEST POP POP POP JUMP JUMPDEST PUSH0 DUP3 DUP3 SHR SWAP1 POP SWAP3 SWAP2 POP POP JUMP JUMPDEST PUSH0 PUSH2 0x954 PUSH0 NOT DUP5 PUSH1 0x8 MUL PUSH2 0x939 JUMP JUMPDEST NOT DUP1 DUP4 AND SWAP2 POP POP SWAP3 SWAP2 POP POP JUMP JUMPDEST PUSH0 PUSH2 0x96C DUP4 DUP4 PUSH2 0x945 JUMP JUMPDEST SWAP2 POP DUP3 PUSH1 0x2 MUL DUP3 OR SWAP1 POP SWAP3 SWAP2 POP POP JUMP JUMPDEST PUSH2 0x985 DUP3 PUSH2 0x665 JUMP JUMPDEST PUSH8 0xFFFFFFFFFFFFFFFF DUP2 GT ISZERO PUSH2 0x99E JUMPI PUSH2 0x99D PUSH2 0x755 JUMP JUMPDEST JUMPDEST PUSH2 0x9A8 DUP3 SLOAD PUSH2 0x7AF JUMP JUMPDEST PUSH2 0x9B3 DUP3 DUP3 DUP6 PUSH2 0x8F3 JUMP JUMPDEST PUSH0 PUSH1 0x20 SWAP1 POP PUSH1 0x1F DUP4 GT PUSH1 0x1 DUP2 EQ PUSH2 0x9E4 JUMPI PUSH0 DUP5 ISZERO PUSH2 0x9D2 JUMPI DUP3 DUP8 ADD MLOAD SWAP1 POP JUMPDEST PUSH2 0x9DC DUP6 DUP3 PUSH2 0x961 JUMP JUMPDEST DUP7 SSTORE POP PUSH2 0xA43 JUMP JUMPDEST PUSH1 0x1F NOT DUP5 AND PUSH2 0x9F2 DUP7 PUSH2 0x7DF JUMP JUMPDEST PUSH0 JUMPDEST DUP3 DUP2 LT ISZERO PUSH2 0xA19 JUMPI DUP5 DUP10 ADD MLOAD DUP3 SSTORE PUSH1 0x1 DUP3 ADD SWAP2 POP PUSH1 0x20 DUP6 ADD SWAP5 POP PUSH1 0x20 DUP2 ADD SWAP1 POP PUSH2 0x9F4 JUMP JUMPDEST DUP7 DUP4 LT ISZERO PUSH2 0xA36 JUMPI DUP5 DUP10 ADD MLOAD PUSH2 0xA32 PUSH1 0x1F DUP10 AND DUP3 PUSH2 0x945 JUMP JUMPDEST DUP4 SSTORE POP JUMPDEST PUSH1 0x1 PUSH1 0x2 DUP9 MUL ADD DUP9 SSTORE POP POP POP JUMPDEST POP POP POP POP POP POP JUMP INVALID LOG2 PUSH5 0x6970667358 0x22 SLT KECCAK256 PREVRANDAO RETURNDATACOPY PUSH9 0x36DEB7338D7209C436 MOD DUP3 PUSH0 PUSH24 0x6CBE3D1381DEADEE2BE9CEB7A55F956A64736F6C63430008 BYTE STOP CALLER "
				},
				"gasEstimates": {
					"creation": {
						"codeDepositCost": "537800",
						"executionCost": "infinite",
						"totalCost": "infinite"
					},
					"external": {
						"addMoreFunds(uint256,address)": "infinite",
						"addSecretNumbers(int256)": "46843",
						"response()": "infinite",
						"viewFunds()": "2432",
						"viewSecretNumbers()": "infinite"
					}
				},
				"methodIdentifiers": {
					"addMoreFunds(uint256,address)": "63f99bb3",
					"addSecretNumbers(int256)": "616b0f89",
					"response()": "7a7f01a7",
					"viewFunds()": "379b2495",
					"viewSecretNumbers()": "0bae7ddf"
				}
			},
			"storageLayout": {
				"storage": [
					{
						"astId": 4,
						"contract": "contracts/SimpleStorage.sol:SimpleStorage",
						"label": "hasFundsInWallet",
						"offset": 0,
						"slot": "0",
						"type": "t_bool"
					},
					{
						"astId": 7,
						"contract": "contracts/SimpleStorage.sol:SimpleStorage",
						"label": "fundsInWallet",
						"offset": 0,
						"slot": "1",
						"type": "t_uint256"
					},
					{
						"astId": 10,
						"contract": "contracts/SimpleStorage.sol:SimpleStorage",
						"label": "accountName",
						"offset": 0,
						"slot": "2",
						"type": "t_string_storage"
					},
					{
						"astId": 13,
						"contract": "contracts/SimpleStorage.sol:SimpleStorage",
						"label": "accountAddress",
						"offset": 0,
						"slot": "3",
						"type": "t_address"
					},
					{
						"astId": 15,
						"contract": "contracts/SimpleStorage.sol:SimpleStorage",
						"label": "response",
						"offset": 0,
						"slot": "4",
						"type": "t_string_storage"
					},
					{
						"astId": 18,
						"contract": "contracts/SimpleStorage.sol:SimpleStorage",
						"label": "secretNumbers",
						"offset": 0,
						"slot": "5",
						"type": "t_array(t_int256)dyn_storage"
					}
				],
				"types": {
					"t_address": {
						"encoding": "inplace",
						"label": "address",
						"numberOfBytes": "20"
					},
					"t_array(t_int256)dyn_storage": {
						"base": "t_int256",
						"encoding": "dynamic_array",
						"label": "int256[]",
						"numberOfBytes": "32"
					},
					"t_bool": {
						"encoding": "inplace",
						"label": "bool",
						"numberOfBytes": "1"
					},
					"t_int256": {
						"encoding": "inplace",
						"label": "int256",
						"numberOfBytes": "32"
					},
					"t_string_storage": {
						"encoding": "bytes",
						"label": "string",
						"numberOfBytes": "32"
					},
					"t_uint256": {
						"encoding": "inplace",
						"label": "uint256",
						"numberOfBytes": "32"
					}
				}
			},
			"userdoc": {
				"kind": "user",
				"methods": {},
				"version": 1
			}
		}
	}
}