{
	"contracts/AccountMgt.sol": {
		"AccountManager": {
			"abi": [
				{
					"inputs": [
						{
							"internalType": "address",
							"name": "_accountAddress",
							"type": "address"
						}
					],
					"stateMutability": "nonpayable",
					"type": "constructor"
				},
				{
					"inputs": [
						{
							"internalType": "string",
							"name": "_phoneNumber",
							"type": "string"
						},
						{
							"internalType": "string",
							"name": "_email",
							"type": "string"
						},
						{
							"internalType": "string[]",
							"name": "_secrets",
							"type": "string[]"
						}
					],
					"name": "CreateWalletOrAccount",
					"outputs": [
						{
							"components": [
								{
									"internalType": "uint256",
									"name": "id",
									"type": "uint256"
								},
								{
									"internalType": "address",
									"name": "walletAddress",
									"type": "address"
								},
								{
									"internalType": "string",
									"name": "email",
									"type": "string"
								},
								{
									"internalType": "string",
									"name": "phoneNumber",
									"type": "string"
								},
								{
									"internalType": "uint256",
									"name": "balance",
									"type": "uint256"
								},
								{
									"internalType": "bool",
									"name": "isVerified",
									"type": "bool"
								},
								{
									"internalType": "bytes32[]",
									"name": "secretPhrases",
									"type": "bytes32[]"
								}
							],
							"internalType": "struct Account.UserAccount",
							"name": "",
							"type": "tuple"
						}
					],
					"stateMutability": "nonpayable",
					"type": "function"
				},
				{
					"inputs": [],
					"name": "ViewAllAccountsOrWallets",
					"outputs": [
						{
							"components": [
								{
									"internalType": "uint256",
									"name": "id",
									"type": "uint256"
								},
								{
									"internalType": "address",
									"name": "walletAddress",
									"type": "address"
								},
								{
									"internalType": "string",
									"name": "email",
									"type": "string"
								},
								{
									"internalType": "string",
									"name": "phoneNumber",
									"type": "string"
								},
								{
									"internalType": "uint256",
									"name": "balance",
									"type": "uint256"
								},
								{
									"internalType": "bool",
									"name": "isVerified",
									"type": "bool"
								},
								{
									"internalType": "bytes32[]",
									"name": "secretPhrases",
									"type": "bytes32[]"
								}
							],
							"internalType": "struct Account.UserAccount[]",
							"name": "",
							"type": "tuple[]"
						}
					],
					"stateMutability": "view",
					"type": "function"
				},
				{
					"inputs": [
						{
							"internalType": "string",
							"name": "_id",
							"type": "string"
						}
					],
					"name": "ViewSpecificAccount",
					"outputs": [
						{
							"components": [
								{
									"internalType": "uint256",
									"name": "id",
									"type": "uint256"
								},
								{
									"internalType": "address",
									"name": "walletAddress",
									"type": "address"
								},
								{
									"internalType": "string",
									"name": "email",
									"type": "string"
								},
								{
									"internalType": "string",
									"name": "phoneNumber",
									"type": "string"
								},
								{
									"internalType": "uint256",
									"name": "balance",
									"type": "uint256"
								},
								{
									"internalType": "bool",
									"name": "isVerified",
									"type": "bool"
								},
								{
									"internalType": "bytes32[]",
									"name": "secretPhrases",
									"type": "bytes32[]"
								}
							],
							"internalType": "struct Account.UserAccount",
							"name": "",
							"type": "tuple"
						}
					],
					"stateMutability": "view",
					"type": "function"
				}
			],
			"devdoc": {
				"kind": "dev",
				"methods": {},
				"version": 1
			},
			"evm": {
				"assembly": "    /* \"contracts/AccountMgt.sol\":91:832  contract AccountManager{... */\n  mstore(0x40, 0x80)\n    /* \"contracts/AccountMgt.sol\":161:258  constructor(address _accountAddress){... */\n  callvalue\n  dup1\n  iszero\n  tag_1\n  jumpi\n  0x00\n  dup1\n  revert\ntag_1:\n  pop\n  mload(0x40)\n  sub(codesize, bytecodeSize)\n  dup1\n  bytecodeSize\n  dup4\n  codecopy\n  dup2\n  dup2\n  add\n  0x40\n  mstore\n  dup2\n  add\n  swap1\n  tag_2\n  swap2\n  swap1\n  tag_3\n  jump\t// in\ntag_2:\n    /* \"contracts/AccountMgt.sol\":234:249  _accountAddress */\n  dup1\n    /* \"contracts/AccountMgt.sol\":208:223  accountContract */\n  0x00\n  dup1\n    /* \"contracts/AccountMgt.sol\":208:250  accountContract = Account(_accountAddress) */\n  0x0100\n  exp\n  dup2\n  sload\n  dup2\n  0xffffffffffffffffffffffffffffffffffffffff\n  mul\n  not\n  and\n  swap1\n  dup4\n  0xffffffffffffffffffffffffffffffffffffffff\n  and\n  mul\n  or\n  swap1\n  sstore\n  pop\n    /* \"contracts/AccountMgt.sol\":161:258  constructor(address _accountAddress){... */\n  pop\n    /* \"contracts/AccountMgt.sol\":91:832  contract AccountManager{... */\n  jump(tag_6)\n    /* \"#utility.yul\":88:205   */\ntag_8:\n    /* \"#utility.yul\":197:198   */\n  0x00\n    /* \"#utility.yul\":194:195   */\n  dup1\n    /* \"#utility.yul\":187:199   */\n  revert\n    /* \"#utility.yul\":334:460   */\ntag_10:\n    /* \"#utility.yul\":371:378   */\n  0x00\n    /* \"#utility.yul\":411:453   */\n  0xffffffffffffffffffffffffffffffffffffffff\n    /* \"#utility.yul\":404:409   */\n  dup3\n    /* \"#utility.yul\":400:454   */\n  and\n    /* \"#utility.yul\":389:454   */\n  swap1\n  pop\n    /* \"#utility.yul\":334:460   */\n  swap2\n  swap1\n  pop\n  jump\t// out\n    /* \"#utility.yul\":466:562   */\ntag_11:\n    /* \"#utility.yul\":503:510   */\n  0x00\n    /* \"#utility.yul\":532:556   */\n  tag_20\n    /* \"#utility.yul\":550:555   */\n  dup3\n    /* \"#utility.yul\":532:556   */\n  tag_10\n  jump\t// in\ntag_20:\n    /* \"#utility.yul\":521:556   */\n  swap1\n  pop\n    /* \"#utility.yul\":466:562   */\n  swap2\n  swap1\n  pop\n  jump\t// out\n    /* \"#utility.yul\":568:690   */\ntag_12:\n    /* \"#utility.yul\":641:665   */\n  tag_22\n    /* \"#utility.yul\":659:664   */\n  dup2\n    /* \"#utility.yul\":641:665   */\n  tag_11\n  jump\t// in\ntag_22:\n    /* \"#utility.yul\":634:639   */\n  dup2\n    /* \"#utility.yul\":631:666   */\n  eq\n    /* \"#utility.yul\":621:684   */\n  tag_23\n  jumpi\n    /* \"#utility.yul\":680:681   */\n  0x00\n    /* \"#utility.yul\":677:678   */\n  dup1\n    /* \"#utility.yul\":670:682   */\n  revert\n    /* \"#utility.yul\":621:684   */\ntag_23:\n    /* \"#utility.yul\":568:690   */\n  pop\n  jump\t// out\n    /* \"#utility.yul\":696:839   */\ntag_13:\n    /* \"#utility.yul\":753:758   */\n  0x00\n    /* \"#utility.yul\":784:790   */\n  dup2\n    /* \"#utility.yul\":778:791   */\n  mload\n    /* \"#utility.yul\":769:791   */\n  swap1\n  pop\n    /* \"#utility.yul\":800:833   */\n  tag_25\n    /* \"#utility.yul\":827:832   */\n  dup2\n    /* \"#utility.yul\":800:833   */\n  tag_12\n  jump\t// in\ntag_25:\n    /* \"#utility.yul\":696:839   */\n  swap3\n  swap2\n  pop\n  pop\n  jump\t// out\n    /* \"#utility.yul\":845:1196   */\ntag_3:\n    /* \"#utility.yul\":915:921   */\n  0x00\n    /* \"#utility.yul\":964:966   */\n  0x20\n    /* \"#utility.yul\":952:961   */\n  dup3\n    /* \"#utility.yul\":943:950   */\n  dup5\n    /* \"#utility.yul\":939:962   */\n  sub\n    /* \"#utility.yul\":935:967   */\n  slt\n    /* \"#utility.yul\":932:1051   */\n  iszero\n  tag_27\n  jumpi\n    /* \"#utility.yul\":970:1049   */\n  tag_28\n  tag_8\n  jump\t// in\ntag_28:\n    /* \"#utility.yul\":932:1051   */\ntag_27:\n    /* \"#utility.yul\":1090:1091   */\n  0x00\n    /* \"#utility.yul\":1115:1179   */\n  tag_29\n    /* \"#utility.yul\":1171:1178   */\n  dup5\n    /* \"#utility.yul\":1162:1168   */\n  dup3\n    /* \"#utility.yul\":1151:1160   */\n  dup6\n    /* \"#utility.yul\":1147:1169   */\n  add\n    /* \"#utility.yul\":1115:1179   */\n  tag_13\n  jump\t// in\ntag_29:\n    /* \"#utility.yul\":1105:1179   */\n  swap2\n  pop\n    /* \"#utility.yul\":1061:1189   */\n  pop\n    /* \"#utility.yul\":845:1196   */\n  swap3\n  swap2\n  pop\n  pop\n  jump\t// out\n    /* \"contracts/AccountMgt.sol\":91:832  contract AccountManager{... */\ntag_6:\n  dataSize(sub_0)\n  dup1\n  dataOffset(sub_0)\n  0x00\n  codecopy\n  0x00\n  return\nstop\n\nsub_0: assembly {\n        /* \"contracts/AccountMgt.sol\":91:832  contract AccountManager{... */\n      mstore(0x40, 0x80)\n      callvalue\n      dup1\n      iszero\n      tag_1\n      jumpi\n      0x00\n      dup1\n      revert\n    tag_1:\n      pop\n      jumpi(tag_2, lt(calldatasize, 0x04))\n      shr(0xe0, calldataload(0x00))\n      dup1\n      0x3d2737b0\n      eq\n      tag_3\n      jumpi\n      dup1\n      0xbdea20b7\n      eq\n      tag_4\n      jumpi\n      dup1\n      0xf87f5994\n      eq\n      tag_5\n      jumpi\n    tag_2:\n      0x00\n      dup1\n      revert\n        /* \"contracts/AccountMgt.sol\":512:655  function ViewAllAccountsOrWallets() public view returns (Account.UserAccount[] memory ){... */\n    tag_3:\n      tag_6\n      tag_7\n      jump\t// in\n    tag_6:\n      mload(0x40)\n      tag_8\n      swap2\n      swap1\n      tag_9\n      jump\t// in\n    tag_8:\n      mload(0x40)\n      dup1\n      swap2\n      sub\n      swap1\n      return\n        /* \"contracts/AccountMgt.sol\":667:829  function ViewSpecificAccount(string memory _id) public view returns (Account.UserAccount memory){... */\n    tag_4:\n      tag_10\n      0x04\n      dup1\n      calldatasize\n      sub\n      dup2\n      add\n      swap1\n      tag_11\n      swap2\n      swap1\n      tag_12\n      jump\t// in\n    tag_11:\n      tag_13\n      jump\t// in\n    tag_10:\n      mload(0x40)\n      tag_14\n      swap2\n      swap1\n      tag_15\n      jump\t// in\n    tag_14:\n      mload(0x40)\n      dup1\n      swap2\n      sub\n      swap1\n      return\n        /* \"contracts/AccountMgt.sol\":266:504  function CreateWalletOrAccount(string memory _phoneNumber, string memory _email, string[] memory _secrets) public returns (Account.UserAccount memory) {... */\n    tag_5:\n      tag_16\n      0x04\n      dup1\n      calldatasize\n      sub\n      dup2\n      add\n      swap1\n      tag_17\n      swap2\n      swap1\n      tag_18\n      jump\t// in\n    tag_17:\n      tag_19\n      jump\t// in\n    tag_16:\n      mload(0x40)\n      tag_20\n      swap2\n      swap1\n      tag_15\n      jump\t// in\n    tag_20:\n      mload(0x40)\n      dup1\n      swap2\n      sub\n      swap1\n      return\n        /* \"contracts/AccountMgt.sol\":512:655  function ViewAllAccountsOrWallets() public view returns (Account.UserAccount[] memory ){... */\n    tag_7:\n        /* \"contracts/AccountMgt.sol\":569:597  Account.UserAccount[] memory */\n      0x60\n        /* \"contracts/AccountMgt.sol\":617:632  accountContract */\n      0x00\n      dup1\n      sload\n      swap1\n      0x0100\n      exp\n      swap1\n      div\n      0xffffffffffffffffffffffffffffffffffffffff\n      and\n        /* \"contracts/AccountMgt.sol\":617:645  accountContract.viewAccounts */\n      0xffffffffffffffffffffffffffffffffffffffff\n      and\n      0x08e6085a\n        /* \"contracts/AccountMgt.sol\":617:647  accountContract.viewAccounts() */\n      mload(0x40)\n      dup2\n      0xffffffff\n      and\n      0xe0\n      shl\n      dup2\n      mstore\n      0x04\n      add\n      0x00\n      mload(0x40)\n      dup1\n      dup4\n      sub\n      dup2\n      dup7\n      gas\n      staticcall\n      iszero\n      dup1\n      iszero\n      tag_23\n      jumpi\n      returndatasize\n      0x00\n      dup1\n      returndatacopy\n      revert(0x00, returndatasize)\n    tag_23:\n      pop\n      pop\n      pop\n      pop\n      mload(0x40)\n      returndatasize\n      0x00\n      dup3\n      returndatacopy\n      returndatasize\n      not(0x1f)\n      0x1f\n      dup3\n      add\n      and\n      dup3\n      add\n      dup1\n      0x40\n      mstore\n      pop\n      dup2\n      add\n      swap1\n      tag_24\n      swap2\n      swap1\n      tag_25\n      jump\t// in\n    tag_24:\n        /* \"contracts/AccountMgt.sol\":610:647  return accountContract.viewAccounts() */\n      swap1\n      pop\n        /* \"contracts/AccountMgt.sol\":512:655  function ViewAllAccountsOrWallets() public view returns (Account.UserAccount[] memory ){... */\n      swap1\n      jump\t// out\n        /* \"contracts/AccountMgt.sol\":667:829  function ViewSpecificAccount(string memory _id) public view returns (Account.UserAccount memory){... */\n    tag_13:\n        /* \"contracts/AccountMgt.sol\":736:762  Account.UserAccount memory */\n      tag_26\n      tag_27\n      jump\t// in\n    tag_26:\n        /* \"contracts/AccountMgt.sol\":782:797  accountContract */\n      0x00\n      dup1\n      sload\n      swap1\n      0x0100\n      exp\n      swap1\n      div\n      0xffffffffffffffffffffffffffffffffffffffff\n      and\n        /* \"contracts/AccountMgt.sol\":782:816  accountContract.ViewAccountByEmail */\n      0xffffffffffffffffffffffffffffffffffffffff\n      and\n      0x930aca02\n        /* \"contracts/AccountMgt.sol\":817:820  _id */\n      dup4\n        /* \"contracts/AccountMgt.sol\":782:821  accountContract.ViewAccountByEmail(_id) */\n      mload(0x40)\n      dup3\n      0xffffffff\n      and\n      0xe0\n      shl\n      dup2\n      mstore\n      0x04\n      add\n      tag_29\n      swap2\n      swap1\n      tag_30\n      jump\t// in\n    tag_29:\n      0x00\n      mload(0x40)\n      dup1\n      dup4\n      sub\n      dup2\n      dup7\n      gas\n      staticcall\n      iszero\n      dup1\n      iszero\n      tag_32\n      jumpi\n      returndatasize\n      0x00\n      dup1\n      returndatacopy\n      revert(0x00, returndatasize)\n    tag_32:\n      pop\n      pop\n      pop\n      pop\n      mload(0x40)\n      returndatasize\n      0x00\n      dup3\n      returndatacopy\n      returndatasize\n      not(0x1f)\n      0x1f\n      dup3\n      add\n      and\n      dup3\n      add\n      dup1\n      0x40\n      mstore\n      pop\n      dup2\n      add\n      swap1\n      tag_33\n      swap2\n      swap1\n      tag_34\n      jump\t// in\n    tag_33:\n        /* \"contracts/AccountMgt.sol\":774:821  return  accountContract.ViewAccountByEmail(_id) */\n      swap1\n      pop\n        /* \"contracts/AccountMgt.sol\":667:829  function ViewSpecificAccount(string memory _id) public view returns (Account.UserAccount memory){... */\n      swap2\n      swap1\n      pop\n      jump\t// out\n        /* \"contracts/AccountMgt.sol\":266:504  function CreateWalletOrAccount(string memory _phoneNumber, string memory _email, string[] memory _secrets) public returns (Account.UserAccount memory) {... */\n    tag_19:\n        /* \"contracts/AccountMgt.sol\":389:415  Account.UserAccount memory */\n      tag_35\n      tag_27\n      jump\t// in\n    tag_35:\n        /* \"contracts/AccountMgt.sol\":435:450  accountContract */\n      0x00\n      dup1\n      sload\n      swap1\n      0x0100\n      exp\n      swap1\n      div\n      0xffffffffffffffffffffffffffffffffffffffff\n      and\n        /* \"contracts/AccountMgt.sol\":435:464  accountContract.CreateAccount */\n      0xffffffffffffffffffffffffffffffffffffffff\n      and\n      0x3453de09\n        /* \"contracts/AccountMgt.sol\":465:477  _phoneNumber */\n      dup6\n        /* \"contracts/AccountMgt.sol\":479:485  _email */\n      dup6\n        /* \"contracts/AccountMgt.sol\":487:495  _secrets */\n      dup6\n        /* \"contracts/AccountMgt.sol\":435:496  accountContract.CreateAccount(_phoneNumber, _email, _secrets) */\n      mload(0x40)\n      dup5\n      0xffffffff\n      and\n      0xe0\n      shl\n      dup2\n      mstore\n      0x04\n      add\n      tag_37\n      swap4\n      swap3\n      swap2\n      swap1\n      tag_38\n      jump\t// in\n    tag_37:\n      0x00\n      mload(0x40)\n      dup1\n      dup4\n      sub\n      dup2\n      0x00\n      dup8\n      gas\n      call\n      iszero\n      dup1\n      iszero\n      tag_40\n      jumpi\n      returndatasize\n      0x00\n      dup1\n      returndatacopy\n      revert(0x00, returndatasize)\n    tag_40:\n      pop\n      pop\n      pop\n      pop\n      mload(0x40)\n      returndatasize\n      0x00\n      dup3\n      returndatacopy\n      returndatasize\n      not(0x1f)\n      0x1f\n      dup3\n      add\n      and\n      dup3\n      add\n      dup1\n      0x40\n      mstore\n      pop\n      dup2\n      add\n      swap1\n      tag_41\n      swap2\n      swap1\n      tag_34\n      jump\t// in\n    tag_41:\n        /* \"contracts/AccountMgt.sol\":428:496  return accountContract.CreateAccount(_phoneNumber, _email, _secrets) */\n      swap1\n      pop\n        /* \"contracts/AccountMgt.sol\":266:504  function CreateWalletOrAccount(string memory _phoneNumber, string memory _email, string[] memory _secrets) public returns (Account.UserAccount memory) {... */\n      swap4\n      swap3\n      pop\n      pop\n      pop\n      jump\t// out\n    tag_27:\n      mload(0x40)\n      dup1\n      0xe0\n      add\n      0x40\n      mstore\n      dup1\n      0x00\n      dup2\n      mstore\n      0x20\n      add\n      and(0xffffffffffffffffffffffffffffffffffffffff, 0x00)\n      dup2\n      mstore\n      0x20\n      add\n      0x60\n      dup2\n      mstore\n      0x20\n      add\n      0x60\n      dup2\n      mstore\n      0x20\n      add\n      0x00\n      dup2\n      mstore\n      0x20\n      add\n      iszero(iszero(0x00))\n      dup2\n      mstore\n      0x20\n      add\n      0x60\n      dup2\n      mstore\n      pop\n      swap1\n      jump\t// out\n        /* \"#utility.yul\":7:148   */\n    tag_42:\n        /* \"#utility.yul\":101:107   */\n      0x00\n        /* \"#utility.yul\":135:140   */\n      dup2\n        /* \"#utility.yul\":129:141   */\n      mload\n        /* \"#utility.yul\":119:141   */\n      swap1\n      pop\n        /* \"#utility.yul\":7:148   */\n      swap2\n      swap1\n      pop\n      jump\t// out\n        /* \"#utility.yul\":154:365   */\n    tag_43:\n        /* \"#utility.yul\":280:291   */\n      0x00\n        /* \"#utility.yul\":314:320   */\n      dup3\n        /* \"#utility.yul\":309:312   */\n      dup3\n        /* \"#utility.yul\":302:321   */\n      mstore\n        /* \"#utility.yul\":354:358   */\n      0x20\n        /* \"#utility.yul\":349:352   */\n      dup3\n        /* \"#utility.yul\":345:359   */\n      add\n        /* \"#utility.yul\":330:359   */\n      swap1\n      pop\n        /* \"#utility.yul\":154:365   */\n      swap3\n      swap2\n      pop\n      pop\n      jump\t// out\n        /* \"#utility.yul\":371:530   */\n    tag_44:\n        /* \"#utility.yul\":465:469   */\n      0x00\n        /* \"#utility.yul\":488:491   */\n      dup2\n        /* \"#utility.yul\":480:491   */\n      swap1\n      pop\n        /* \"#utility.yul\":518:522   */\n      0x20\n        /* \"#utility.yul\":513:516   */\n      dup3\n        /* \"#utility.yul\":509:523   */\n      add\n        /* \"#utility.yul\":501:523   */\n      swap1\n      pop\n        /* \"#utility.yul\":371:530   */\n      swap2\n      swap1\n      pop\n      jump\t// out\n        /* \"#utility.yul\":536:613   */\n    tag_45:\n        /* \"#utility.yul\":573:580   */\n      0x00\n        /* \"#utility.yul\":602:607   */\n      dup2\n        /* \"#utility.yul\":591:607   */\n      swap1\n      pop\n        /* \"#utility.yul\":536:613   */\n      swap2\n      swap1\n      pop\n      jump\t// out\n        /* \"#utility.yul\":619:727   */\n    tag_46:\n        /* \"#utility.yul\":696:720   */\n      tag_119\n        /* \"#utility.yul\":714:719   */\n      dup2\n        /* \"#utility.yul\":696:720   */\n      tag_45\n      jump\t// in\n    tag_119:\n        /* \"#utility.yul\":691:694   */\n      dup3\n        /* \"#utility.yul\":684:721   */\n      mstore\n        /* \"#utility.yul\":619:727   */\n      pop\n      pop\n      jump\t// out\n        /* \"#utility.yul\":733:859   */\n    tag_47:\n        /* \"#utility.yul\":770:777   */\n      0x00\n        /* \"#utility.yul\":810:852   */\n      0xffffffffffffffffffffffffffffffffffffffff\n        /* \"#utility.yul\":803:808   */\n      dup3\n        /* \"#utility.yul\":799:853   */\n      and\n        /* \"#utility.yul\":788:853   */\n      swap1\n      pop\n        /* \"#utility.yul\":733:859   */\n      swap2\n      swap1\n      pop\n      jump\t// out\n        /* \"#utility.yul\":865:961   */\n    tag_48:\n        /* \"#utility.yul\":902:909   */\n      0x00\n        /* \"#utility.yul\":931:955   */\n      tag_122\n        /* \"#utility.yul\":949:954   */\n      dup3\n        /* \"#utility.yul\":931:955   */\n      tag_47\n      jump\t// in\n    tag_122:\n        /* \"#utility.yul\":920:955   */\n      swap1\n      pop\n        /* \"#utility.yul\":865:961   */\n      swap2\n      swap1\n      pop\n      jump\t// out\n        /* \"#utility.yul\":967:1075   */\n    tag_49:\n        /* \"#utility.yul\":1044:1068   */\n      tag_124\n        /* \"#utility.yul\":1062:1067   */\n      dup2\n        /* \"#utility.yul\":1044:1068   */\n      tag_48\n      jump\t// in\n    tag_124:\n        /* \"#utility.yul\":1039:1042   */\n      dup3\n        /* \"#utility.yul\":1032:1069   */\n      mstore\n        /* \"#utility.yul\":967:1075   */\n      pop\n      pop\n      jump\t// out\n        /* \"#utility.yul\":1081:1180   */\n    tag_50:\n        /* \"#utility.yul\":1133:1139   */\n      0x00\n        /* \"#utility.yul\":1167:1172   */\n      dup2\n        /* \"#utility.yul\":1161:1173   */\n      mload\n        /* \"#utility.yul\":1151:1173   */\n      swap1\n      pop\n        /* \"#utility.yul\":1081:1180   */\n      swap2\n      swap1\n      pop\n      jump\t// out\n        /* \"#utility.yul\":1186:1345   */\n    tag_51:\n        /* \"#utility.yul\":1260:1271   */\n      0x00\n        /* \"#utility.yul\":1294:1300   */\n      dup3\n        /* \"#utility.yul\":1289:1292   */\n      dup3\n        /* \"#utility.yul\":1282:1301   */\n      mstore\n        /* \"#utility.yul\":1334:1338   */\n      0x20\n        /* \"#utility.yul\":1329:1332   */\n      dup3\n        /* \"#utility.yul\":1325:1339   */\n      add\n        /* \"#utility.yul\":1310:1339   */\n      swap1\n      pop\n        /* \"#utility.yul\":1186:1345   */\n      swap3\n      swap2\n      pop\n      pop\n      jump\t// out\n        /* \"#utility.yul\":1351:1490   */\n    tag_52:\n        /* \"#utility.yul\":1440:1446   */\n      dup3\n        /* \"#utility.yul\":1435:1438   */\n      dup2\n        /* \"#utility.yul\":1430:1433   */\n      dup4\n        /* \"#utility.yul\":1424:1447   */\n      mcopy\n        /* \"#utility.yul\":1481:1482   */\n      0x00\n        /* \"#utility.yul\":1472:1478   */\n      dup4\n        /* \"#utility.yul\":1467:1470   */\n      dup4\n        /* \"#utility.yul\":1463:1479   */\n      add\n        /* \"#utility.yul\":1456:1483   */\n      mstore\n        /* \"#utility.yul\":1351:1490   */\n      pop\n      pop\n      pop\n      jump\t// out\n        /* \"#utility.yul\":1496:1598   */\n    tag_53:\n        /* \"#utility.yul\":1537:1543   */\n      0x00\n        /* \"#utility.yul\":1588:1590   */\n      0x1f\n        /* \"#utility.yul\":1584:1591   */\n      not\n        /* \"#utility.yul\":1579:1581   */\n      0x1f\n        /* \"#utility.yul\":1572:1577   */\n      dup4\n        /* \"#utility.yul\":1568:1582   */\n      add\n        /* \"#utility.yul\":1564:1592   */\n      and\n        /* \"#utility.yul\":1554:1592   */\n      swap1\n      pop\n        /* \"#utility.yul\":1496:1598   */\n      swap2\n      swap1\n      pop\n      jump\t// out\n        /* \"#utility.yul\":1604:1961   */\n    tag_54:\n        /* \"#utility.yul\":1682:1685   */\n      0x00\n        /* \"#utility.yul\":1710:1749   */\n      tag_130\n        /* \"#utility.yul\":1743:1748   */\n      dup3\n        /* \"#utility.yul\":1710:1749   */\n      tag_50\n      jump\t// in\n    tag_130:\n        /* \"#utility.yul\":1765:1826   */\n      tag_131\n        /* \"#utility.yul\":1819:1825   */\n      dup2\n        /* \"#utility.yul\":1814:1817   */\n      dup6\n        /* \"#utility.yul\":1765:1826   */\n      tag_51\n      jump\t// in\n    tag_131:\n        /* \"#utility.yul\":1758:1826   */\n      swap4\n      pop\n        /* \"#utility.yul\":1835:1900   */\n      tag_132\n        /* \"#utility.yul\":1893:1899   */\n      dup2\n        /* \"#utility.yul\":1888:1891   */\n      dup6\n        /* \"#utility.yul\":1881:1885   */\n      0x20\n        /* \"#utility.yul\":1874:1879   */\n      dup7\n        /* \"#utility.yul\":1870:1886   */\n      add\n        /* \"#utility.yul\":1835:1900   */\n      tag_52\n      jump\t// in\n    tag_132:\n        /* \"#utility.yul\":1925:1954   */\n      tag_133\n        /* \"#utility.yul\":1947:1953   */\n      dup2\n        /* \"#utility.yul\":1925:1954   */\n      tag_53\n      jump\t// in\n    tag_133:\n        /* \"#utility.yul\":1920:1923   */\n      dup5\n        /* \"#utility.yul\":1916:1955   */\n      add\n        /* \"#utility.yul\":1909:1955   */\n      swap2\n      pop\n        /* \"#utility.yul\":1686:1961   */\n      pop\n        /* \"#utility.yul\":1604:1961   */\n      swap3\n      swap2\n      pop\n      pop\n      jump\t// out\n        /* \"#utility.yul\":1967:2057   */\n    tag_55:\n        /* \"#utility.yul\":2001:2008   */\n      0x00\n        /* \"#utility.yul\":2044:2049   */\n      dup2\n        /* \"#utility.yul\":2037:2050   */\n      iszero\n        /* \"#utility.yul\":2030:2051   */\n      iszero\n        /* \"#utility.yul\":2019:2051   */\n      swap1\n      pop\n        /* \"#utility.yul\":1967:2057   */\n      swap2\n      swap1\n      pop\n      jump\t// out\n        /* \"#utility.yul\":2063:2162   */\n    tag_56:\n        /* \"#utility.yul\":2134:2155   */\n      tag_136\n        /* \"#utility.yul\":2149:2154   */\n      dup2\n        /* \"#utility.yul\":2134:2155   */\n      tag_55\n      jump\t// in\n    tag_136:\n        /* \"#utility.yul\":2129:2132   */\n      dup3\n        /* \"#utility.yul\":2122:2156   */\n      mstore\n        /* \"#utility.yul\":2063:2162   */\n      pop\n      pop\n      jump\t// out\n        /* \"#utility.yul\":2168:2282   */\n    tag_57:\n        /* \"#utility.yul\":2235:2241   */\n      0x00\n        /* \"#utility.yul\":2269:2274   */\n      dup2\n        /* \"#utility.yul\":2263:2275   */\n      mload\n        /* \"#utility.yul\":2253:2275   */\n      swap1\n      pop\n        /* \"#utility.yul\":2168:2282   */\n      swap2\n      swap1\n      pop\n      jump\t// out\n        /* \"#utility.yul\":2288:2462   */\n    tag_58:\n        /* \"#utility.yul\":2377:2388   */\n      0x00\n        /* \"#utility.yul\":2411:2417   */\n      dup3\n        /* \"#utility.yul\":2406:2409   */\n      dup3\n        /* \"#utility.yul\":2399:2418   */\n      mstore\n        /* \"#utility.yul\":2451:2455   */\n      0x20\n        /* \"#utility.yul\":2446:2449   */\n      dup3\n        /* \"#utility.yul\":2442:2456   */\n      add\n        /* \"#utility.yul\":2427:2456   */\n      swap1\n      pop\n        /* \"#utility.yul\":2288:2462   */\n      swap3\n      swap2\n      pop\n      pop\n      jump\t// out\n        /* \"#utility.yul\":2468:2600   */\n    tag_59:\n        /* \"#utility.yul\":2535:2539   */\n      0x00\n        /* \"#utility.yul\":2558:2561   */\n      dup2\n        /* \"#utility.yul\":2550:2561   */\n      swap1\n      pop\n        /* \"#utility.yul\":2588:2592   */\n      0x20\n        /* \"#utility.yul\":2583:2586   */\n      dup3\n        /* \"#utility.yul\":2579:2593   */\n      add\n        /* \"#utility.yul\":2571:2593   */\n      swap1\n      pop\n        /* \"#utility.yul\":2468:2600   */\n      swap2\n      swap1\n      pop\n      jump\t// out\n        /* \"#utility.yul\":2606:2683   */\n    tag_60:\n        /* \"#utility.yul\":2643:2650   */\n      0x00\n        /* \"#utility.yul\":2672:2677   */\n      dup2\n        /* \"#utility.yul\":2661:2677   */\n      swap1\n      pop\n        /* \"#utility.yul\":2606:2683   */\n      swap2\n      swap1\n      pop\n      jump\t// out\n        /* \"#utility.yul\":2689:2797   */\n    tag_61:\n        /* \"#utility.yul\":2766:2790   */\n      tag_142\n        /* \"#utility.yul\":2784:2789   */\n      dup2\n        /* \"#utility.yul\":2766:2790   */\n      tag_60\n      jump\t// in\n    tag_142:\n        /* \"#utility.yul\":2761:2764   */\n      dup3\n        /* \"#utility.yul\":2754:2791   */\n      mstore\n        /* \"#utility.yul\":2689:2797   */\n      pop\n      pop\n      jump\t// out\n        /* \"#utility.yul\":2803:2982   */\n    tag_62:\n        /* \"#utility.yul\":2872:2882   */\n      0x00\n        /* \"#utility.yul\":2893:2939   */\n      tag_144\n        /* \"#utility.yul\":2935:2938   */\n      dup4\n        /* \"#utility.yul\":2927:2933   */\n      dup4\n        /* \"#utility.yul\":2893:2939   */\n      tag_61\n      jump\t// in\n    tag_144:\n        /* \"#utility.yul\":2971:2975   */\n      0x20\n        /* \"#utility.yul\":2966:2969   */\n      dup4\n        /* \"#utility.yul\":2962:2976   */\n      add\n        /* \"#utility.yul\":2948:2976   */\n      swap1\n      pop\n        /* \"#utility.yul\":2803:2982   */\n      swap3\n      swap2\n      pop\n      pop\n      jump\t// out\n        /* \"#utility.yul\":2988:3101   */\n    tag_63:\n        /* \"#utility.yul\":3058:3062   */\n      0x00\n        /* \"#utility.yul\":3090:3094   */\n      0x20\n        /* \"#utility.yul\":3085:3088   */\n      dup3\n        /* \"#utility.yul\":3081:3095   */\n      add\n        /* \"#utility.yul\":3073:3095   */\n      swap1\n      pop\n        /* \"#utility.yul\":2988:3101   */\n      swap2\n      swap1\n      pop\n      jump\t// out\n        /* \"#utility.yul\":3137:3849   */\n    tag_64:\n        /* \"#utility.yul\":3246:3249   */\n      0x00\n        /* \"#utility.yul\":3275:3329   */\n      tag_147\n        /* \"#utility.yul\":3323:3328   */\n      dup3\n        /* \"#utility.yul\":3275:3329   */\n      tag_57\n      jump\t// in\n    tag_147:\n        /* \"#utility.yul\":3345:3421   */\n      tag_148\n        /* \"#utility.yul\":3414:3420   */\n      dup2\n        /* \"#utility.yul\":3409:3412   */\n      dup6\n        /* \"#utility.yul\":3345:3421   */\n      tag_58\n      jump\t// in\n    tag_148:\n        /* \"#utility.yul\":3338:3421   */\n      swap4\n      pop\n        /* \"#utility.yul\":3445:3501   */\n      tag_149\n        /* \"#utility.yul\":3495:3500   */\n      dup4\n        /* \"#utility.yul\":3445:3501   */\n      tag_59\n      jump\t// in\n    tag_149:\n        /* \"#utility.yul\":3524:3531   */\n      dup1\n        /* \"#utility.yul\":3555:3556   */\n      0x00\n        /* \"#utility.yul\":3540:3824   */\n    tag_150:\n        /* \"#utility.yul\":3565:3571   */\n      dup4\n        /* \"#utility.yul\":3562:3563   */\n      dup2\n        /* \"#utility.yul\":3559:3572   */\n      lt\n        /* \"#utility.yul\":3540:3824   */\n      iszero\n      tag_152\n      jumpi\n        /* \"#utility.yul\":3641:3647   */\n      dup2\n        /* \"#utility.yul\":3635:3648   */\n      mload\n        /* \"#utility.yul\":3668:3731   */\n      tag_153\n        /* \"#utility.yul\":3727:3730   */\n      dup9\n        /* \"#utility.yul\":3712:3725   */\n      dup3\n        /* \"#utility.yul\":3668:3731   */\n      tag_62\n      jump\t// in\n    tag_153:\n        /* \"#utility.yul\":3661:3731   */\n      swap8\n      pop\n        /* \"#utility.yul\":3754:3814   */\n      tag_154\n        /* \"#utility.yul\":3807:3813   */\n      dup4\n        /* \"#utility.yul\":3754:3814   */\n      tag_63\n      jump\t// in\n    tag_154:\n        /* \"#utility.yul\":3744:3814   */\n      swap3\n      pop\n        /* \"#utility.yul\":3600:3824   */\n      pop\n        /* \"#utility.yul\":3587:3588   */\n      0x01\n        /* \"#utility.yul\":3584:3585   */\n      dup2\n        /* \"#utility.yul\":3580:3589   */\n      add\n        /* \"#utility.yul\":3575:3589   */\n      swap1\n      pop\n        /* \"#utility.yul\":3540:3824   */\n      jump(tag_150)\n    tag_152:\n        /* \"#utility.yul\":3544:3558   */\n      pop\n        /* \"#utility.yul\":3840:3843   */\n      dup6\n        /* \"#utility.yul\":3833:3843   */\n      swap4\n      pop\n        /* \"#utility.yul\":3251:3849   */\n      pop\n      pop\n      pop\n        /* \"#utility.yul\":3137:3849   */\n      swap3\n      swap2\n      pop\n      pop\n      jump\t// out\n        /* \"#utility.yul\":3919:5588   */\n    tag_65:\n        /* \"#utility.yul\":4032:4035   */\n      0x00\n        /* \"#utility.yul\":4068:4072   */\n      0xe0\n        /* \"#utility.yul\":4063:4066   */\n      dup4\n        /* \"#utility.yul\":4059:4073   */\n      add\n        /* \"#utility.yul\":4153:4157   */\n      0x00\n        /* \"#utility.yul\":4146:4151   */\n      dup4\n        /* \"#utility.yul\":4142:4158   */\n      add\n        /* \"#utility.yul\":4136:4159   */\n      mload\n        /* \"#utility.yul\":4172:4235   */\n      tag_156\n        /* \"#utility.yul\":4229:4233   */\n      0x00\n        /* \"#utility.yul\":4224:4227   */\n      dup7\n        /* \"#utility.yul\":4220:4234   */\n      add\n        /* \"#utility.yul\":4206:4218   */\n      dup3\n        /* \"#utility.yul\":4172:4235   */\n      tag_46\n      jump\t// in\n    tag_156:\n        /* \"#utility.yul\":4083:4245   */\n      pop\n        /* \"#utility.yul\":4336:4340   */\n      0x20\n        /* \"#utility.yul\":4329:4334   */\n      dup4\n        /* \"#utility.yul\":4325:4341   */\n      add\n        /* \"#utility.yul\":4319:4342   */\n      mload\n        /* \"#utility.yul\":4355:4418   */\n      tag_157\n        /* \"#utility.yul\":4412:4416   */\n      0x20\n        /* \"#utility.yul\":4407:4410   */\n      dup7\n        /* \"#utility.yul\":4403:4417   */\n      add\n        /* \"#utility.yul\":4389:4401   */\n      dup3\n        /* \"#utility.yul\":4355:4418   */\n      tag_49\n      jump\t// in\n    tag_157:\n        /* \"#utility.yul\":4255:4428   */\n      pop\n        /* \"#utility.yul\":4511:4515   */\n      0x40\n        /* \"#utility.yul\":4504:4509   */\n      dup4\n        /* \"#utility.yul\":4500:4516   */\n      add\n        /* \"#utility.yul\":4494:4517   */\n      mload\n        /* \"#utility.yul\":4564:4567   */\n      dup5\n        /* \"#utility.yul\":4558:4562   */\n      dup3\n        /* \"#utility.yul\":4554:4568   */\n      sub\n        /* \"#utility.yul\":4547:4551   */\n      0x40\n        /* \"#utility.yul\":4542:4545   */\n      dup7\n        /* \"#utility.yul\":4538:4552   */\n      add\n        /* \"#utility.yul\":4531:4569   */\n      mstore\n        /* \"#utility.yul\":4590:4663   */\n      tag_158\n        /* \"#utility.yul\":4658:4662   */\n      dup3\n        /* \"#utility.yul\":4644:4656   */\n      dup3\n        /* \"#utility.yul\":4590:4663   */\n      tag_54\n      jump\t// in\n    tag_158:\n        /* \"#utility.yul\":4582:4663   */\n      swap2\n      pop\n        /* \"#utility.yul\":4438:4674   */\n      pop\n        /* \"#utility.yul\":4763:4767   */\n      0x60\n        /* \"#utility.yul\":4756:4761   */\n      dup4\n        /* \"#utility.yul\":4752:4768   */\n      add\n        /* \"#utility.yul\":4746:4769   */\n      mload\n        /* \"#utility.yul\":4816:4819   */\n      dup5\n        /* \"#utility.yul\":4810:4814   */\n      dup3\n        /* \"#utility.yul\":4806:4820   */\n      sub\n        /* \"#utility.yul\":4799:4803   */\n      0x60\n        /* \"#utility.yul\":4794:4797   */\n      dup7\n        /* \"#utility.yul\":4790:4804   */\n      add\n        /* \"#utility.yul\":4783:4821   */\n      mstore\n        /* \"#utility.yul\":4842:4915   */\n      tag_159\n        /* \"#utility.yul\":4910:4914   */\n      dup3\n        /* \"#utility.yul\":4896:4908   */\n      dup3\n        /* \"#utility.yul\":4842:4915   */\n      tag_54\n      jump\t// in\n    tag_159:\n        /* \"#utility.yul\":4834:4915   */\n      swap2\n      pop\n        /* \"#utility.yul\":4684:4926   */\n      pop\n        /* \"#utility.yul\":5011:5015   */\n      0x80\n        /* \"#utility.yul\":5004:5009   */\n      dup4\n        /* \"#utility.yul\":5000:5016   */\n      add\n        /* \"#utility.yul\":4994:5017   */\n      mload\n        /* \"#utility.yul\":5030:5093   */\n      tag_160\n        /* \"#utility.yul\":5087:5091   */\n      0x80\n        /* \"#utility.yul\":5082:5085   */\n      dup7\n        /* \"#utility.yul\":5078:5092   */\n      add\n        /* \"#utility.yul\":5064:5076   */\n      dup3\n        /* \"#utility.yul\":5030:5093   */\n      tag_46\n      jump\t// in\n    tag_160:\n        /* \"#utility.yul\":4936:5103   */\n      pop\n        /* \"#utility.yul\":5191:5195   */\n      0xa0\n        /* \"#utility.yul\":5184:5189   */\n      dup4\n        /* \"#utility.yul\":5180:5196   */\n      add\n        /* \"#utility.yul\":5174:5197   */\n      mload\n        /* \"#utility.yul\":5210:5267   */\n      tag_161\n        /* \"#utility.yul\":5261:5265   */\n      0xa0\n        /* \"#utility.yul\":5256:5259   */\n      dup7\n        /* \"#utility.yul\":5252:5266   */\n      add\n        /* \"#utility.yul\":5238:5250   */\n      dup3\n        /* \"#utility.yul\":5210:5267   */\n      tag_56\n      jump\t// in\n    tag_161:\n        /* \"#utility.yul\":5113:5277   */\n      pop\n        /* \"#utility.yul\":5368:5372   */\n      0xc0\n        /* \"#utility.yul\":5361:5366   */\n      dup4\n        /* \"#utility.yul\":5357:5373   */\n      add\n        /* \"#utility.yul\":5351:5374   */\n      mload\n        /* \"#utility.yul\":5421:5424   */\n      dup5\n        /* \"#utility.yul\":5415:5419   */\n      dup3\n        /* \"#utility.yul\":5411:5425   */\n      sub\n        /* \"#utility.yul\":5404:5408   */\n      0xc0\n        /* \"#utility.yul\":5399:5402   */\n      dup7\n        /* \"#utility.yul\":5395:5409   */\n      add\n        /* \"#utility.yul\":5388:5426   */\n      mstore\n        /* \"#utility.yul\":5447:5550   */\n      tag_162\n        /* \"#utility.yul\":5545:5549   */\n      dup3\n        /* \"#utility.yul\":5531:5543   */\n      dup3\n        /* \"#utility.yul\":5447:5550   */\n      tag_64\n      jump\t// in\n    tag_162:\n        /* \"#utility.yul\":5439:5550   */\n      swap2\n      pop\n        /* \"#utility.yul\":5287:5561   */\n      pop\n        /* \"#utility.yul\":5578:5582   */\n      dup1\n        /* \"#utility.yul\":5571:5582   */\n      swap2\n      pop\n        /* \"#utility.yul\":4037:5588   */\n      pop\n        /* \"#utility.yul\":3919:5588   */\n      swap3\n      swap2\n      pop\n      pop\n      jump\t// out\n        /* \"#utility.yul\":5594:5858   */\n    tag_66:\n        /* \"#utility.yul\":5717:5727   */\n      0x00\n        /* \"#utility.yul\":5752:5852   */\n      tag_164\n        /* \"#utility.yul\":5848:5851   */\n      dup4\n        /* \"#utility.yul\":5840:5846   */\n      dup4\n        /* \"#utility.yul\":5752:5852   */\n      tag_65\n      jump\t// in\n    tag_164:\n        /* \"#utility.yul\":5738:5852   */\n      swap1\n      pop\n        /* \"#utility.yul\":5594:5858   */\n      swap3\n      swap2\n      pop\n      pop\n      jump\t// out\n        /* \"#utility.yul\":5864:6004   */\n    tag_67:\n        /* \"#utility.yul\":5961:5965   */\n      0x00\n        /* \"#utility.yul\":5993:5997   */\n      0x20\n        /* \"#utility.yul\":5988:5991   */\n      dup3\n        /* \"#utility.yul\":5984:5998   */\n      add\n        /* \"#utility.yul\":5976:5998   */\n      swap1\n      pop\n        /* \"#utility.yul\":5864:6004   */\n      swap2\n      swap1\n      pop\n      jump\t// out\n        /* \"#utility.yul\":6078:7205   */\n    tag_68:\n        /* \"#utility.yul\":6251:6254   */\n      0x00\n        /* \"#utility.yul\":6280:6361   */\n      tag_167\n        /* \"#utility.yul\":6355:6360   */\n      dup3\n        /* \"#utility.yul\":6280:6361   */\n      tag_42\n      jump\t// in\n    tag_167:\n        /* \"#utility.yul\":6377:6490   */\n      tag_168\n        /* \"#utility.yul\":6483:6489   */\n      dup2\n        /* \"#utility.yul\":6478:6481   */\n      dup6\n        /* \"#utility.yul\":6377:6490   */\n      tag_43\n      jump\t// in\n    tag_168:\n        /* \"#utility.yul\":6370:6490   */\n      swap4\n      pop\n        /* \"#utility.yul\":6516:6519   */\n      dup4\n        /* \"#utility.yul\":6561:6565   */\n      0x20\n        /* \"#utility.yul\":6553:6559   */\n      dup3\n        /* \"#utility.yul\":6549:6566   */\n      mul\n        /* \"#utility.yul\":6544:6547   */\n      dup6\n        /* \"#utility.yul\":6540:6567   */\n      add\n        /* \"#utility.yul\":6591:6674   */\n      tag_169\n        /* \"#utility.yul\":6668:6673   */\n      dup6\n        /* \"#utility.yul\":6591:6674   */\n      tag_44\n      jump\t// in\n    tag_169:\n        /* \"#utility.yul\":6697:6704   */\n      dup1\n        /* \"#utility.yul\":6728:6729   */\n      0x00\n        /* \"#utility.yul\":6713:7160   */\n    tag_170:\n        /* \"#utility.yul\":6738:6744   */\n      dup6\n        /* \"#utility.yul\":6735:6736   */\n      dup2\n        /* \"#utility.yul\":6732:6745   */\n      lt\n        /* \"#utility.yul\":6713:7160   */\n      iszero\n      tag_172\n      jumpi\n        /* \"#utility.yul\":6809:6818   */\n      dup5\n        /* \"#utility.yul\":6803:6807   */\n      dup5\n        /* \"#utility.yul\":6799:6819   */\n      sub\n        /* \"#utility.yul\":6794:6797   */\n      dup10\n        /* \"#utility.yul\":6787:6820   */\n      mstore\n        /* \"#utility.yul\":6860:6866   */\n      dup2\n        /* \"#utility.yul\":6854:6867   */\n      mload\n        /* \"#utility.yul\":6888:7006   */\n      tag_173\n        /* \"#utility.yul\":7001:7005   */\n      dup6\n        /* \"#utility.yul\":6986:6999   */\n      dup3\n        /* \"#utility.yul\":6888:7006   */\n      tag_66\n      jump\t// in\n    tag_173:\n        /* \"#utility.yul\":6880:7006   */\n      swap5\n      pop\n        /* \"#utility.yul\":7029:7116   */\n      tag_174\n        /* \"#utility.yul\":7109:7115   */\n      dup4\n        /* \"#utility.yul\":7029:7116   */\n      tag_67\n      jump\t// in\n    tag_174:\n        /* \"#utility.yul\":7019:7116   */\n      swap3\n      pop\n        /* \"#utility.yul\":7145:7149   */\n      0x20\n        /* \"#utility.yul\":7140:7143   */\n      dup11\n        /* \"#utility.yul\":7136:7150   */\n      add\n        /* \"#utility.yul\":7129:7150   */\n      swap10\n      pop\n        /* \"#utility.yul\":6773:7160   */\n      pop\n        /* \"#utility.yul\":6760:6761   */\n      0x01\n        /* \"#utility.yul\":6757:6758   */\n      dup2\n        /* \"#utility.yul\":6753:6762   */\n      add\n        /* \"#utility.yul\":6748:6762   */\n      swap1\n      pop\n        /* \"#utility.yul\":6713:7160   */\n      jump(tag_170)\n    tag_172:\n        /* \"#utility.yul\":6717:6731   */\n      pop\n        /* \"#utility.yul\":7176:7180   */\n      dup3\n        /* \"#utility.yul\":7169:7180   */\n      swap8\n      pop\n        /* \"#utility.yul\":7196:7199   */\n      dup8\n        /* \"#utility.yul\":7189:7199   */\n      swap6\n      pop\n        /* \"#utility.yul\":6256:7205   */\n      pop\n      pop\n      pop\n      pop\n      pop\n        /* \"#utility.yul\":6078:7205   */\n      swap3\n      swap2\n      pop\n      pop\n      jump\t// out\n        /* \"#utility.yul\":7211:7692   */\n    tag_9:\n        /* \"#utility.yul\":7408:7412   */\n      0x00\n        /* \"#utility.yul\":7446:7448   */\n      0x20\n        /* \"#utility.yul\":7435:7444   */\n      dup3\n        /* \"#utility.yul\":7431:7449   */\n      add\n        /* \"#utility.yul\":7423:7449   */\n      swap1\n      pop\n        /* \"#utility.yul\":7495:7504   */\n      dup2\n        /* \"#utility.yul\":7489:7493   */\n      dup2\n        /* \"#utility.yul\":7485:7505   */\n      sub\n        /* \"#utility.yul\":7481:7482   */\n      0x00\n        /* \"#utility.yul\":7470:7479   */\n      dup4\n        /* \"#utility.yul\":7466:7483   */\n      add\n        /* \"#utility.yul\":7459:7506   */\n      mstore\n        /* \"#utility.yul\":7523:7685   */\n      tag_176\n        /* \"#utility.yul\":7680:7684   */\n      dup2\n        /* \"#utility.yul\":7671:7677   */\n      dup5\n        /* \"#utility.yul\":7523:7685   */\n      tag_68\n      jump\t// in\n    tag_176:\n        /* \"#utility.yul\":7515:7685   */\n      swap1\n      pop\n        /* \"#utility.yul\":7211:7692   */\n      swap3\n      swap2\n      pop\n      pop\n      jump\t// out\n        /* \"#utility.yul\":7698:7773   */\n    tag_69:\n        /* \"#utility.yul\":7731:7737   */\n      0x00\n        /* \"#utility.yul\":7764:7766   */\n      0x40\n        /* \"#utility.yul\":7758:7767   */\n      mload\n        /* \"#utility.yul\":7748:7767   */\n      swap1\n      pop\n        /* \"#utility.yul\":7698:7773   */\n      swap1\n      jump\t// out\n        /* \"#utility.yul\":7779:7896   */\n    tag_70:\n        /* \"#utility.yul\":7888:7889   */\n      0x00\n        /* \"#utility.yul\":7885:7886   */\n      dup1\n        /* \"#utility.yul\":7878:7890   */\n      revert\n        /* \"#utility.yul\":7902:8019   */\n    tag_71:\n        /* \"#utility.yul\":8011:8012   */\n      0x00\n        /* \"#utility.yul\":8008:8009   */\n      dup1\n        /* \"#utility.yul\":8001:8013   */\n      revert\n        /* \"#utility.yul\":8025:8142   */\n    tag_72:\n        /* \"#utility.yul\":8134:8135   */\n      0x00\n        /* \"#utility.yul\":8131:8132   */\n      dup1\n        /* \"#utility.yul\":8124:8136   */\n      revert\n        /* \"#utility.yul\":8148:8265   */\n    tag_73:\n        /* \"#utility.yul\":8257:8258   */\n      0x00\n        /* \"#utility.yul\":8254:8255   */\n      dup1\n        /* \"#utility.yul\":8247:8259   */\n      revert\n        /* \"#utility.yul\":8271:8451   */\n    tag_74:\n        /* \"#utility.yul\":8319:8396   */\n      0x4e487b7100000000000000000000000000000000000000000000000000000000\n        /* \"#utility.yul\":8316:8317   */\n      0x00\n        /* \"#utility.yul\":8309:8397   */\n      mstore\n        /* \"#utility.yul\":8416:8420   */\n      0x41\n        /* \"#utility.yul\":8413:8414   */\n      0x04\n        /* \"#utility.yul\":8406:8421   */\n      mstore\n        /* \"#utility.yul\":8440:8444   */\n      0x24\n        /* \"#utility.yul\":8437:8438   */\n      0x00\n        /* \"#utility.yul\":8430:8445   */\n      revert\n        /* \"#utility.yul\":8457:8738   */\n    tag_75:\n        /* \"#utility.yul\":8540:8567   */\n      tag_184\n        /* \"#utility.yul\":8562:8566   */\n      dup3\n        /* \"#utility.yul\":8540:8567   */\n      tag_53\n      jump\t// in\n    tag_184:\n        /* \"#utility.yul\":8532:8538   */\n      dup2\n        /* \"#utility.yul\":8528:8568   */\n      add\n        /* \"#utility.yul\":8670:8676   */\n      dup2\n        /* \"#utility.yul\":8658:8668   */\n      dup2\n        /* \"#utility.yul\":8655:8677   */\n      lt\n        /* \"#utility.yul\":8634:8652   */\n      0xffffffffffffffff\n        /* \"#utility.yul\":8622:8632   */\n      dup3\n        /* \"#utility.yul\":8619:8653   */\n      gt\n        /* \"#utility.yul\":8616:8678   */\n      or\n        /* \"#utility.yul\":8613:8701   */\n      iszero\n      tag_185\n      jumpi\n        /* \"#utility.yul\":8681:8699   */\n      tag_186\n      tag_74\n      jump\t// in\n    tag_186:\n        /* \"#utility.yul\":8613:8701   */\n    tag_185:\n        /* \"#utility.yul\":8721:8731   */\n      dup1\n        /* \"#utility.yul\":8717:8719   */\n      0x40\n        /* \"#utility.yul\":8710:8732   */\n      mstore\n        /* \"#utility.yul\":8500:8738   */\n      pop\n        /* \"#utility.yul\":8457:8738   */\n      pop\n      pop\n      jump\t// out\n        /* \"#utility.yul\":8744:8873   */\n    tag_76:\n        /* \"#utility.yul\":8778:8784   */\n      0x00\n        /* \"#utility.yul\":8805:8825   */\n      tag_188\n      tag_69\n      jump\t// in\n    tag_188:\n        /* \"#utility.yul\":8795:8825   */\n      swap1\n      pop\n        /* \"#utility.yul\":8834:8867   */\n      tag_189\n        /* \"#utility.yul\":8862:8866   */\n      dup3\n        /* \"#utility.yul\":8854:8860   */\n      dup3\n        /* \"#utility.yul\":8834:8867   */\n      tag_75\n      jump\t// in\n    tag_189:\n        /* \"#utility.yul\":8744:8873   */\n      swap2\n      swap1\n      pop\n      jump\t// out\n        /* \"#utility.yul\":8879:9187   */\n    tag_77:\n        /* \"#utility.yul\":8941:8945   */\n      0x00\n        /* \"#utility.yul\":9031:9049   */\n      0xffffffffffffffff\n        /* \"#utility.yul\":9023:9029   */\n      dup3\n        /* \"#utility.yul\":9020:9050   */\n      gt\n        /* \"#utility.yul\":9017:9073   */\n      iszero\n      tag_191\n      jumpi\n        /* \"#utility.yul\":9053:9071   */\n      tag_192\n      tag_74\n      jump\t// in\n    tag_192:\n        /* \"#utility.yul\":9017:9073   */\n    tag_191:\n        /* \"#utility.yul\":9091:9120   */\n      tag_193\n        /* \"#utility.yul\":9113:9119   */\n      dup3\n        /* \"#utility.yul\":9091:9120   */\n      tag_53\n      jump\t// in\n    tag_193:\n        /* \"#utility.yul\":9083:9120   */\n      swap1\n      pop\n        /* \"#utility.yul\":9175:9179   */\n      0x20\n        /* \"#utility.yul\":9169:9173   */\n      dup2\n        /* \"#utility.yul\":9165:9180   */\n      add\n        /* \"#utility.yul\":9157:9180   */\n      swap1\n      pop\n        /* \"#utility.yul\":8879:9187   */\n      swap2\n      swap1\n      pop\n      jump\t// out\n        /* \"#utility.yul\":9193:9341   */\n    tag_78:\n        /* \"#utility.yul\":9291:9297   */\n      dup3\n        /* \"#utility.yul\":9286:9289   */\n      dup2\n        /* \"#utility.yul\":9281:9284   */\n      dup4\n        /* \"#utility.yul\":9268:9298   */\n      calldatacopy\n        /* \"#utility.yul\":9332:9333   */\n      0x00\n        /* \"#utility.yul\":9323:9329   */\n      dup4\n        /* \"#utility.yul\":9318:9321   */\n      dup4\n        /* \"#utility.yul\":9314:9330   */\n      add\n        /* \"#utility.yul\":9307:9334   */\n      mstore\n        /* \"#utility.yul\":9193:9341   */\n      pop\n      pop\n      pop\n      jump\t// out\n        /* \"#utility.yul\":9347:9772   */\n    tag_79:\n        /* \"#utility.yul\":9425:9430   */\n      0x00\n        /* \"#utility.yul\":9450:9516   */\n      tag_196\n        /* \"#utility.yul\":9466:9515   */\n      tag_197\n        /* \"#utility.yul\":9508:9514   */\n      dup5\n        /* \"#utility.yul\":9466:9515   */\n      tag_77\n      jump\t// in\n    tag_197:\n        /* \"#utility.yul\":9450:9516   */\n      tag_76\n      jump\t// in\n    tag_196:\n        /* \"#utility.yul\":9441:9516   */\n      swap1\n      pop\n        /* \"#utility.yul\":9539:9545   */\n      dup3\n        /* \"#utility.yul\":9532:9537   */\n      dup2\n        /* \"#utility.yul\":9525:9546   */\n      mstore\n        /* \"#utility.yul\":9577:9581   */\n      0x20\n        /* \"#utility.yul\":9570:9575   */\n      dup2\n        /* \"#utility.yul\":9566:9582   */\n      add\n        /* \"#utility.yul\":9615:9618   */\n      dup5\n        /* \"#utility.yul\":9606:9612   */\n      dup5\n        /* \"#utility.yul\":9601:9604   */\n      dup5\n        /* \"#utility.yul\":9597:9613   */\n      add\n        /* \"#utility.yul\":9594:9619   */\n      gt\n        /* \"#utility.yul\":9591:9703   */\n      iszero\n      tag_198\n      jumpi\n        /* \"#utility.yul\":9622:9701   */\n      tag_199\n      tag_73\n      jump\t// in\n    tag_199:\n        /* \"#utility.yul\":9591:9703   */\n    tag_198:\n        /* \"#utility.yul\":9712:9766   */\n      tag_200\n        /* \"#utility.yul\":9759:9765   */\n      dup5\n        /* \"#utility.yul\":9754:9757   */\n      dup3\n        /* \"#utility.yul\":9749:9752   */\n      dup6\n        /* \"#utility.yul\":9712:9766   */\n      tag_78\n      jump\t// in\n    tag_200:\n        /* \"#utility.yul\":9431:9772   */\n      pop\n        /* \"#utility.yul\":9347:9772   */\n      swap4\n      swap3\n      pop\n      pop\n      pop\n      jump\t// out\n        /* \"#utility.yul\":9792:10132   */\n    tag_80:\n        /* \"#utility.yul\":9848:9853   */\n      0x00\n        /* \"#utility.yul\":9897:9900   */\n      dup3\n        /* \"#utility.yul\":9890:9894   */\n      0x1f\n        /* \"#utility.yul\":9882:9888   */\n      dup4\n        /* \"#utility.yul\":9878:9895   */\n      add\n        /* \"#utility.yul\":9874:9901   */\n      slt\n        /* \"#utility.yul\":9864:9986   */\n      tag_202\n      jumpi\n        /* \"#utility.yul\":9905:9984   */\n      tag_203\n      tag_72\n      jump\t// in\n    tag_203:\n        /* \"#utility.yul\":9864:9986   */\n    tag_202:\n        /* \"#utility.yul\":10022:10028   */\n      dup2\n        /* \"#utility.yul\":10009:10029   */\n      calldataload\n        /* \"#utility.yul\":10047:10126   */\n      tag_204\n        /* \"#utility.yul\":10122:10125   */\n      dup5\n        /* \"#utility.yul\":10114:10120   */\n      dup3\n        /* \"#utility.yul\":10107:10111   */\n      0x20\n        /* \"#utility.yul\":10099:10105   */\n      dup7\n        /* \"#utility.yul\":10095:10112   */\n      add\n        /* \"#utility.yul\":10047:10126   */\n      tag_79\n      jump\t// in\n    tag_204:\n        /* \"#utility.yul\":10038:10126   */\n      swap2\n      pop\n        /* \"#utility.yul\":9854:10132   */\n      pop\n        /* \"#utility.yul\":9792:10132   */\n      swap3\n      swap2\n      pop\n      pop\n      jump\t// out\n        /* \"#utility.yul\":10138:10647   */\n    tag_12:\n        /* \"#utility.yul\":10207:10213   */\n      0x00\n        /* \"#utility.yul\":10256:10258   */\n      0x20\n        /* \"#utility.yul\":10244:10253   */\n      dup3\n        /* \"#utility.yul\":10235:10242   */\n      dup5\n        /* \"#utility.yul\":10231:10254   */\n      sub\n        /* \"#utility.yul\":10227:10259   */\n      slt\n        /* \"#utility.yul\":10224:10343   */\n      iszero\n      tag_206\n      jumpi\n        /* \"#utility.yul\":10262:10341   */\n      tag_207\n      tag_70\n      jump\t// in\n    tag_207:\n        /* \"#utility.yul\":10224:10343   */\n    tag_206:\n        /* \"#utility.yul\":10410:10411   */\n      0x00\n        /* \"#utility.yul\":10399:10408   */\n      dup3\n        /* \"#utility.yul\":10395:10412   */\n      add\n        /* \"#utility.yul\":10382:10413   */\n      calldataload\n        /* \"#utility.yul\":10440:10458   */\n      0xffffffffffffffff\n        /* \"#utility.yul\":10432:10438   */\n      dup2\n        /* \"#utility.yul\":10429:10459   */\n      gt\n        /* \"#utility.yul\":10426:10543   */\n      iszero\n      tag_208\n      jumpi\n        /* \"#utility.yul\":10462:10541   */\n      tag_209\n      tag_71\n      jump\t// in\n    tag_209:\n        /* \"#utility.yul\":10426:10543   */\n    tag_208:\n        /* \"#utility.yul\":10567:10630   */\n      tag_210\n        /* \"#utility.yul\":10622:10629   */\n      dup5\n        /* \"#utility.yul\":10613:10619   */\n      dup3\n        /* \"#utility.yul\":10602:10611   */\n      dup6\n        /* \"#utility.yul\":10598:10620   */\n      add\n        /* \"#utility.yul\":10567:10630   */\n      tag_80\n      jump\t// in\n    tag_210:\n        /* \"#utility.yul\":10557:10630   */\n      swap2\n      pop\n        /* \"#utility.yul\":10353:10640   */\n      pop\n        /* \"#utility.yul\":10138:10647   */\n      swap3\n      swap2\n      pop\n      pop\n      jump\t// out\n        /* \"#utility.yul\":10717:12396   */\n    tag_81:\n        /* \"#utility.yul\":10840:10843   */\n      0x00\n        /* \"#utility.yul\":10876:10880   */\n      0xe0\n        /* \"#utility.yul\":10871:10874   */\n      dup4\n        /* \"#utility.yul\":10867:10881   */\n      add\n        /* \"#utility.yul\":10961:10965   */\n      0x00\n        /* \"#utility.yul\":10954:10959   */\n      dup4\n        /* \"#utility.yul\":10950:10966   */\n      add\n        /* \"#utility.yul\":10944:10967   */\n      mload\n        /* \"#utility.yul\":10980:11043   */\n      tag_212\n        /* \"#utility.yul\":11037:11041   */\n      0x00\n        /* \"#utility.yul\":11032:11035   */\n      dup7\n        /* \"#utility.yul\":11028:11042   */\n      add\n        /* \"#utility.yul\":11014:11026   */\n      dup3\n        /* \"#utility.yul\":10980:11043   */\n      tag_46\n      jump\t// in\n    tag_212:\n        /* \"#utility.yul\":10891:11053   */\n      pop\n        /* \"#utility.yul\":11144:11148   */\n      0x20\n        /* \"#utility.yul\":11137:11142   */\n      dup4\n        /* \"#utility.yul\":11133:11149   */\n      add\n        /* \"#utility.yul\":11127:11150   */\n      mload\n        /* \"#utility.yul\":11163:11226   */\n      tag_213\n        /* \"#utility.yul\":11220:11224   */\n      0x20\n        /* \"#utility.yul\":11215:11218   */\n      dup7\n        /* \"#utility.yul\":11211:11225   */\n      add\n        /* \"#utility.yul\":11197:11209   */\n      dup3\n        /* \"#utility.yul\":11163:11226   */\n      tag_49\n      jump\t// in\n    tag_213:\n        /* \"#utility.yul\":11063:11236   */\n      pop\n        /* \"#utility.yul\":11319:11323   */\n      0x40\n        /* \"#utility.yul\":11312:11317   */\n      dup4\n        /* \"#utility.yul\":11308:11324   */\n      add\n        /* \"#utility.yul\":11302:11325   */\n      mload\n        /* \"#utility.yul\":11372:11375   */\n      dup5\n        /* \"#utility.yul\":11366:11370   */\n      dup3\n        /* \"#utility.yul\":11362:11376   */\n      sub\n        /* \"#utility.yul\":11355:11359   */\n      0x40\n        /* \"#utility.yul\":11350:11353   */\n      dup7\n        /* \"#utility.yul\":11346:11360   */\n      add\n        /* \"#utility.yul\":11339:11377   */\n      mstore\n        /* \"#utility.yul\":11398:11471   */\n      tag_214\n        /* \"#utility.yul\":11466:11470   */\n      dup3\n        /* \"#utility.yul\":11452:11464   */\n      dup3\n        /* \"#utility.yul\":11398:11471   */\n      tag_54\n      jump\t// in\n    tag_214:\n        /* \"#utility.yul\":11390:11471   */\n      swap2\n      pop\n        /* \"#utility.yul\":11246:11482   */\n      pop\n        /* \"#utility.yul\":11571:11575   */\n      0x60\n        /* \"#utility.yul\":11564:11569   */\n      dup4\n        /* \"#utility.yul\":11560:11576   */\n      add\n        /* \"#utility.yul\":11554:11577   */\n      mload\n        /* \"#utility.yul\":11624:11627   */\n      dup5\n        /* \"#utility.yul\":11618:11622   */\n      dup3\n        /* \"#utility.yul\":11614:11628   */\n      sub\n        /* \"#utility.yul\":11607:11611   */\n      0x60\n        /* \"#utility.yul\":11602:11605   */\n      dup7\n        /* \"#utility.yul\":11598:11612   */\n      add\n        /* \"#utility.yul\":11591:11629   */\n      mstore\n        /* \"#utility.yul\":11650:11723   */\n      tag_215\n        /* \"#utility.yul\":11718:11722   */\n      dup3\n        /* \"#utility.yul\":11704:11716   */\n      dup3\n        /* \"#utility.yul\":11650:11723   */\n      tag_54\n      jump\t// in\n    tag_215:\n        /* \"#utility.yul\":11642:11723   */\n      swap2\n      pop\n        /* \"#utility.yul\":11492:11734   */\n      pop\n        /* \"#utility.yul\":11819:11823   */\n      0x80\n        /* \"#utility.yul\":11812:11817   */\n      dup4\n        /* \"#utility.yul\":11808:11824   */\n      add\n        /* \"#utility.yul\":11802:11825   */\n      mload\n        /* \"#utility.yul\":11838:11901   */\n      tag_216\n        /* \"#utility.yul\":11895:11899   */\n      0x80\n        /* \"#utility.yul\":11890:11893   */\n      dup7\n        /* \"#utility.yul\":11886:11900   */\n      add\n        /* \"#utility.yul\":11872:11884   */\n      dup3\n        /* \"#utility.yul\":11838:11901   */\n      tag_46\n      jump\t// in\n    tag_216:\n        /* \"#utility.yul\":11744:11911   */\n      pop\n        /* \"#utility.yul\":11999:12003   */\n      0xa0\n        /* \"#utility.yul\":11992:11997   */\n      dup4\n        /* \"#utility.yul\":11988:12004   */\n      add\n        /* \"#utility.yul\":11982:12005   */\n      mload\n        /* \"#utility.yul\":12018:12075   */\n      tag_217\n        /* \"#utility.yul\":12069:12073   */\n      0xa0\n        /* \"#utility.yul\":12064:12067   */\n      dup7\n        /* \"#utility.yul\":12060:12074   */\n      add\n        /* \"#utility.yul\":12046:12058   */\n      dup3\n        /* \"#utility.yul\":12018:12075   */\n      tag_56\n      jump\t// in\n    tag_217:\n        /* \"#utility.yul\":11921:12085   */\n      pop\n        /* \"#utility.yul\":12176:12180   */\n      0xc0\n        /* \"#utility.yul\":12169:12174   */\n      dup4\n        /* \"#utility.yul\":12165:12181   */\n      add\n        /* \"#utility.yul\":12159:12182   */\n      mload\n        /* \"#utility.yul\":12229:12232   */\n      dup5\n        /* \"#utility.yul\":12223:12227   */\n      dup3\n        /* \"#utility.yul\":12219:12233   */\n      sub\n        /* \"#utility.yul\":12212:12216   */\n      0xc0\n        /* \"#utility.yul\":12207:12210   */\n      dup7\n        /* \"#utility.yul\":12203:12217   */\n      add\n        /* \"#utility.yul\":12196:12234   */\n      mstore\n        /* \"#utility.yul\":12255:12358   */\n      tag_218\n        /* \"#utility.yul\":12353:12357   */\n      dup3\n        /* \"#utility.yul\":12339:12351   */\n      dup3\n        /* \"#utility.yul\":12255:12358   */\n      tag_64\n      jump\t// in\n    tag_218:\n        /* \"#utility.yul\":12247:12358   */\n      swap2\n      pop\n        /* \"#utility.yul\":12095:12369   */\n      pop\n        /* \"#utility.yul\":12386:12390   */\n      dup1\n        /* \"#utility.yul\":12379:12390   */\n      swap2\n      pop\n        /* \"#utility.yul\":10845:12396   */\n      pop\n        /* \"#utility.yul\":10717:12396   */\n      swap3\n      swap2\n      pop\n      pop\n      jump\t// out\n        /* \"#utility.yul\":12402:12783   */\n    tag_15:\n        /* \"#utility.yul\":12549:12553   */\n      0x00\n        /* \"#utility.yul\":12587:12589   */\n      0x20\n        /* \"#utility.yul\":12576:12585   */\n      dup3\n        /* \"#utility.yul\":12572:12590   */\n      add\n        /* \"#utility.yul\":12564:12590   */\n      swap1\n      pop\n        /* \"#utility.yul\":12636:12645   */\n      dup2\n        /* \"#utility.yul\":12630:12634   */\n      dup2\n        /* \"#utility.yul\":12626:12646   */\n      sub\n        /* \"#utility.yul\":12622:12623   */\n      0x00\n        /* \"#utility.yul\":12611:12620   */\n      dup4\n        /* \"#utility.yul\":12607:12624   */\n      add\n        /* \"#utility.yul\":12600:12647   */\n      mstore\n        /* \"#utility.yul\":12664:12776   */\n      tag_220\n        /* \"#utility.yul\":12771:12775   */\n      dup2\n        /* \"#utility.yul\":12762:12768   */\n      dup5\n        /* \"#utility.yul\":12664:12776   */\n      tag_81\n      jump\t// in\n    tag_220:\n        /* \"#utility.yul\":12656:12776   */\n      swap1\n      pop\n        /* \"#utility.yul\":12402:12783   */\n      swap3\n      swap2\n      pop\n      pop\n      jump\t// out\n        /* \"#utility.yul\":12789:13110   */\n    tag_82:\n        /* \"#utility.yul\":12876:12880   */\n      0x00\n        /* \"#utility.yul\":12966:12984   */\n      0xffffffffffffffff\n        /* \"#utility.yul\":12958:12964   */\n      dup3\n        /* \"#utility.yul\":12955:12985   */\n      gt\n        /* \"#utility.yul\":12952:13008   */\n      iszero\n      tag_222\n      jumpi\n        /* \"#utility.yul\":12988:13006   */\n      tag_223\n      tag_74\n      jump\t// in\n    tag_223:\n        /* \"#utility.yul\":12952:13008   */\n    tag_222:\n        /* \"#utility.yul\":13038:13042   */\n      0x20\n        /* \"#utility.yul\":13030:13036   */\n      dup3\n        /* \"#utility.yul\":13026:13043   */\n      mul\n        /* \"#utility.yul\":13018:13043   */\n      swap1\n      pop\n        /* \"#utility.yul\":13098:13102   */\n      0x20\n        /* \"#utility.yul\":13092:13096   */\n      dup2\n        /* \"#utility.yul\":13088:13103   */\n      add\n        /* \"#utility.yul\":13080:13103   */\n      swap1\n      pop\n        /* \"#utility.yul\":12789:13110   */\n      swap2\n      swap1\n      pop\n      jump\t// out\n        /* \"#utility.yul\":13116:13233   */\n    tag_83:\n        /* \"#utility.yul\":13225:13226   */\n      0x00\n        /* \"#utility.yul\":13222:13223   */\n      dup1\n        /* \"#utility.yul\":13215:13227   */\n      revert\n        /* \"#utility.yul\":13255:14200   */\n    tag_84:\n        /* \"#utility.yul\":13361:13366   */\n      0x00\n        /* \"#utility.yul\":13386:13477   */\n      tag_226\n        /* \"#utility.yul\":13402:13476   */\n      tag_227\n        /* \"#utility.yul\":13469:13475   */\n      dup5\n        /* \"#utility.yul\":13402:13476   */\n      tag_82\n      jump\t// in\n    tag_227:\n        /* \"#utility.yul\":13386:13477   */\n      tag_76\n      jump\t// in\n    tag_226:\n        /* \"#utility.yul\":13377:13477   */\n      swap1\n      pop\n        /* \"#utility.yul\":13497:13502   */\n      dup1\n        /* \"#utility.yul\":13526:13532   */\n      dup4\n        /* \"#utility.yul\":13519:13524   */\n      dup3\n        /* \"#utility.yul\":13512:13533   */\n      mstore\n        /* \"#utility.yul\":13560:13564   */\n      0x20\n        /* \"#utility.yul\":13553:13558   */\n      dup3\n        /* \"#utility.yul\":13549:13565   */\n      add\n        /* \"#utility.yul\":13542:13565   */\n      swap1\n      pop\n        /* \"#utility.yul\":13613:13617   */\n      0x20\n        /* \"#utility.yul\":13605:13611   */\n      dup5\n        /* \"#utility.yul\":13601:13618   */\n      mul\n        /* \"#utility.yul\":13593:13599   */\n      dup4\n        /* \"#utility.yul\":13589:13619   */\n      add\n        /* \"#utility.yul\":13642:13645   */\n      dup6\n        /* \"#utility.yul\":13634:13640   */\n      dup2\n        /* \"#utility.yul\":13631:13646   */\n      gt\n        /* \"#utility.yul\":13628:13750   */\n      iszero\n      tag_228\n      jumpi\n        /* \"#utility.yul\":13661:13740   */\n      tag_229\n      tag_83\n      jump\t// in\n    tag_229:\n        /* \"#utility.yul\":13628:13750   */\n    tag_228:\n        /* \"#utility.yul\":13776:13782   */\n      dup4\n        /* \"#utility.yul\":13759:14194   */\n    tag_230:\n        /* \"#utility.yul\":13793:13799   */\n      dup2\n        /* \"#utility.yul\":13788:13791   */\n      dup2\n        /* \"#utility.yul\":13785:13800   */\n      lt\n        /* \"#utility.yul\":13759:14194   */\n      iszero\n      tag_232\n      jumpi\n        /* \"#utility.yul\":13882:13885   */\n      dup1\n        /* \"#utility.yul\":13869:13886   */\n      calldataload\n        /* \"#utility.yul\":13918:13936   */\n      0xffffffffffffffff\n        /* \"#utility.yul\":13905:13916   */\n      dup2\n        /* \"#utility.yul\":13902:13937   */\n      gt\n        /* \"#utility.yul\":13899:14021   */\n      iszero\n      tag_233\n      jumpi\n        /* \"#utility.yul\":13940:14019   */\n      tag_234\n      tag_72\n      jump\t// in\n    tag_234:\n        /* \"#utility.yul\":13899:14021   */\n    tag_233:\n        /* \"#utility.yul\":14064:14075   */\n      dup1\n        /* \"#utility.yul\":14056:14062   */\n      dup7\n        /* \"#utility.yul\":14052:14076   */\n      add\n        /* \"#utility.yul\":14102:14149   */\n      tag_235\n        /* \"#utility.yul\":14145:14148   */\n      dup10\n        /* \"#utility.yul\":14133:14143   */\n      dup3\n        /* \"#utility.yul\":14102:14149   */\n      tag_80\n      jump\t// in\n    tag_235:\n        /* \"#utility.yul\":14097:14100   */\n      dup6\n        /* \"#utility.yul\":14090:14150   */\n      mstore\n        /* \"#utility.yul\":14179:14183   */\n      0x20\n        /* \"#utility.yul\":14174:14177   */\n      dup6\n        /* \"#utility.yul\":14170:14184   */\n      add\n        /* \"#utility.yul\":14163:14184   */\n      swap5\n      pop\n        /* \"#utility.yul\":13835:14194   */\n      pop\n      pop\n        /* \"#utility.yul\":13819:13823   */\n      0x20\n        /* \"#utility.yul\":13814:13817   */\n      dup2\n        /* \"#utility.yul\":13810:13824   */\n      add\n        /* \"#utility.yul\":13803:13824   */\n      swap1\n      pop\n        /* \"#utility.yul\":13759:14194   */\n      jump(tag_230)\n    tag_232:\n        /* \"#utility.yul\":13763:13784   */\n      pop\n        /* \"#utility.yul\":13367:14200   */\n      pop\n      pop\n        /* \"#utility.yul\":13255:14200   */\n      swap4\n      swap3\n      pop\n      pop\n      pop\n      jump\t// out\n        /* \"#utility.yul\":14222:14612   */\n    tag_85:\n        /* \"#utility.yul\":14303:14308   */\n      0x00\n        /* \"#utility.yul\":14352:14355   */\n      dup3\n        /* \"#utility.yul\":14345:14349   */\n      0x1f\n        /* \"#utility.yul\":14337:14343   */\n      dup4\n        /* \"#utility.yul\":14333:14350   */\n      add\n        /* \"#utility.yul\":14329:14356   */\n      slt\n        /* \"#utility.yul\":14319:14441   */\n      tag_237\n      jumpi\n        /* \"#utility.yul\":14360:14439   */\n      tag_238\n      tag_72\n      jump\t// in\n    tag_238:\n        /* \"#utility.yul\":14319:14441   */\n    tag_237:\n        /* \"#utility.yul\":14477:14483   */\n      dup2\n        /* \"#utility.yul\":14464:14484   */\n      calldataload\n        /* \"#utility.yul\":14502:14606   */\n      tag_239\n        /* \"#utility.yul\":14602:14605   */\n      dup5\n        /* \"#utility.yul\":14594:14600   */\n      dup3\n        /* \"#utility.yul\":14587:14591   */\n      0x20\n        /* \"#utility.yul\":14579:14585   */\n      dup7\n        /* \"#utility.yul\":14575:14592   */\n      add\n        /* \"#utility.yul\":14502:14606   */\n      tag_84\n      jump\t// in\n    tag_239:\n        /* \"#utility.yul\":14493:14606   */\n      swap2\n      pop\n        /* \"#utility.yul\":14309:14612   */\n      pop\n        /* \"#utility.yul\":14222:14612   */\n      swap3\n      swap2\n      pop\n      pop\n      jump\t// out\n        /* \"#utility.yul\":14618:15827   */\n    tag_18:\n        /* \"#utility.yul\":14750:14756   */\n      0x00\n        /* \"#utility.yul\":14758:14764   */\n      dup1\n        /* \"#utility.yul\":14766:14772   */\n      0x00\n        /* \"#utility.yul\":14815:14817   */\n      0x60\n        /* \"#utility.yul\":14803:14812   */\n      dup5\n        /* \"#utility.yul\":14794:14801   */\n      dup7\n        /* \"#utility.yul\":14790:14813   */\n      sub\n        /* \"#utility.yul\":14786:14818   */\n      slt\n        /* \"#utility.yul\":14783:14902   */\n      iszero\n      tag_241\n      jumpi\n        /* \"#utility.yul\":14821:14900   */\n      tag_242\n      tag_70\n      jump\t// in\n    tag_242:\n        /* \"#utility.yul\":14783:14902   */\n    tag_241:\n        /* \"#utility.yul\":14969:14970   */\n      0x00\n        /* \"#utility.yul\":14958:14967   */\n      dup5\n        /* \"#utility.yul\":14954:14971   */\n      add\n        /* \"#utility.yul\":14941:14972   */\n      calldataload\n        /* \"#utility.yul\":14999:15017   */\n      0xffffffffffffffff\n        /* \"#utility.yul\":14991:14997   */\n      dup2\n        /* \"#utility.yul\":14988:15018   */\n      gt\n        /* \"#utility.yul\":14985:15102   */\n      iszero\n      tag_243\n      jumpi\n        /* \"#utility.yul\":15021:15100   */\n      tag_244\n      tag_71\n      jump\t// in\n    tag_244:\n        /* \"#utility.yul\":14985:15102   */\n    tag_243:\n        /* \"#utility.yul\":15126:15189   */\n      tag_245\n        /* \"#utility.yul\":15181:15188   */\n      dup7\n        /* \"#utility.yul\":15172:15178   */\n      dup3\n        /* \"#utility.yul\":15161:15170   */\n      dup8\n        /* \"#utility.yul\":15157:15179   */\n      add\n        /* \"#utility.yul\":15126:15189   */\n      tag_80\n      jump\t// in\n    tag_245:\n        /* \"#utility.yul\":15116:15189   */\n      swap4\n      pop\n        /* \"#utility.yul\":14912:15199   */\n      pop\n        /* \"#utility.yul\":15266:15268   */\n      0x20\n        /* \"#utility.yul\":15255:15264   */\n      dup5\n        /* \"#utility.yul\":15251:15269   */\n      add\n        /* \"#utility.yul\":15238:15270   */\n      calldataload\n        /* \"#utility.yul\":15297:15315   */\n      0xffffffffffffffff\n        /* \"#utility.yul\":15289:15295   */\n      dup2\n        /* \"#utility.yul\":15286:15316   */\n      gt\n        /* \"#utility.yul\":15283:15400   */\n      iszero\n      tag_246\n      jumpi\n        /* \"#utility.yul\":15319:15398   */\n      tag_247\n      tag_71\n      jump\t// in\n    tag_247:\n        /* \"#utility.yul\":15283:15400   */\n    tag_246:\n        /* \"#utility.yul\":15424:15487   */\n      tag_248\n        /* \"#utility.yul\":15479:15486   */\n      dup7\n        /* \"#utility.yul\":15470:15476   */\n      dup3\n        /* \"#utility.yul\":15459:15468   */\n      dup8\n        /* \"#utility.yul\":15455:15477   */\n      add\n        /* \"#utility.yul\":15424:15487   */\n      tag_80\n      jump\t// in\n    tag_248:\n        /* \"#utility.yul\":15414:15487   */\n      swap3\n      pop\n        /* \"#utility.yul\":15209:15497   */\n      pop\n        /* \"#utility.yul\":15564:15566   */\n      0x40\n        /* \"#utility.yul\":15553:15562   */\n      dup5\n        /* \"#utility.yul\":15549:15567   */\n      add\n        /* \"#utility.yul\":15536:15568   */\n      calldataload\n        /* \"#utility.yul\":15595:15613   */\n      0xffffffffffffffff\n        /* \"#utility.yul\":15587:15593   */\n      dup2\n        /* \"#utility.yul\":15584:15614   */\n      gt\n        /* \"#utility.yul\":15581:15698   */\n      iszero\n      tag_249\n      jumpi\n        /* \"#utility.yul\":15617:15696   */\n      tag_250\n      tag_71\n      jump\t// in\n    tag_250:\n        /* \"#utility.yul\":15581:15698   */\n    tag_249:\n        /* \"#utility.yul\":15722:15810   */\n      tag_251\n        /* \"#utility.yul\":15802:15809   */\n      dup7\n        /* \"#utility.yul\":15793:15799   */\n      dup3\n        /* \"#utility.yul\":15782:15791   */\n      dup8\n        /* \"#utility.yul\":15778:15800   */\n      add\n        /* \"#utility.yul\":15722:15810   */\n      tag_85\n      jump\t// in\n    tag_251:\n        /* \"#utility.yul\":15712:15810   */\n      swap2\n      pop\n        /* \"#utility.yul\":15507:15820   */\n      pop\n        /* \"#utility.yul\":14618:15827   */\n      swap3\n      pop\n      swap3\n      pop\n      swap3\n      jump\t// out\n        /* \"#utility.yul\":15833:16171   */\n    tag_86:\n        /* \"#utility.yul\":15937:15941   */\n      0x00\n        /* \"#utility.yul\":16027:16045   */\n      0xffffffffffffffff\n        /* \"#utility.yul\":16019:16025   */\n      dup3\n        /* \"#utility.yul\":16016:16046   */\n      gt\n        /* \"#utility.yul\":16013:16069   */\n      iszero\n      tag_253\n      jumpi\n        /* \"#utility.yul\":16049:16067   */\n      tag_254\n      tag_74\n      jump\t// in\n    tag_254:\n        /* \"#utility.yul\":16013:16069   */\n    tag_253:\n        /* \"#utility.yul\":16099:16103   */\n      0x20\n        /* \"#utility.yul\":16091:16097   */\n      dup3\n        /* \"#utility.yul\":16087:16104   */\n      mul\n        /* \"#utility.yul\":16079:16104   */\n      swap1\n      pop\n        /* \"#utility.yul\":16159:16163   */\n      0x20\n        /* \"#utility.yul\":16153:16157   */\n      dup2\n        /* \"#utility.yul\":16149:16164   */\n      add\n        /* \"#utility.yul\":16141:16164   */\n      swap1\n      pop\n        /* \"#utility.yul\":15833:16171   */\n      swap2\n      swap1\n      pop\n      jump\t// out\n        /* \"#utility.yul\":16177:16294   */\n    tag_87:\n        /* \"#utility.yul\":16286:16287   */\n      0x00\n        /* \"#utility.yul\":16283:16284   */\n      dup1\n        /* \"#utility.yul\":16276:16288   */\n      revert\n        /* \"#utility.yul\":16300:16417   */\n    tag_88:\n        /* \"#utility.yul\":16409:16410   */\n      0x00\n        /* \"#utility.yul\":16406:16407   */\n      dup1\n        /* \"#utility.yul\":16399:16411   */\n      revert\n        /* \"#utility.yul\":16423:16545   */\n    tag_89:\n        /* \"#utility.yul\":16496:16520   */\n      tag_258\n        /* \"#utility.yul\":16514:16519   */\n      dup2\n        /* \"#utility.yul\":16496:16520   */\n      tag_45\n      jump\t// in\n    tag_258:\n        /* \"#utility.yul\":16489:16494   */\n      dup2\n        /* \"#utility.yul\":16486:16521   */\n      eq\n        /* \"#utility.yul\":16476:16539   */\n      tag_259\n      jumpi\n        /* \"#utility.yul\":16535:16536   */\n      0x00\n        /* \"#utility.yul\":16532:16533   */\n      dup1\n        /* \"#utility.yul\":16525:16537   */\n      revert\n        /* \"#utility.yul\":16476:16539   */\n    tag_259:\n        /* \"#utility.yul\":16423:16545   */\n      pop\n      jump\t// out\n        /* \"#utility.yul\":16551:16694   */\n    tag_90:\n        /* \"#utility.yul\":16608:16613   */\n      0x00\n        /* \"#utility.yul\":16639:16645   */\n      dup2\n        /* \"#utility.yul\":16633:16646   */\n      mload\n        /* \"#utility.yul\":16624:16646   */\n      swap1\n      pop\n        /* \"#utility.yul\":16655:16688   */\n      tag_261\n        /* \"#utility.yul\":16682:16687   */\n      dup2\n        /* \"#utility.yul\":16655:16688   */\n      tag_89\n      jump\t// in\n    tag_261:\n        /* \"#utility.yul\":16551:16694   */\n      swap3\n      swap2\n      pop\n      pop\n      jump\t// out\n        /* \"#utility.yul\":16700:16822   */\n    tag_91:\n        /* \"#utility.yul\":16773:16797   */\n      tag_263\n        /* \"#utility.yul\":16791:16796   */\n      dup2\n        /* \"#utility.yul\":16773:16797   */\n      tag_48\n      jump\t// in\n    tag_263:\n        /* \"#utility.yul\":16766:16771   */\n      dup2\n        /* \"#utility.yul\":16763:16798   */\n      eq\n        /* \"#utility.yul\":16753:16816   */\n      tag_264\n      jumpi\n        /* \"#utility.yul\":16812:16813   */\n      0x00\n        /* \"#utility.yul\":16809:16810   */\n      dup1\n        /* \"#utility.yul\":16802:16814   */\n      revert\n        /* \"#utility.yul\":16753:16816   */\n    tag_264:\n        /* \"#utility.yul\":16700:16822   */\n      pop\n      jump\t// out\n        /* \"#utility.yul\":16828:16971   */\n    tag_92:\n        /* \"#utility.yul\":16885:16890   */\n      0x00\n        /* \"#utility.yul\":16916:16922   */\n      dup2\n        /* \"#utility.yul\":16910:16923   */\n      mload\n        /* \"#utility.yul\":16901:16923   */\n      swap1\n      pop\n        /* \"#utility.yul\":16932:16965   */\n      tag_266\n        /* \"#utility.yul\":16959:16964   */\n      dup2\n        /* \"#utility.yul\":16932:16965   */\n      tag_91\n      jump\t// in\n    tag_266:\n        /* \"#utility.yul\":16828:16971   */\n      swap3\n      swap2\n      pop\n      pop\n      jump\t// out\n        /* \"#utility.yul\":16977:17411   */\n    tag_93:\n        /* \"#utility.yul\":17066:17071   */\n      0x00\n        /* \"#utility.yul\":17091:17157   */\n      tag_268\n        /* \"#utility.yul\":17107:17156   */\n      tag_269\n        /* \"#utility.yul\":17149:17155   */\n      dup5\n        /* \"#utility.yul\":17107:17156   */\n      tag_77\n      jump\t// in\n    tag_269:\n        /* \"#utility.yul\":17091:17157   */\n      tag_76\n      jump\t// in\n    tag_268:\n        /* \"#utility.yul\":17082:17157   */\n      swap1\n      pop\n        /* \"#utility.yul\":17180:17186   */\n      dup3\n        /* \"#utility.yul\":17173:17178   */\n      dup2\n        /* \"#utility.yul\":17166:17187   */\n      mstore\n        /* \"#utility.yul\":17218:17222   */\n      0x20\n        /* \"#utility.yul\":17211:17216   */\n      dup2\n        /* \"#utility.yul\":17207:17223   */\n      add\n        /* \"#utility.yul\":17256:17259   */\n      dup5\n        /* \"#utility.yul\":17247:17253   */\n      dup5\n        /* \"#utility.yul\":17242:17245   */\n      dup5\n        /* \"#utility.yul\":17238:17254   */\n      add\n        /* \"#utility.yul\":17235:17260   */\n      gt\n        /* \"#utility.yul\":17232:17344   */\n      iszero\n      tag_270\n      jumpi\n        /* \"#utility.yul\":17263:17342   */\n      tag_271\n      tag_73\n      jump\t// in\n    tag_271:\n        /* \"#utility.yul\":17232:17344   */\n    tag_270:\n        /* \"#utility.yul\":17353:17405   */\n      tag_272\n        /* \"#utility.yul\":17398:17404   */\n      dup5\n        /* \"#utility.yul\":17393:17396   */\n      dup3\n        /* \"#utility.yul\":17388:17391   */\n      dup6\n        /* \"#utility.yul\":17353:17405   */\n      tag_52\n      jump\t// in\n    tag_272:\n        /* \"#utility.yul\":17072:17411   */\n      pop\n        /* \"#utility.yul\":16977:17411   */\n      swap4\n      swap3\n      pop\n      pop\n      pop\n      jump\t// out\n        /* \"#utility.yul\":17431:17786   */\n    tag_94:\n        /* \"#utility.yul\":17498:17503   */\n      0x00\n        /* \"#utility.yul\":17547:17550   */\n      dup3\n        /* \"#utility.yul\":17540:17544   */\n      0x1f\n        /* \"#utility.yul\":17532:17538   */\n      dup4\n        /* \"#utility.yul\":17528:17545   */\n      add\n        /* \"#utility.yul\":17524:17551   */\n      slt\n        /* \"#utility.yul\":17514:17636   */\n      tag_274\n      jumpi\n        /* \"#utility.yul\":17555:17634   */\n      tag_275\n      tag_72\n      jump\t// in\n    tag_275:\n        /* \"#utility.yul\":17514:17636   */\n    tag_274:\n        /* \"#utility.yul\":17665:17671   */\n      dup2\n        /* \"#utility.yul\":17659:17672   */\n      mload\n        /* \"#utility.yul\":17690:17780   */\n      tag_276\n        /* \"#utility.yul\":17776:17779   */\n      dup5\n        /* \"#utility.yul\":17768:17774   */\n      dup3\n        /* \"#utility.yul\":17761:17765   */\n      0x20\n        /* \"#utility.yul\":17753:17759   */\n      dup7\n        /* \"#utility.yul\":17749:17766   */\n      add\n        /* \"#utility.yul\":17690:17780   */\n      tag_93\n      jump\t// in\n    tag_276:\n        /* \"#utility.yul\":17681:17780   */\n      swap2\n      pop\n        /* \"#utility.yul\":17504:17786   */\n      pop\n        /* \"#utility.yul\":17431:17786   */\n      swap3\n      swap2\n      pop\n      pop\n      jump\t// out\n        /* \"#utility.yul\":17792:17908   */\n    tag_95:\n        /* \"#utility.yul\":17862:17883   */\n      tag_278\n        /* \"#utility.yul\":17877:17882   */\n      dup2\n        /* \"#utility.yul\":17862:17883   */\n      tag_55\n      jump\t// in\n    tag_278:\n        /* \"#utility.yul\":17855:17860   */\n      dup2\n        /* \"#utility.yul\":17852:17884   */\n      eq\n        /* \"#utility.yul\":17842:17902   */\n      tag_279\n      jumpi\n        /* \"#utility.yul\":17898:17899   */\n      0x00\n        /* \"#utility.yul\":17895:17896   */\n      dup1\n        /* \"#utility.yul\":17888:17900   */\n      revert\n        /* \"#utility.yul\":17842:17902   */\n    tag_279:\n        /* \"#utility.yul\":17792:17908   */\n      pop\n      jump\t// out\n        /* \"#utility.yul\":17914:18051   */\n    tag_96:\n        /* \"#utility.yul\":17968:17973   */\n      0x00\n        /* \"#utility.yul\":17999:18005   */\n      dup2\n        /* \"#utility.yul\":17993:18006   */\n      mload\n        /* \"#utility.yul\":17984:18006   */\n      swap1\n      pop\n        /* \"#utility.yul\":18015:18045   */\n      tag_281\n        /* \"#utility.yul\":18039:18044   */\n      dup2\n        /* \"#utility.yul\":18015:18045   */\n      tag_95\n      jump\t// in\n    tag_281:\n        /* \"#utility.yul\":17914:18051   */\n      swap3\n      swap2\n      pop\n      pop\n      jump\t// out\n        /* \"#utility.yul\":18057:18368   */\n    tag_97:\n        /* \"#utility.yul\":18134:18138   */\n      0x00\n        /* \"#utility.yul\":18224:18242   */\n      0xffffffffffffffff\n        /* \"#utility.yul\":18216:18222   */\n      dup3\n        /* \"#utility.yul\":18213:18243   */\n      gt\n        /* \"#utility.yul\":18210:18266   */\n      iszero\n      tag_283\n      jumpi\n        /* \"#utility.yul\":18246:18264   */\n      tag_284\n      tag_74\n      jump\t// in\n    tag_284:\n        /* \"#utility.yul\":18210:18266   */\n    tag_283:\n        /* \"#utility.yul\":18296:18300   */\n      0x20\n        /* \"#utility.yul\":18288:18294   */\n      dup3\n        /* \"#utility.yul\":18284:18301   */\n      mul\n        /* \"#utility.yul\":18276:18301   */\n      swap1\n      pop\n        /* \"#utility.yul\":18356:18360   */\n      0x20\n        /* \"#utility.yul\":18350:18354   */\n      dup2\n        /* \"#utility.yul\":18346:18361   */\n      add\n        /* \"#utility.yul\":18338:18361   */\n      swap1\n      pop\n        /* \"#utility.yul\":18057:18368   */\n      swap2\n      swap1\n      pop\n      jump\t// out\n        /* \"#utility.yul\":18374:18496   */\n    tag_98:\n        /* \"#utility.yul\":18447:18471   */\n      tag_286\n        /* \"#utility.yul\":18465:18470   */\n      dup2\n        /* \"#utility.yul\":18447:18471   */\n      tag_60\n      jump\t// in\n    tag_286:\n        /* \"#utility.yul\":18440:18445   */\n      dup2\n        /* \"#utility.yul\":18437:18472   */\n      eq\n        /* \"#utility.yul\":18427:18490   */\n      tag_287\n      jumpi\n        /* \"#utility.yul\":18486:18487   */\n      0x00\n        /* \"#utility.yul\":18483:18484   */\n      dup1\n        /* \"#utility.yul\":18476:18488   */\n      revert\n        /* \"#utility.yul\":18427:18490   */\n    tag_287:\n        /* \"#utility.yul\":18374:18496   */\n      pop\n      jump\t// out\n        /* \"#utility.yul\":18502:18645   */\n    tag_99:\n        /* \"#utility.yul\":18559:18564   */\n      0x00\n        /* \"#utility.yul\":18590:18596   */\n      dup2\n        /* \"#utility.yul\":18584:18597   */\n      mload\n        /* \"#utility.yul\":18575:18597   */\n      swap1\n      pop\n        /* \"#utility.yul\":18606:18639   */\n      tag_289\n        /* \"#utility.yul\":18633:18638   */\n      dup2\n        /* \"#utility.yul\":18606:18639   */\n      tag_98\n      jump\t// in\n    tag_289:\n        /* \"#utility.yul\":18502:18645   */\n      swap3\n      swap2\n      pop\n      pop\n      jump\t// out\n        /* \"#utility.yul\":18668:19400   */\n    tag_100:\n        /* \"#utility.yul\":18775:18780   */\n      0x00\n        /* \"#utility.yul\":18800:18881   */\n      tag_291\n        /* \"#utility.yul\":18816:18880   */\n      tag_292\n        /* \"#utility.yul\":18873:18879   */\n      dup5\n        /* \"#utility.yul\":18816:18880   */\n      tag_97\n      jump\t// in\n    tag_292:\n        /* \"#utility.yul\":18800:18881   */\n      tag_76\n      jump\t// in\n    tag_291:\n        /* \"#utility.yul\":18791:18881   */\n      swap1\n      pop\n        /* \"#utility.yul\":18901:18906   */\n      dup1\n        /* \"#utility.yul\":18930:18936   */\n      dup4\n        /* \"#utility.yul\":18923:18928   */\n      dup3\n        /* \"#utility.yul\":18916:18937   */\n      mstore\n        /* \"#utility.yul\":18964:18968   */\n      0x20\n        /* \"#utility.yul\":18957:18962   */\n      dup3\n        /* \"#utility.yul\":18953:18969   */\n      add\n        /* \"#utility.yul\":18946:18969   */\n      swap1\n      pop\n        /* \"#utility.yul\":19017:19021   */\n      0x20\n        /* \"#utility.yul\":19009:19015   */\n      dup5\n        /* \"#utility.yul\":19005:19022   */\n      mul\n        /* \"#utility.yul\":18997:19003   */\n      dup4\n        /* \"#utility.yul\":18993:19023   */\n      add\n        /* \"#utility.yul\":19046:19049   */\n      dup6\n        /* \"#utility.yul\":19038:19044   */\n      dup2\n        /* \"#utility.yul\":19035:19050   */\n      gt\n        /* \"#utility.yul\":19032:19154   */\n      iszero\n      tag_293\n      jumpi\n        /* \"#utility.yul\":19065:19144   */\n      tag_294\n      tag_83\n      jump\t// in\n    tag_294:\n        /* \"#utility.yul\":19032:19154   */\n    tag_293:\n        /* \"#utility.yul\":19180:19186   */\n      dup4\n        /* \"#utility.yul\":19163:19394   */\n    tag_295:\n        /* \"#utility.yul\":19197:19203   */\n      dup2\n        /* \"#utility.yul\":19192:19195   */\n      dup2\n        /* \"#utility.yul\":19189:19204   */\n      lt\n        /* \"#utility.yul\":19163:19394   */\n      iszero\n      tag_297\n      jumpi\n        /* \"#utility.yul\":19272:19275   */\n      dup1\n        /* \"#utility.yul\":19301:19349   */\n      tag_298\n        /* \"#utility.yul\":19345:19348   */\n      dup9\n        /* \"#utility.yul\":19333:19343   */\n      dup3\n        /* \"#utility.yul\":19301:19349   */\n      tag_99\n      jump\t// in\n    tag_298:\n        /* \"#utility.yul\":19296:19299   */\n      dup5\n        /* \"#utility.yul\":19289:19350   */\n      mstore\n        /* \"#utility.yul\":19379:19383   */\n      0x20\n        /* \"#utility.yul\":19374:19377   */\n      dup5\n        /* \"#utility.yul\":19370:19384   */\n      add\n        /* \"#utility.yul\":19363:19384   */\n      swap4\n      pop\n        /* \"#utility.yul\":19239:19394   */\n      pop\n        /* \"#utility.yul\":19223:19227   */\n      0x20\n        /* \"#utility.yul\":19218:19221   */\n      dup2\n        /* \"#utility.yul\":19214:19228   */\n      add\n        /* \"#utility.yul\":19207:19228   */\n      swap1\n      pop\n        /* \"#utility.yul\":19163:19394   */\n      jump(tag_295)\n    tag_297:\n        /* \"#utility.yul\":19167:19188   */\n      pop\n        /* \"#utility.yul\":18781:19400   */\n      pop\n      pop\n        /* \"#utility.yul\":18668:19400   */\n      swap4\n      swap3\n      pop\n      pop\n      pop\n      jump\t// out\n        /* \"#utility.yul\":19423:19808   */\n    tag_101:\n        /* \"#utility.yul\":19505:19510   */\n      0x00\n        /* \"#utility.yul\":19554:19557   */\n      dup3\n        /* \"#utility.yul\":19547:19551   */\n      0x1f\n        /* \"#utility.yul\":19539:19545   */\n      dup4\n        /* \"#utility.yul\":19535:19552   */\n      add\n        /* \"#utility.yul\":19531:19558   */\n      slt\n        /* \"#utility.yul\":19521:19643   */\n      tag_300\n      jumpi\n        /* \"#utility.yul\":19562:19641   */\n      tag_301\n      tag_72\n      jump\t// in\n    tag_301:\n        /* \"#utility.yul\":19521:19643   */\n    tag_300:\n        /* \"#utility.yul\":19672:19678   */\n      dup2\n        /* \"#utility.yul\":19666:19679   */\n      mload\n        /* \"#utility.yul\":19697:19802   */\n      tag_302\n        /* \"#utility.yul\":19798:19801   */\n      dup5\n        /* \"#utility.yul\":19790:19796   */\n      dup3\n        /* \"#utility.yul\":19783:19787   */\n      0x20\n        /* \"#utility.yul\":19775:19781   */\n      dup7\n        /* \"#utility.yul\":19771:19788   */\n      add\n        /* \"#utility.yul\":19697:19802   */\n      tag_100\n      jump\t// in\n    tag_302:\n        /* \"#utility.yul\":19688:19802   */\n      swap2\n      pop\n        /* \"#utility.yul\":19511:19808   */\n      pop\n        /* \"#utility.yul\":19423:19808   */\n      swap3\n      swap2\n      pop\n      pop\n      jump\t// out\n        /* \"#utility.yul\":19848:21854   */\n    tag_102:\n        /* \"#utility.yul\":19935:19940   */\n      0x00\n        /* \"#utility.yul\":19979:19983   */\n      0xe0\n        /* \"#utility.yul\":19967:19976   */\n      dup3\n        /* \"#utility.yul\":19962:19965   */\n      dup5\n        /* \"#utility.yul\":19958:19977   */\n      sub\n        /* \"#utility.yul\":19954:19984   */\n      slt\n        /* \"#utility.yul\":19951:20068   */\n      iszero\n      tag_304\n      jumpi\n        /* \"#utility.yul\":19987:20066   */\n      tag_305\n      tag_87\n      jump\t// in\n    tag_305:\n        /* \"#utility.yul\":19951:20068   */\n    tag_304:\n        /* \"#utility.yul\":20086:20107   */\n      tag_306\n        /* \"#utility.yul\":20102:20106   */\n      0xe0\n        /* \"#utility.yul\":20086:20107   */\n      tag_76\n      jump\t// in\n    tag_306:\n        /* \"#utility.yul\":20077:20107   */\n      swap1\n      pop\n        /* \"#utility.yul\":20164:20165   */\n      0x00\n        /* \"#utility.yul\":20204:20264   */\n      tag_307\n        /* \"#utility.yul\":20260:20263   */\n      dup5\n        /* \"#utility.yul\":20251:20257   */\n      dup3\n        /* \"#utility.yul\":20240:20249   */\n      dup6\n        /* \"#utility.yul\":20236:20258   */\n      add\n        /* \"#utility.yul\":20204:20264   */\n      tag_90\n      jump\t// in\n    tag_307:\n        /* \"#utility.yul\":20197:20201   */\n      0x00\n        /* \"#utility.yul\":20190:20195   */\n      dup4\n        /* \"#utility.yul\":20186:20202   */\n      add\n        /* \"#utility.yul\":20179:20265   */\n      mstore\n        /* \"#utility.yul\":20117:20276   */\n      pop\n        /* \"#utility.yul\":20344:20346   */\n      0x20\n        /* \"#utility.yul\":20385:20445   */\n      tag_308\n        /* \"#utility.yul\":20441:20444   */\n      dup5\n        /* \"#utility.yul\":20432:20438   */\n      dup3\n        /* \"#utility.yul\":20421:20430   */\n      dup6\n        /* \"#utility.yul\":20417:20439   */\n      add\n        /* \"#utility.yul\":20385:20445   */\n      tag_92\n      jump\t// in\n    tag_308:\n        /* \"#utility.yul\":20378:20382   */\n      0x20\n        /* \"#utility.yul\":20371:20376   */\n      dup4\n        /* \"#utility.yul\":20367:20383   */\n      add\n        /* \"#utility.yul\":20360:20446   */\n      mstore\n        /* \"#utility.yul\":20286:20457   */\n      pop\n        /* \"#utility.yul\":20538:20540   */\n      0x40\n        /* \"#utility.yul\":20527:20536   */\n      dup3\n        /* \"#utility.yul\":20523:20541   */\n      add\n        /* \"#utility.yul\":20517:20542   */\n      mload\n        /* \"#utility.yul\":20569:20587   */\n      0xffffffffffffffff\n        /* \"#utility.yul\":20561:20567   */\n      dup2\n        /* \"#utility.yul\":20558:20588   */\n      gt\n        /* \"#utility.yul\":20555:20672   */\n      iszero\n      tag_309\n      jumpi\n        /* \"#utility.yul\":20591:20670   */\n      tag_310\n      tag_88\n      jump\t// in\n    tag_310:\n        /* \"#utility.yul\":20555:20672   */\n    tag_309:\n        /* \"#utility.yul\":20711:20781   */\n      tag_311\n        /* \"#utility.yul\":20777:20780   */\n      dup5\n        /* \"#utility.yul\":20768:20774   */\n      dup3\n        /* \"#utility.yul\":20757:20766   */\n      dup6\n        /* \"#utility.yul\":20753:20775   */\n      add\n        /* \"#utility.yul\":20711:20781   */\n      tag_94\n      jump\t// in\n    tag_311:\n        /* \"#utility.yul\":20704:20708   */\n      0x40\n        /* \"#utility.yul\":20697:20702   */\n      dup4\n        /* \"#utility.yul\":20693:20709   */\n      add\n        /* \"#utility.yul\":20686:20782   */\n      mstore\n        /* \"#utility.yul\":20467:20793   */\n      pop\n        /* \"#utility.yul\":20880:20882   */\n      0x60\n        /* \"#utility.yul\":20869:20878   */\n      dup3\n        /* \"#utility.yul\":20865:20883   */\n      add\n        /* \"#utility.yul\":20859:20884   */\n      mload\n        /* \"#utility.yul\":20911:20929   */\n      0xffffffffffffffff\n        /* \"#utility.yul\":20903:20909   */\n      dup2\n        /* \"#utility.yul\":20900:20930   */\n      gt\n        /* \"#utility.yul\":20897:21014   */\n      iszero\n      tag_312\n      jumpi\n        /* \"#utility.yul\":20933:21012   */\n      tag_313\n      tag_88\n      jump\t// in\n    tag_313:\n        /* \"#utility.yul\":20897:21014   */\n    tag_312:\n        /* \"#utility.yul\":21053:21123   */\n      tag_314\n        /* \"#utility.yul\":21119:21122   */\n      dup5\n        /* \"#utility.yul\":21110:21116   */\n      dup3\n        /* \"#utility.yul\":21099:21108   */\n      dup6\n        /* \"#utility.yul\":21095:21117   */\n      add\n        /* \"#utility.yul\":21053:21123   */\n      tag_94\n      jump\t// in\n    tag_314:\n        /* \"#utility.yul\":21046:21050   */\n      0x60\n        /* \"#utility.yul\":21039:21044   */\n      dup4\n        /* \"#utility.yul\":21035:21051   */\n      add\n        /* \"#utility.yul\":21028:21124   */\n      mstore\n        /* \"#utility.yul\":20803:21135   */\n      pop\n        /* \"#utility.yul\":21197:21200   */\n      0x80\n        /* \"#utility.yul\":21239:21299   */\n      tag_315\n        /* \"#utility.yul\":21295:21298   */\n      dup5\n        /* \"#utility.yul\":21286:21292   */\n      dup3\n        /* \"#utility.yul\":21275:21284   */\n      dup6\n        /* \"#utility.yul\":21271:21293   */\n      add\n        /* \"#utility.yul\":21239:21299   */\n      tag_90\n      jump\t// in\n    tag_315:\n        /* \"#utility.yul\":21232:21236   */\n      0x80\n        /* \"#utility.yul\":21225:21230   */\n      dup4\n        /* \"#utility.yul\":21221:21237   */\n      add\n        /* \"#utility.yul\":21214:21300   */\n      mstore\n        /* \"#utility.yul\":21145:21311   */\n      pop\n        /* \"#utility.yul\":21376:21379   */\n      0xa0\n        /* \"#utility.yul\":21418:21475   */\n      tag_316\n        /* \"#utility.yul\":21471:21474   */\n      dup5\n        /* \"#utility.yul\":21462:21468   */\n      dup3\n        /* \"#utility.yul\":21451:21460   */\n      dup6\n        /* \"#utility.yul\":21447:21469   */\n      add\n        /* \"#utility.yul\":21418:21475   */\n      tag_96\n      jump\t// in\n    tag_316:\n        /* \"#utility.yul\":21411:21415   */\n      0xa0\n        /* \"#utility.yul\":21404:21409   */\n      dup4\n        /* \"#utility.yul\":21400:21416   */\n      add\n        /* \"#utility.yul\":21393:21476   */\n      mstore\n        /* \"#utility.yul\":21321:21487   */\n      pop\n        /* \"#utility.yul\":21576:21579   */\n      0xc0\n        /* \"#utility.yul\":21565:21574   */\n      dup3\n        /* \"#utility.yul\":21561:21580   */\n      add\n        /* \"#utility.yul\":21555:21581   */\n      mload\n        /* \"#utility.yul\":21608:21626   */\n      0xffffffffffffffff\n        /* \"#utility.yul\":21600:21606   */\n      dup2\n        /* \"#utility.yul\":21597:21627   */\n      gt\n        /* \"#utility.yul\":21594:21711   */\n      iszero\n      tag_317\n      jumpi\n        /* \"#utility.yul\":21630:21709   */\n      tag_318\n      tag_88\n      jump\t// in\n    tag_318:\n        /* \"#utility.yul\":21594:21711   */\n    tag_317:\n        /* \"#utility.yul\":21750:21835   */\n      tag_319\n        /* \"#utility.yul\":21831:21834   */\n      dup5\n        /* \"#utility.yul\":21822:21828   */\n      dup3\n        /* \"#utility.yul\":21811:21820   */\n      dup6\n        /* \"#utility.yul\":21807:21829   */\n      add\n        /* \"#utility.yul\":21750:21835   */\n      tag_101\n      jump\t// in\n    tag_319:\n        /* \"#utility.yul\":21743:21747   */\n      0xc0\n        /* \"#utility.yul\":21736:21741   */\n      dup4\n        /* \"#utility.yul\":21732:21748   */\n      add\n        /* \"#utility.yul\":21725:21836   */\n      mstore\n        /* \"#utility.yul\":21497:21847   */\n      pop\n        /* \"#utility.yul\":19848:21854   */\n      swap3\n      swap2\n      pop\n      pop\n      jump\t// out\n        /* \"#utility.yul\":21896:22907   */\n    tag_103:\n        /* \"#utility.yul\":22030:22035   */\n      0x00\n        /* \"#utility.yul\":22055:22163   */\n      tag_321\n        /* \"#utility.yul\":22071:22162   */\n      tag_322\n        /* \"#utility.yul\":22155:22161   */\n      dup5\n        /* \"#utility.yul\":22071:22162   */\n      tag_86\n      jump\t// in\n    tag_322:\n        /* \"#utility.yul\":22055:22163   */\n      tag_76\n      jump\t// in\n    tag_321:\n        /* \"#utility.yul\":22046:22163   */\n      swap1\n      pop\n        /* \"#utility.yul\":22183:22188   */\n      dup1\n        /* \"#utility.yul\":22212:22218   */\n      dup4\n        /* \"#utility.yul\":22205:22210   */\n      dup3\n        /* \"#utility.yul\":22198:22219   */\n      mstore\n        /* \"#utility.yul\":22246:22250   */\n      0x20\n        /* \"#utility.yul\":22239:22244   */\n      dup3\n        /* \"#utility.yul\":22235:22251   */\n      add\n        /* \"#utility.yul\":22228:22251   */\n      swap1\n      pop\n        /* \"#utility.yul\":22299:22303   */\n      0x20\n        /* \"#utility.yul\":22291:22297   */\n      dup5\n        /* \"#utility.yul\":22287:22304   */\n      mul\n        /* \"#utility.yul\":22279:22285   */\n      dup4\n        /* \"#utility.yul\":22275:22305   */\n      add\n        /* \"#utility.yul\":22328:22331   */\n      dup6\n        /* \"#utility.yul\":22320:22326   */\n      dup2\n        /* \"#utility.yul\":22317:22332   */\n      gt\n        /* \"#utility.yul\":22314:22436   */\n      iszero\n      tag_323\n      jumpi\n        /* \"#utility.yul\":22347:22426   */\n      tag_324\n      tag_83\n      jump\t// in\n    tag_324:\n        /* \"#utility.yul\":22314:22436   */\n    tag_323:\n        /* \"#utility.yul\":22462:22468   */\n      dup4\n        /* \"#utility.yul\":22445:22901   */\n    tag_325:\n        /* \"#utility.yul\":22479:22485   */\n      dup2\n        /* \"#utility.yul\":22474:22477   */\n      dup2\n        /* \"#utility.yul\":22471:22486   */\n      lt\n        /* \"#utility.yul\":22445:22901   */\n      iszero\n      tag_327\n      jumpi\n        /* \"#utility.yul\":22561:22564   */\n      dup1\n        /* \"#utility.yul\":22555:22565   */\n      mload\n        /* \"#utility.yul\":22597:22615   */\n      0xffffffffffffffff\n        /* \"#utility.yul\":22584:22595   */\n      dup2\n        /* \"#utility.yul\":22581:22616   */\n      gt\n        /* \"#utility.yul\":22578:22700   */\n      iszero\n      tag_328\n      jumpi\n        /* \"#utility.yul\":22619:22698   */\n      tag_329\n      tag_72\n      jump\t// in\n    tag_329:\n        /* \"#utility.yul\":22578:22700   */\n    tag_328:\n        /* \"#utility.yul\":22743:22754   */\n      dup1\n        /* \"#utility.yul\":22735:22741   */\n      dup7\n        /* \"#utility.yul\":22731:22755   */\n      add\n        /* \"#utility.yul\":22781:22856   */\n      tag_330\n        /* \"#utility.yul\":22852:22855   */\n      dup10\n        /* \"#utility.yul\":22840:22850   */\n      dup3\n        /* \"#utility.yul\":22781:22856   */\n      tag_102\n      jump\t// in\n    tag_330:\n        /* \"#utility.yul\":22776:22779   */\n      dup6\n        /* \"#utility.yul\":22769:22857   */\n      mstore\n        /* \"#utility.yul\":22886:22890   */\n      0x20\n        /* \"#utility.yul\":22881:22884   */\n      dup6\n        /* \"#utility.yul\":22877:22891   */\n      add\n        /* \"#utility.yul\":22870:22891   */\n      swap5\n      pop\n        /* \"#utility.yul\":22521:22901   */\n      pop\n      pop\n        /* \"#utility.yul\":22505:22509   */\n      0x20\n        /* \"#utility.yul\":22500:22503   */\n      dup2\n        /* \"#utility.yul\":22496:22510   */\n      add\n        /* \"#utility.yul\":22489:22510   */\n      swap1\n      pop\n        /* \"#utility.yul\":22445:22901   */\n      jump(tag_325)\n    tag_327:\n        /* \"#utility.yul\":22449:22470   */\n      pop\n        /* \"#utility.yul\":22036:22907   */\n      pop\n      pop\n        /* \"#utility.yul\":21896:22907   */\n      swap4\n      swap3\n      pop\n      pop\n      pop\n      jump\t// out\n        /* \"#utility.yul\":22949:23388   */\n    tag_104:\n        /* \"#utility.yul\":23058:23063   */\n      0x00\n        /* \"#utility.yul\":23107:23110   */\n      dup3\n        /* \"#utility.yul\":23100:23104   */\n      0x1f\n        /* \"#utility.yul\":23092:23098   */\n      dup4\n        /* \"#utility.yul\":23088:23105   */\n      add\n        /* \"#utility.yul\":23084:23111   */\n      slt\n        /* \"#utility.yul\":23074:23196   */\n      tag_332\n      jumpi\n        /* \"#utility.yul\":23115:23194   */\n      tag_333\n      tag_72\n      jump\t// in\n    tag_333:\n        /* \"#utility.yul\":23074:23196   */\n    tag_332:\n        /* \"#utility.yul\":23225:23231   */\n      dup2\n        /* \"#utility.yul\":23219:23232   */\n      mload\n        /* \"#utility.yul\":23250:23382   */\n      tag_334\n        /* \"#utility.yul\":23378:23381   */\n      dup5\n        /* \"#utility.yul\":23370:23376   */\n      dup3\n        /* \"#utility.yul\":23363:23367   */\n      0x20\n        /* \"#utility.yul\":23355:23361   */\n      dup7\n        /* \"#utility.yul\":23351:23368   */\n      add\n        /* \"#utility.yul\":23250:23382   */\n      tag_103\n      jump\t// in\n    tag_334:\n        /* \"#utility.yul\":23241:23382   */\n      swap2\n      pop\n        /* \"#utility.yul\":23064:23388   */\n      pop\n        /* \"#utility.yul\":22949:23388   */\n      swap3\n      swap2\n      pop\n      pop\n      jump\t// out\n        /* \"#utility.yul\":23394:24002   */\n    tag_25:\n        /* \"#utility.yul\":23516:23522   */\n      0x00\n        /* \"#utility.yul\":23565:23567   */\n      0x20\n        /* \"#utility.yul\":23553:23562   */\n      dup3\n        /* \"#utility.yul\":23544:23551   */\n      dup5\n        /* \"#utility.yul\":23540:23563   */\n      sub\n        /* \"#utility.yul\":23536:23568   */\n      slt\n        /* \"#utility.yul\":23533:23652   */\n      iszero\n      tag_336\n      jumpi\n        /* \"#utility.yul\":23571:23650   */\n      tag_337\n      tag_70\n      jump\t// in\n    tag_337:\n        /* \"#utility.yul\":23533:23652   */\n    tag_336:\n        /* \"#utility.yul\":23712:23713   */\n      0x00\n        /* \"#utility.yul\":23701:23710   */\n      dup3\n        /* \"#utility.yul\":23697:23714   */\n      add\n        /* \"#utility.yul\":23691:23715   */\n      mload\n        /* \"#utility.yul\":23742:23760   */\n      0xffffffffffffffff\n        /* \"#utility.yul\":23734:23740   */\n      dup2\n        /* \"#utility.yul\":23731:23761   */\n      gt\n        /* \"#utility.yul\":23728:23845   */\n      iszero\n      tag_338\n      jumpi\n        /* \"#utility.yul\":23764:23843   */\n      tag_339\n      tag_71\n      jump\t// in\n    tag_339:\n        /* \"#utility.yul\":23728:23845   */\n    tag_338:\n        /* \"#utility.yul\":23869:23985   */\n      tag_340\n        /* \"#utility.yul\":23977:23984   */\n      dup5\n        /* \"#utility.yul\":23968:23974   */\n      dup3\n        /* \"#utility.yul\":23957:23966   */\n      dup6\n        /* \"#utility.yul\":23953:23975   */\n      add\n        /* \"#utility.yul\":23869:23985   */\n      tag_104\n      jump\t// in\n    tag_340:\n        /* \"#utility.yul\":23859:23985   */\n      swap2\n      pop\n        /* \"#utility.yul\":23662:23995   */\n      pop\n        /* \"#utility.yul\":23394:24002   */\n      swap3\n      swap2\n      pop\n      pop\n      jump\t// out\n        /* \"#utility.yul\":24008:24177   */\n    tag_105:\n        /* \"#utility.yul\":24092:24103   */\n      0x00\n        /* \"#utility.yul\":24126:24132   */\n      dup3\n        /* \"#utility.yul\":24121:24124   */\n      dup3\n        /* \"#utility.yul\":24114:24133   */\n      mstore\n        /* \"#utility.yul\":24166:24170   */\n      0x20\n        /* \"#utility.yul\":24161:24164   */\n      dup3\n        /* \"#utility.yul\":24157:24171   */\n      add\n        /* \"#utility.yul\":24142:24171   */\n      swap1\n      pop\n        /* \"#utility.yul\":24008:24177   */\n      swap3\n      swap2\n      pop\n      pop\n      jump\t// out\n        /* \"#utility.yul\":24183:24560   */\n    tag_106:\n        /* \"#utility.yul\":24271:24274   */\n      0x00\n        /* \"#utility.yul\":24299:24338   */\n      tag_343\n        /* \"#utility.yul\":24332:24337   */\n      dup3\n        /* \"#utility.yul\":24299:24338   */\n      tag_50\n      jump\t// in\n    tag_343:\n        /* \"#utility.yul\":24354:24425   */\n      tag_344\n        /* \"#utility.yul\":24418:24424   */\n      dup2\n        /* \"#utility.yul\":24413:24416   */\n      dup6\n        /* \"#utility.yul\":24354:24425   */\n      tag_105\n      jump\t// in\n    tag_344:\n        /* \"#utility.yul\":24347:24425   */\n      swap4\n      pop\n        /* \"#utility.yul\":24434:24499   */\n      tag_345\n        /* \"#utility.yul\":24492:24498   */\n      dup2\n        /* \"#utility.yul\":24487:24490   */\n      dup6\n        /* \"#utility.yul\":24480:24484   */\n      0x20\n        /* \"#utility.yul\":24473:24478   */\n      dup7\n        /* \"#utility.yul\":24469:24485   */\n      add\n        /* \"#utility.yul\":24434:24499   */\n      tag_52\n      jump\t// in\n    tag_345:\n        /* \"#utility.yul\":24524:24553   */\n      tag_346\n        /* \"#utility.yul\":24546:24552   */\n      dup2\n        /* \"#utility.yul\":24524:24553   */\n      tag_53\n      jump\t// in\n    tag_346:\n        /* \"#utility.yul\":24519:24522   */\n      dup5\n        /* \"#utility.yul\":24515:24554   */\n      add\n        /* \"#utility.yul\":24508:24554   */\n      swap2\n      pop\n        /* \"#utility.yul\":24275:24560   */\n      pop\n        /* \"#utility.yul\":24183:24560   */\n      swap3\n      swap2\n      pop\n      pop\n      jump\t// out\n        /* \"#utility.yul\":24566:24879   */\n    tag_30:\n        /* \"#utility.yul\":24679:24683   */\n      0x00\n        /* \"#utility.yul\":24717:24719   */\n      0x20\n        /* \"#utility.yul\":24706:24715   */\n      dup3\n        /* \"#utility.yul\":24702:24720   */\n      add\n        /* \"#utility.yul\":24694:24720   */\n      swap1\n      pop\n        /* \"#utility.yul\":24766:24775   */\n      dup2\n        /* \"#utility.yul\":24760:24764   */\n      dup2\n        /* \"#utility.yul\":24756:24776   */\n      sub\n        /* \"#utility.yul\":24752:24753   */\n      0x00\n        /* \"#utility.yul\":24741:24750   */\n      dup4\n        /* \"#utility.yul\":24737:24754   */\n      add\n        /* \"#utility.yul\":24730:24777   */\n      mstore\n        /* \"#utility.yul\":24794:24872   */\n      tag_348\n        /* \"#utility.yul\":24867:24871   */\n      dup2\n        /* \"#utility.yul\":24858:24864   */\n      dup5\n        /* \"#utility.yul\":24794:24872   */\n      tag_106\n      jump\t// in\n    tag_348:\n        /* \"#utility.yul\":24786:24872   */\n      swap1\n      pop\n        /* \"#utility.yul\":24566:24879   */\n      swap3\n      swap2\n      pop\n      pop\n      jump\t// out\n        /* \"#utility.yul\":24885:25443   */\n    tag_34:\n        /* \"#utility.yul\":24982:24988   */\n      0x00\n        /* \"#utility.yul\":25031:25033   */\n      0x20\n        /* \"#utility.yul\":25019:25028   */\n      dup3\n        /* \"#utility.yul\":25010:25017   */\n      dup5\n        /* \"#utility.yul\":25006:25029   */\n      sub\n        /* \"#utility.yul\":25002:25034   */\n      slt\n        /* \"#utility.yul\":24999:25118   */\n      iszero\n      tag_350\n      jumpi\n        /* \"#utility.yul\":25037:25116   */\n      tag_351\n      tag_70\n      jump\t// in\n    tag_351:\n        /* \"#utility.yul\":24999:25118   */\n    tag_350:\n        /* \"#utility.yul\":25178:25179   */\n      0x00\n        /* \"#utility.yul\":25167:25176   */\n      dup3\n        /* \"#utility.yul\":25163:25180   */\n      add\n        /* \"#utility.yul\":25157:25181   */\n      mload\n        /* \"#utility.yul\":25208:25226   */\n      0xffffffffffffffff\n        /* \"#utility.yul\":25200:25206   */\n      dup2\n        /* \"#utility.yul\":25197:25227   */\n      gt\n        /* \"#utility.yul\":25194:25311   */\n      iszero\n      tag_352\n      jumpi\n        /* \"#utility.yul\":25230:25309   */\n      tag_353\n      tag_71\n      jump\t// in\n    tag_353:\n        /* \"#utility.yul\":25194:25311   */\n    tag_352:\n        /* \"#utility.yul\":25335:25426   */\n      tag_354\n        /* \"#utility.yul\":25418:25425   */\n      dup5\n        /* \"#utility.yul\":25409:25415   */\n      dup3\n        /* \"#utility.yul\":25398:25407   */\n      dup6\n        /* \"#utility.yul\":25394:25416   */\n      add\n        /* \"#utility.yul\":25335:25426   */\n      tag_102\n      jump\t// in\n    tag_354:\n        /* \"#utility.yul\":25325:25426   */\n      swap2\n      pop\n        /* \"#utility.yul\":25128:25436   */\n      pop\n        /* \"#utility.yul\":24885:25443   */\n      swap3\n      swap2\n      pop\n      pop\n      jump\t// out\n        /* \"#utility.yul\":25449:25573   */\n    tag_107:\n        /* \"#utility.yul\":25526:25532   */\n      0x00\n        /* \"#utility.yul\":25560:25565   */\n      dup2\n        /* \"#utility.yul\":25554:25566   */\n      mload\n        /* \"#utility.yul\":25544:25566   */\n      swap1\n      pop\n        /* \"#utility.yul\":25449:25573   */\n      swap2\n      swap1\n      pop\n      jump\t// out\n        /* \"#utility.yul\":25579:25773   */\n    tag_108:\n        /* \"#utility.yul\":25688:25699   */\n      0x00\n        /* \"#utility.yul\":25722:25728   */\n      dup3\n        /* \"#utility.yul\":25717:25720   */\n      dup3\n        /* \"#utility.yul\":25710:25729   */\n      mstore\n        /* \"#utility.yul\":25762:25766   */\n      0x20\n        /* \"#utility.yul\":25757:25760   */\n      dup3\n        /* \"#utility.yul\":25753:25767   */\n      add\n        /* \"#utility.yul\":25738:25767   */\n      swap1\n      pop\n        /* \"#utility.yul\":25579:25773   */\n      swap3\n      swap2\n      pop\n      pop\n      jump\t// out\n        /* \"#utility.yul\":25779:25921   */\n    tag_109:\n        /* \"#utility.yul\":25856:25860   */\n      0x00\n        /* \"#utility.yul\":25879:25882   */\n      dup2\n        /* \"#utility.yul\":25871:25882   */\n      swap1\n      pop\n        /* \"#utility.yul\":25909:25913   */\n      0x20\n        /* \"#utility.yul\":25904:25907   */\n      dup3\n        /* \"#utility.yul\":25900:25914   */\n      add\n        /* \"#utility.yul\":25892:25914   */\n      swap1\n      pop\n        /* \"#utility.yul\":25779:25921   */\n      swap2\n      swap1\n      pop\n      jump\t// out\n        /* \"#utility.yul\":25927:26123   */\n    tag_110:\n        /* \"#utility.yul\":26016:26026   */\n      0x00\n        /* \"#utility.yul\":26051:26117   */\n      tag_359\n        /* \"#utility.yul\":26113:26116   */\n      dup4\n        /* \"#utility.yul\":26105:26111   */\n      dup4\n        /* \"#utility.yul\":26051:26117   */\n      tag_54\n      jump\t// in\n    tag_359:\n        /* \"#utility.yul\":26037:26117   */\n      swap1\n      pop\n        /* \"#utility.yul\":25927:26123   */\n      swap3\n      swap2\n      pop\n      pop\n      jump\t// out\n        /* \"#utility.yul\":26129:26252   */\n    tag_111:\n        /* \"#utility.yul\":26209:26213   */\n      0x00\n        /* \"#utility.yul\":26241:26245   */\n      0x20\n        /* \"#utility.yul\":26236:26239   */\n      dup3\n        /* \"#utility.yul\":26232:26246   */\n      add\n        /* \"#utility.yul\":26224:26246   */\n      swap1\n      pop\n        /* \"#utility.yul\":26129:26252   */\n      swap2\n      swap1\n      pop\n      jump\t// out\n        /* \"#utility.yul\":26286:27277   */\n    tag_112:\n        /* \"#utility.yul\":26425:26428   */\n      0x00\n        /* \"#utility.yul\":26454:26518   */\n      tag_362\n        /* \"#utility.yul\":26512:26517   */\n      dup3\n        /* \"#utility.yul\":26454:26518   */\n      tag_107\n      jump\t// in\n    tag_362:\n        /* \"#utility.yul\":26534:26630   */\n      tag_363\n        /* \"#utility.yul\":26623:26629   */\n      dup2\n        /* \"#utility.yul\":26618:26621   */\n      dup6\n        /* \"#utility.yul\":26534:26630   */\n      tag_108\n      jump\t// in\n    tag_363:\n        /* \"#utility.yul\":26527:26630   */\n      swap4\n      pop\n        /* \"#utility.yul\":26656:26659   */\n      dup4\n        /* \"#utility.yul\":26701:26705   */\n      0x20\n        /* \"#utility.yul\":26693:26699   */\n      dup3\n        /* \"#utility.yul\":26689:26706   */\n      mul\n        /* \"#utility.yul\":26684:26687   */\n      dup6\n        /* \"#utility.yul\":26680:26707   */\n      add\n        /* \"#utility.yul\":26731:26797   */\n      tag_364\n        /* \"#utility.yul\":26791:26796   */\n      dup6\n        /* \"#utility.yul\":26731:26797   */\n      tag_109\n      jump\t// in\n    tag_364:\n        /* \"#utility.yul\":26820:26827   */\n      dup1\n        /* \"#utility.yul\":26851:26852   */\n      0x00\n        /* \"#utility.yul\":26836:27232   */\n    tag_365:\n        /* \"#utility.yul\":26861:26867   */\n      dup6\n        /* \"#utility.yul\":26858:26859   */\n      dup2\n        /* \"#utility.yul\":26855:26868   */\n      lt\n        /* \"#utility.yul\":26836:27232   */\n      iszero\n      tag_367\n      jumpi\n        /* \"#utility.yul\":26932:26941   */\n      dup5\n        /* \"#utility.yul\":26926:26930   */\n      dup5\n        /* \"#utility.yul\":26922:26942   */\n      sub\n        /* \"#utility.yul\":26917:26920   */\n      dup10\n        /* \"#utility.yul\":26910:26943   */\n      mstore\n        /* \"#utility.yul\":26983:26989   */\n      dup2\n        /* \"#utility.yul\":26977:26990   */\n      mload\n        /* \"#utility.yul\":27011:27095   */\n      tag_368\n        /* \"#utility.yul\":27090:27094   */\n      dup6\n        /* \"#utility.yul\":27075:27088   */\n      dup3\n        /* \"#utility.yul\":27011:27095   */\n      tag_110\n      jump\t// in\n    tag_368:\n        /* \"#utility.yul\":27003:27095   */\n      swap5\n      pop\n        /* \"#utility.yul\":27118:27188   */\n      tag_369\n        /* \"#utility.yul\":27181:27187   */\n      dup4\n        /* \"#utility.yul\":27118:27188   */\n      tag_111\n      jump\t// in\n    tag_369:\n        /* \"#utility.yul\":27108:27188   */\n      swap3\n      pop\n        /* \"#utility.yul\":27217:27221   */\n      0x20\n        /* \"#utility.yul\":27212:27215   */\n      dup11\n        /* \"#utility.yul\":27208:27222   */\n      add\n        /* \"#utility.yul\":27201:27222   */\n      swap10\n      pop\n        /* \"#utility.yul\":26896:27232   */\n      pop\n        /* \"#utility.yul\":26883:26884   */\n      0x01\n        /* \"#utility.yul\":26880:26881   */\n      dup2\n        /* \"#utility.yul\":26876:26885   */\n      add\n        /* \"#utility.yul\":26871:26885   */\n      swap1\n      pop\n        /* \"#utility.yul\":26836:27232   */\n      jump(tag_365)\n    tag_367:\n        /* \"#utility.yul\":26840:26854   */\n      pop\n        /* \"#utility.yul\":27248:27252   */\n      dup3\n        /* \"#utility.yul\":27241:27252   */\n      swap8\n      pop\n        /* \"#utility.yul\":27268:27271   */\n      dup8\n        /* \"#utility.yul\":27261:27271   */\n      swap6\n      pop\n        /* \"#utility.yul\":26430:27277   */\n      pop\n      pop\n      pop\n      pop\n      pop\n        /* \"#utility.yul\":26286:27277   */\n      swap3\n      swap2\n      pop\n      pop\n      jump\t// out\n        /* \"#utility.yul\":27283:28098   */\n    tag_38:\n        /* \"#utility.yul\":27542:27546   */\n      0x00\n        /* \"#utility.yul\":27580:27582   */\n      0x60\n        /* \"#utility.yul\":27569:27578   */\n      dup3\n        /* \"#utility.yul\":27565:27583   */\n      add\n        /* \"#utility.yul\":27557:27583   */\n      swap1\n      pop\n        /* \"#utility.yul\":27629:27638   */\n      dup2\n        /* \"#utility.yul\":27623:27627   */\n      dup2\n        /* \"#utility.yul\":27619:27639   */\n      sub\n        /* \"#utility.yul\":27615:27616   */\n      0x00\n        /* \"#utility.yul\":27604:27613   */\n      dup4\n        /* \"#utility.yul\":27600:27617   */\n      add\n        /* \"#utility.yul\":27593:27640   */\n      mstore\n        /* \"#utility.yul\":27657:27735   */\n      tag_371\n        /* \"#utility.yul\":27730:27734   */\n      dup2\n        /* \"#utility.yul\":27721:27727   */\n      dup7\n        /* \"#utility.yul\":27657:27735   */\n      tag_106\n      jump\t// in\n    tag_371:\n        /* \"#utility.yul\":27649:27735   */\n      swap1\n      pop\n        /* \"#utility.yul\":27782:27791   */\n      dup2\n        /* \"#utility.yul\":27776:27780   */\n      dup2\n        /* \"#utility.yul\":27772:27792   */\n      sub\n        /* \"#utility.yul\":27767:27769   */\n      0x20\n        /* \"#utility.yul\":27756:27765   */\n      dup4\n        /* \"#utility.yul\":27752:27770   */\n      add\n        /* \"#utility.yul\":27745:27793   */\n      mstore\n        /* \"#utility.yul\":27810:27888   */\n      tag_372\n        /* \"#utility.yul\":27883:27887   */\n      dup2\n        /* \"#utility.yul\":27874:27880   */\n      dup6\n        /* \"#utility.yul\":27810:27888   */\n      tag_106\n      jump\t// in\n    tag_372:\n        /* \"#utility.yul\":27802:27888   */\n      swap1\n      pop\n        /* \"#utility.yul\":27935:27944   */\n      dup2\n        /* \"#utility.yul\":27929:27933   */\n      dup2\n        /* \"#utility.yul\":27925:27945   */\n      sub\n        /* \"#utility.yul\":27920:27922   */\n      0x40\n        /* \"#utility.yul\":27909:27918   */\n      dup4\n        /* \"#utility.yul\":27905:27923   */\n      add\n        /* \"#utility.yul\":27898:27946   */\n      mstore\n        /* \"#utility.yul\":27963:28091   */\n      tag_373\n        /* \"#utility.yul\":28086:28090   */\n      dup2\n        /* \"#utility.yul\":28077:28083   */\n      dup5\n        /* \"#utility.yul\":27963:28091   */\n      tag_112\n      jump\t// in\n    tag_373:\n        /* \"#utility.yul\":27955:28091   */\n      swap1\n      pop\n        /* \"#utility.yul\":27283:28098   */\n      swap5\n      swap4\n      pop\n      pop\n      pop\n      pop\n      jump\t// out\n\n    auxdata: 0xa264697066735822122045a0cbb70c797fc7f79b2afc14dc06def88439f5dc40035a9dd1fa025dfd8c4564736f6c634300081a0033\n}\n",
				"bytecode": {
					"linkReferences": {},
					"object": "608060405234801561000f575f80fd5b506040516110f33803806110f3833981810160405281019061003191906100d4565b805f806101000a81548173ffffffffffffffffffffffffffffffffffffffff021916908373ffffffffffffffffffffffffffffffffffffffff160217905550506100ff565b5f80fd5b5f73ffffffffffffffffffffffffffffffffffffffff82169050919050565b5f6100a38261007a565b9050919050565b6100b381610099565b81146100bd575f80fd5b50565b5f815190506100ce816100aa565b92915050565b5f602082840312156100e9576100e8610076565b5b5f6100f6848285016100c0565b91505092915050565b610fe78061010c5f395ff3fe608060405234801561000f575f80fd5b506004361061003f575f3560e01c80633d2737b014610043578063bdea20b714610061578063f87f599414610091575b5f80fd5b61004b6100c1565b6040516100589190610604565b60405180910390f35b61007b60048036038101906100769190610761565b610157565b604051610088919061084f565b60405180910390f35b6100ab60048036038101906100a69190610951565b610200565b6040516100b8919061084f565b60405180910390f35b60605f8054906101000a900473ffffffffffffffffffffffffffffffffffffffff1673ffffffffffffffffffffffffffffffffffffffff166308e6085a6040518163ffffffff1660e01b81526004015f60405180830381865afa15801561012a573d5f803e3d5ffd5b505050506040513d5f823e3d601f19601f820116820180604052508101906101529190610db6565b905090565b61015f6102b0565b5f8054906101000a900473ffffffffffffffffffffffffffffffffffffffff1673ffffffffffffffffffffffffffffffffffffffff1663930aca02836040518263ffffffff1660e01b81526004016101b79190610e45565b5f60405180830381865afa1580156101d1573d5f803e3d5ffd5b505050506040513d5f823e3d601f19601f820116820180604052508101906101f99190610e65565b9050919050565b6102086102b0565b5f8054906101000a900473ffffffffffffffffffffffffffffffffffffffff1673ffffffffffffffffffffffffffffffffffffffff16633453de098585856040518463ffffffff1660e01b815260040161026493929190610f67565b5f604051808303815f875af115801561027f573d5f803e3d5ffd5b505050506040513d5f823e3d601f19601f820116820180604052508101906102a79190610e65565b90509392505050565b6040518060e001604052805f81526020015f73ffffffffffffffffffffffffffffffffffffffff16815260200160608152602001606081526020015f81526020015f15158152602001606081525090565b5f81519050919050565b5f82825260208201905092915050565b5f819050602082019050919050565b5f819050919050565b61033c8161032a565b82525050565b5f73ffffffffffffffffffffffffffffffffffffffff82169050919050565b5f61036b82610342565b9050919050565b61037b81610361565b82525050565b5f81519050919050565b5f82825260208201905092915050565b8281835e5f83830152505050565b5f601f19601f8301169050919050565b5f6103c382610381565b6103cd818561038b565b93506103dd81856020860161039b565b6103e6816103a9565b840191505092915050565b5f8115159050919050565b610405816103f1565b82525050565b5f81519050919050565b5f82825260208201905092915050565b5f819050602082019050919050565b5f819050919050565b61044681610434565b82525050565b5f610457838361043d565b60208301905092915050565b5f602082019050919050565b5f6104798261040b565b6104838185610415565b935061048e83610425565b805f5b838110156104be5781516104a5888261044c565b97506104b083610463565b925050600181019050610491565b5085935050505092915050565b5f60e083015f8301516104e05f860182610333565b5060208301516104f36020860182610372565b506040830151848203604086015261050b82826103b9565b9150506060830151848203606086015261052582826103b9565b915050608083015161053a6080860182610333565b5060a083015161054d60a08601826103fc565b5060c083015184820360c0860152610565828261046f565b9150508091505092915050565b5f61057d83836104cb565b905092915050565b5f602082019050919050565b5f61059b82610301565b6105a5818561030b565b9350836020820285016105b78561031b565b805f5b858110156105f257848403895281516105d38582610572565b94506105de83610585565b925060208a019950506001810190506105ba565b50829750879550505050505092915050565b5f6020820190508181035f83015261061c8184610591565b905092915050565b5f604051905090565b5f80fd5b5f80fd5b5f80fd5b5f80fd5b7f4e487b71000000000000000000000000000000000000000000000000000000005f52604160045260245ffd5b610673826103a9565b810181811067ffffffffffffffff821117156106925761069161063d565b5b80604052505050565b5f6106a4610624565b90506106b0828261066a565b919050565b5f67ffffffffffffffff8211156106cf576106ce61063d565b5b6106d8826103a9565b9050602081019050919050565b828183375f83830152505050565b5f610705610700846106b5565b61069b565b90508281526020810184848401111561072157610720610639565b5b61072c8482856106e5565b509392505050565b5f82601f83011261074857610747610635565b5b81356107588482602086016106f3565b91505092915050565b5f602082840312156107765761077561062d565b5b5f82013567ffffffffffffffff81111561079357610792610631565b5b61079f84828501610734565b91505092915050565b5f60e083015f8301516107bd5f860182610333565b5060208301516107d06020860182610372565b50604083015184820360408601526107e882826103b9565b9150506060830151848203606086015261080282826103b9565b91505060808301516108176080860182610333565b5060a083015161082a60a08601826103fc565b5060c083015184820360c0860152610842828261046f565b9150508091505092915050565b5f6020820190508181035f83015261086781846107a8565b905092915050565b5f67ffffffffffffffff8211156108895761088861063d565b5b602082029050602081019050919050565b5f80fd5b5f6108b06108ab8461086f565b61069b565b905080838252602082019050602084028301858111156108d3576108d261089a565b5b835b8181101561091a57803567ffffffffffffffff8111156108f8576108f7610635565b5b8086016109058982610734565b855260208501945050506020810190506108d5565b5050509392505050565b5f82601f83011261093857610937610635565b5b813561094884826020860161089e565b91505092915050565b5f805f606084860312156109685761096761062d565b5b5f84013567ffffffffffffffff81111561098557610984610631565b5b61099186828701610734565b935050602084013567ffffffffffffffff8111156109b2576109b1610631565b5b6109be86828701610734565b925050604084013567ffffffffffffffff8111156109df576109de610631565b5b6109eb86828701610924565b9150509250925092565b5f67ffffffffffffffff821115610a0f57610a0e61063d565b5b602082029050602081019050919050565b5f80fd5b5f80fd5b610a318161032a565b8114610a3b575f80fd5b50565b5f81519050610a4c81610a28565b92915050565b610a5b81610361565b8114610a65575f80fd5b50565b5f81519050610a7681610a52565b92915050565b5f610a8e610a89846106b5565b61069b565b905082815260208101848484011115610aaa57610aa9610639565b5b610ab584828561039b565b509392505050565b5f82601f830112610ad157610ad0610635565b5b8151610ae1848260208601610a7c565b91505092915050565b610af3816103f1565b8114610afd575f80fd5b50565b5f81519050610b0e81610aea565b92915050565b5f67ffffffffffffffff821115610b2e57610b2d61063d565b5b602082029050602081019050919050565b610b4881610434565b8114610b52575f80fd5b50565b5f81519050610b6381610b3f565b92915050565b5f610b7b610b7684610b14565b61069b565b90508083825260208201905060208402830185811115610b9e57610b9d61089a565b5b835b81811015610bc75780610bb38882610b55565b845260208401935050602081019050610ba0565b5050509392505050565b5f82601f830112610be557610be4610635565b5b8151610bf5848260208601610b69565b91505092915050565b5f60e08284031215610c1357610c12610a20565b5b610c1d60e061069b565b90505f610c2c84828501610a3e565b5f830152506020610c3f84828501610a68565b602083015250604082015167ffffffffffffffff811115610c6357610c62610a24565b5b610c6f84828501610abd565b604083015250606082015167ffffffffffffffff811115610c9357610c92610a24565b5b610c9f84828501610abd565b6060830152506080610cb384828501610a3e565b60808301525060a0610cc784828501610b00565b60a08301525060c082015167ffffffffffffffff811115610ceb57610cea610a24565b5b610cf784828501610bd1565b60c08301525092915050565b5f610d15610d10846109f5565b61069b565b90508083825260208201905060208402830185811115610d3857610d3761089a565b5b835b81811015610d7f57805167ffffffffffffffff811115610d5d57610d5c610635565b5b808601610d6a8982610bfe565b85526020850194505050602081019050610d3a565b5050509392505050565b5f82601f830112610d9d57610d9c610635565b5b8151610dad848260208601610d03565b91505092915050565b5f60208284031215610dcb57610dca61062d565b5b5f82015167ffffffffffffffff811115610de857610de7610631565b5b610df484828501610d89565b91505092915050565b5f82825260208201905092915050565b5f610e1782610381565b610e218185610dfd565b9350610e3181856020860161039b565b610e3a816103a9565b840191505092915050565b5f6020820190508181035f830152610e5d8184610e0d565b905092915050565b5f60208284031215610e7a57610e7961062d565b5b5f82015167ffffffffffffffff811115610e9757610e96610631565b5b610ea384828501610bfe565b91505092915050565b5f81519050919050565b5f82825260208201905092915050565b5f819050602082019050919050565b5f610ee083836103b9565b905092915050565b5f602082019050919050565b5f610efe82610eac565b610f088185610eb6565b935083602082028501610f1a85610ec6565b805f5b85811015610f555784840389528151610f368582610ed5565b9450610f4183610ee8565b925060208a01995050600181019050610f1d565b50829750879550505050505092915050565b5f6060820190508181035f830152610f7f8186610e0d565b90508181036020830152610f938185610e0d565b90508181036040830152610fa78184610ef4565b905094935050505056fea264697066735822122045a0cbb70c797fc7f79b2afc14dc06def88439f5dc40035a9dd1fa025dfd8c4564736f6c634300081a0033",
					"opcodes": "PUSH1 0x80 PUSH1 0x40 MSTORE CALLVALUE DUP1 ISZERO PUSH2 0xF JUMPI PUSH0 DUP1 REVERT JUMPDEST POP PUSH1 0x40 MLOAD PUSH2 0x10F3 CODESIZE SUB DUP1 PUSH2 0x10F3 DUP4 CODECOPY DUP2 DUP2 ADD PUSH1 0x40 MSTORE DUP2 ADD SWAP1 PUSH2 0x31 SWAP2 SWAP1 PUSH2 0xD4 JUMP JUMPDEST DUP1 PUSH0 DUP1 PUSH2 0x100 EXP DUP2 SLOAD DUP2 PUSH20 0xFFFFFFFFFFFFFFFFFFFFFFFFFFFFFFFFFFFFFFFF MUL NOT AND SWAP1 DUP4 PUSH20 0xFFFFFFFFFFFFFFFFFFFFFFFFFFFFFFFFFFFFFFFF AND MUL OR SWAP1 SSTORE POP POP PUSH2 0xFF JUMP JUMPDEST PUSH0 DUP1 REVERT JUMPDEST PUSH0 PUSH20 0xFFFFFFFFFFFFFFFFFFFFFFFFFFFFFFFFFFFFFFFF DUP3 AND SWAP1 POP SWAP2 SWAP1 POP JUMP JUMPDEST PUSH0 PUSH2 0xA3 DUP3 PUSH2 0x7A JUMP JUMPDEST SWAP1 POP SWAP2 SWAP1 POP JUMP JUMPDEST PUSH2 0xB3 DUP2 PUSH2 0x99 JUMP JUMPDEST DUP2 EQ PUSH2 0xBD JUMPI PUSH0 DUP1 REVERT JUMPDEST POP JUMP JUMPDEST PUSH0 DUP2 MLOAD SWAP1 POP PUSH2 0xCE DUP2 PUSH2 0xAA JUMP JUMPDEST SWAP3 SWAP2 POP POP JUMP JUMPDEST PUSH0 PUSH1 0x20 DUP3 DUP5 SUB SLT ISZERO PUSH2 0xE9 JUMPI PUSH2 0xE8 PUSH2 0x76 JUMP JUMPDEST JUMPDEST PUSH0 PUSH2 0xF6 DUP5 DUP3 DUP6 ADD PUSH2 0xC0 JUMP JUMPDEST SWAP2 POP POP SWAP3 SWAP2 POP POP JUMP JUMPDEST PUSH2 0xFE7 DUP1 PUSH2 0x10C PUSH0 CODECOPY PUSH0 RETURN INVALID PUSH1 0x80 PUSH1 0x40 MSTORE CALLVALUE DUP1 ISZERO PUSH2 0xF JUMPI PUSH0 DUP1 REVERT JUMPDEST POP PUSH1 0x4 CALLDATASIZE LT PUSH2 0x3F JUMPI PUSH0 CALLDATALOAD PUSH1 0xE0 SHR DUP1 PUSH4 0x3D2737B0 EQ PUSH2 0x43 JUMPI DUP1 PUSH4 0xBDEA20B7 EQ PUSH2 0x61 JUMPI DUP1 PUSH4 0xF87F5994 EQ PUSH2 0x91 JUMPI JUMPDEST PUSH0 DUP1 REVERT JUMPDEST PUSH2 0x4B PUSH2 0xC1 JUMP JUMPDEST PUSH1 0x40 MLOAD PUSH2 0x58 SWAP2 SWAP1 PUSH2 0x604 JUMP JUMPDEST PUSH1 0x40 MLOAD DUP1 SWAP2 SUB SWAP1 RETURN JUMPDEST PUSH2 0x7B PUSH1 0x4 DUP1 CALLDATASIZE SUB DUP2 ADD SWAP1 PUSH2 0x76 SWAP2 SWAP1 PUSH2 0x761 JUMP JUMPDEST PUSH2 0x157 JUMP JUMPDEST PUSH1 0x40 MLOAD PUSH2 0x88 SWAP2 SWAP1 PUSH2 0x84F JUMP JUMPDEST PUSH1 0x40 MLOAD DUP1 SWAP2 SUB SWAP1 RETURN JUMPDEST PUSH2 0xAB PUSH1 0x4 DUP1 CALLDATASIZE SUB DUP2 ADD SWAP1 PUSH2 0xA6 SWAP2 SWAP1 PUSH2 0x951 JUMP JUMPDEST PUSH2 0x200 JUMP JUMPDEST PUSH1 0x40 MLOAD PUSH2 0xB8 SWAP2 SWAP1 PUSH2 0x84F JUMP JUMPDEST PUSH1 0x40 MLOAD DUP1 SWAP2 SUB SWAP1 RETURN JUMPDEST PUSH1 0x60 PUSH0 DUP1 SLOAD SWAP1 PUSH2 0x100 EXP SWAP1 DIV PUSH20 0xFFFFFFFFFFFFFFFFFFFFFFFFFFFFFFFFFFFFFFFF AND PUSH20 0xFFFFFFFFFFFFFFFFFFFFFFFFFFFFFFFFFFFFFFFF AND PUSH4 0x8E6085A PUSH1 0x40 MLOAD DUP2 PUSH4 0xFFFFFFFF AND PUSH1 0xE0 SHL DUP2 MSTORE PUSH1 0x4 ADD PUSH0 PUSH1 0x40 MLOAD DUP1 DUP4 SUB DUP2 DUP7 GAS STATICCALL ISZERO DUP1 ISZERO PUSH2 0x12A JUMPI RETURNDATASIZE PUSH0 DUP1 RETURNDATACOPY RETURNDATASIZE PUSH0 REVERT JUMPDEST POP POP POP POP PUSH1 0x40 MLOAD RETURNDATASIZE PUSH0 DUP3 RETURNDATACOPY RETURNDATASIZE PUSH1 0x1F NOT PUSH1 0x1F DUP3 ADD AND DUP3 ADD DUP1 PUSH1 0x40 MSTORE POP DUP2 ADD SWAP1 PUSH2 0x152 SWAP2 SWAP1 PUSH2 0xDB6 JUMP JUMPDEST SWAP1 POP SWAP1 JUMP JUMPDEST PUSH2 0x15F PUSH2 0x2B0 JUMP JUMPDEST PUSH0 DUP1 SLOAD SWAP1 PUSH2 0x100 EXP SWAP1 DIV PUSH20 0xFFFFFFFFFFFFFFFFFFFFFFFFFFFFFFFFFFFFFFFF AND PUSH20 0xFFFFFFFFFFFFFFFFFFFFFFFFFFFFFFFFFFFFFFFF AND PUSH4 0x930ACA02 DUP4 PUSH1 0x40 MLOAD DUP3 PUSH4 0xFFFFFFFF AND PUSH1 0xE0 SHL DUP2 MSTORE PUSH1 0x4 ADD PUSH2 0x1B7 SWAP2 SWAP1 PUSH2 0xE45 JUMP JUMPDEST PUSH0 PUSH1 0x40 MLOAD DUP1 DUP4 SUB DUP2 DUP7 GAS STATICCALL ISZERO DUP1 ISZERO PUSH2 0x1D1 JUMPI RETURNDATASIZE PUSH0 DUP1 RETURNDATACOPY RETURNDATASIZE PUSH0 REVERT JUMPDEST POP POP POP POP PUSH1 0x40 MLOAD RETURNDATASIZE PUSH0 DUP3 RETURNDATACOPY RETURNDATASIZE PUSH1 0x1F NOT PUSH1 0x1F DUP3 ADD AND DUP3 ADD DUP1 PUSH1 0x40 MSTORE POP DUP2 ADD SWAP1 PUSH2 0x1F9 SWAP2 SWAP1 PUSH2 0xE65 JUMP JUMPDEST SWAP1 POP SWAP2 SWAP1 POP JUMP JUMPDEST PUSH2 0x208 PUSH2 0x2B0 JUMP JUMPDEST PUSH0 DUP1 SLOAD SWAP1 PUSH2 0x100 EXP SWAP1 DIV PUSH20 0xFFFFFFFFFFFFFFFFFFFFFFFFFFFFFFFFFFFFFFFF AND PUSH20 0xFFFFFFFFFFFFFFFFFFFFFFFFFFFFFFFFFFFFFFFF AND PUSH4 0x3453DE09 DUP6 DUP6 DUP6 PUSH1 0x40 MLOAD DUP5 PUSH4 0xFFFFFFFF AND PUSH1 0xE0 SHL DUP2 MSTORE PUSH1 0x4 ADD PUSH2 0x264 SWAP4 SWAP3 SWAP2 SWAP1 PUSH2 0xF67 JUMP JUMPDEST PUSH0 PUSH1 0x40 MLOAD DUP1 DUP4 SUB DUP2 PUSH0 DUP8 GAS CALL ISZERO DUP1 ISZERO PUSH2 0x27F JUMPI RETURNDATASIZE PUSH0 DUP1 RETURNDATACOPY RETURNDATASIZE PUSH0 REVERT JUMPDEST POP POP POP POP PUSH1 0x40 MLOAD RETURNDATASIZE PUSH0 DUP3 RETURNDATACOPY RETURNDATASIZE PUSH1 0x1F NOT PUSH1 0x1F DUP3 ADD AND DUP3 ADD DUP1 PUSH1 0x40 MSTORE POP DUP2 ADD SWAP1 PUSH2 0x2A7 SWAP2 SWAP1 PUSH2 0xE65 JUMP JUMPDEST SWAP1 POP SWAP4 SWAP3 POP POP POP JUMP JUMPDEST PUSH1 0x40 MLOAD DUP1 PUSH1 0xE0 ADD PUSH1 0x40 MSTORE DUP1 PUSH0 DUP2 MSTORE PUSH1 0x20 ADD PUSH0 PUSH20 0xFFFFFFFFFFFFFFFFFFFFFFFFFFFFFFFFFFFFFFFF AND DUP2 MSTORE PUSH1 0x20 ADD PUSH1 0x60 DUP2 MSTORE PUSH1 0x20 ADD PUSH1 0x60 DUP2 MSTORE PUSH1 0x20 ADD PUSH0 DUP2 MSTORE PUSH1 0x20 ADD PUSH0 ISZERO ISZERO DUP2 MSTORE PUSH1 0x20 ADD PUSH1 0x60 DUP2 MSTORE POP SWAP1 JUMP JUMPDEST PUSH0 DUP2 MLOAD SWAP1 POP SWAP2 SWAP1 POP JUMP JUMPDEST PUSH0 DUP3 DUP3 MSTORE PUSH1 0x20 DUP3 ADD SWAP1 POP SWAP3 SWAP2 POP POP JUMP JUMPDEST PUSH0 DUP2 SWAP1 POP PUSH1 0x20 DUP3 ADD SWAP1 POP SWAP2 SWAP1 POP JUMP JUMPDEST PUSH0 DUP2 SWAP1 POP SWAP2 SWAP1 POP JUMP JUMPDEST PUSH2 0x33C DUP2 PUSH2 0x32A JUMP JUMPDEST DUP3 MSTORE POP POP JUMP JUMPDEST PUSH0 PUSH20 0xFFFFFFFFFFFFFFFFFFFFFFFFFFFFFFFFFFFFFFFF DUP3 AND SWAP1 POP SWAP2 SWAP1 POP JUMP JUMPDEST PUSH0 PUSH2 0x36B DUP3 PUSH2 0x342 JUMP JUMPDEST SWAP1 POP SWAP2 SWAP1 POP JUMP JUMPDEST PUSH2 0x37B DUP2 PUSH2 0x361 JUMP JUMPDEST DUP3 MSTORE POP POP JUMP JUMPDEST PUSH0 DUP2 MLOAD SWAP1 POP SWAP2 SWAP1 POP JUMP JUMPDEST PUSH0 DUP3 DUP3 MSTORE PUSH1 0x20 DUP3 ADD SWAP1 POP SWAP3 SWAP2 POP POP JUMP JUMPDEST DUP3 DUP2 DUP4 MCOPY PUSH0 DUP4 DUP4 ADD MSTORE POP POP POP JUMP JUMPDEST PUSH0 PUSH1 0x1F NOT PUSH1 0x1F DUP4 ADD AND SWAP1 POP SWAP2 SWAP1 POP JUMP JUMPDEST PUSH0 PUSH2 0x3C3 DUP3 PUSH2 0x381 JUMP JUMPDEST PUSH2 0x3CD DUP2 DUP6 PUSH2 0x38B JUMP JUMPDEST SWAP4 POP PUSH2 0x3DD DUP2 DUP6 PUSH1 0x20 DUP7 ADD PUSH2 0x39B JUMP JUMPDEST PUSH2 0x3E6 DUP2 PUSH2 0x3A9 JUMP JUMPDEST DUP5 ADD SWAP2 POP POP SWAP3 SWAP2 POP POP JUMP JUMPDEST PUSH0 DUP2 ISZERO ISZERO SWAP1 POP SWAP2 SWAP1 POP JUMP JUMPDEST PUSH2 0x405 DUP2 PUSH2 0x3F1 JUMP JUMPDEST DUP3 MSTORE POP POP JUMP JUMPDEST PUSH0 DUP2 MLOAD SWAP1 POP SWAP2 SWAP1 POP JUMP JUMPDEST PUSH0 DUP3 DUP3 MSTORE PUSH1 0x20 DUP3 ADD SWAP1 POP SWAP3 SWAP2 POP POP JUMP JUMPDEST PUSH0 DUP2 SWAP1 POP PUSH1 0x20 DUP3 ADD SWAP1 POP SWAP2 SWAP1 POP JUMP JUMPDEST PUSH0 DUP2 SWAP1 POP SWAP2 SWAP1 POP JUMP JUMPDEST PUSH2 0x446 DUP2 PUSH2 0x434 JUMP JUMPDEST DUP3 MSTORE POP POP JUMP JUMPDEST PUSH0 PUSH2 0x457 DUP4 DUP4 PUSH2 0x43D JUMP JUMPDEST PUSH1 0x20 DUP4 ADD SWAP1 POP SWAP3 SWAP2 POP POP JUMP JUMPDEST PUSH0 PUSH1 0x20 DUP3 ADD SWAP1 POP SWAP2 SWAP1 POP JUMP JUMPDEST PUSH0 PUSH2 0x479 DUP3 PUSH2 0x40B JUMP JUMPDEST PUSH2 0x483 DUP2 DUP6 PUSH2 0x415 JUMP JUMPDEST SWAP4 POP PUSH2 0x48E DUP4 PUSH2 0x425 JUMP JUMPDEST DUP1 PUSH0 JUMPDEST DUP4 DUP2 LT ISZERO PUSH2 0x4BE JUMPI DUP2 MLOAD PUSH2 0x4A5 DUP9 DUP3 PUSH2 0x44C JUMP JUMPDEST SWAP8 POP PUSH2 0x4B0 DUP4 PUSH2 0x463 JUMP JUMPDEST SWAP3 POP POP PUSH1 0x1 DUP2 ADD SWAP1 POP PUSH2 0x491 JUMP JUMPDEST POP DUP6 SWAP4 POP POP POP POP SWAP3 SWAP2 POP POP JUMP JUMPDEST PUSH0 PUSH1 0xE0 DUP4 ADD PUSH0 DUP4 ADD MLOAD PUSH2 0x4E0 PUSH0 DUP7 ADD DUP3 PUSH2 0x333 JUMP JUMPDEST POP PUSH1 0x20 DUP4 ADD MLOAD PUSH2 0x4F3 PUSH1 0x20 DUP7 ADD DUP3 PUSH2 0x372 JUMP JUMPDEST POP PUSH1 0x40 DUP4 ADD MLOAD DUP5 DUP3 SUB PUSH1 0x40 DUP7 ADD MSTORE PUSH2 0x50B DUP3 DUP3 PUSH2 0x3B9 JUMP JUMPDEST SWAP2 POP POP PUSH1 0x60 DUP4 ADD MLOAD DUP5 DUP3 SUB PUSH1 0x60 DUP7 ADD MSTORE PUSH2 0x525 DUP3 DUP3 PUSH2 0x3B9 JUMP JUMPDEST SWAP2 POP POP PUSH1 0x80 DUP4 ADD MLOAD PUSH2 0x53A PUSH1 0x80 DUP7 ADD DUP3 PUSH2 0x333 JUMP JUMPDEST POP PUSH1 0xA0 DUP4 ADD MLOAD PUSH2 0x54D PUSH1 0xA0 DUP7 ADD DUP3 PUSH2 0x3FC JUMP JUMPDEST POP PUSH1 0xC0 DUP4 ADD MLOAD DUP5 DUP3 SUB PUSH1 0xC0 DUP7 ADD MSTORE PUSH2 0x565 DUP3 DUP3 PUSH2 0x46F JUMP JUMPDEST SWAP2 POP POP DUP1 SWAP2 POP POP SWAP3 SWAP2 POP POP JUMP JUMPDEST PUSH0 PUSH2 0x57D DUP4 DUP4 PUSH2 0x4CB JUMP JUMPDEST SWAP1 POP SWAP3 SWAP2 POP POP JUMP JUMPDEST PUSH0 PUSH1 0x20 DUP3 ADD SWAP1 POP SWAP2 SWAP1 POP JUMP JUMPDEST PUSH0 PUSH2 0x59B DUP3 PUSH2 0x301 JUMP JUMPDEST PUSH2 0x5A5 DUP2 DUP6 PUSH2 0x30B JUMP JUMPDEST SWAP4 POP DUP4 PUSH1 0x20 DUP3 MUL DUP6 ADD PUSH2 0x5B7 DUP6 PUSH2 0x31B JUMP JUMPDEST DUP1 PUSH0 JUMPDEST DUP6 DUP2 LT ISZERO PUSH2 0x5F2 JUMPI DUP5 DUP5 SUB DUP10 MSTORE DUP2 MLOAD PUSH2 0x5D3 DUP6 DUP3 PUSH2 0x572 JUMP JUMPDEST SWAP5 POP PUSH2 0x5DE DUP4 PUSH2 0x585 JUMP JUMPDEST SWAP3 POP PUSH1 0x20 DUP11 ADD SWAP10 POP POP PUSH1 0x1 DUP2 ADD SWAP1 POP PUSH2 0x5BA JUMP JUMPDEST POP DUP3 SWAP8 POP DUP8 SWAP6 POP POP POP POP POP POP SWAP3 SWAP2 POP POP JUMP JUMPDEST PUSH0 PUSH1 0x20 DUP3 ADD SWAP1 POP DUP2 DUP2 SUB PUSH0 DUP4 ADD MSTORE PUSH2 0x61C DUP2 DUP5 PUSH2 0x591 JUMP JUMPDEST SWAP1 POP SWAP3 SWAP2 POP POP JUMP JUMPDEST PUSH0 PUSH1 0x40 MLOAD SWAP1 POP SWAP1 JUMP JUMPDEST PUSH0 DUP1 REVERT JUMPDEST PUSH0 DUP1 REVERT JUMPDEST PUSH0 DUP1 REVERT JUMPDEST PUSH0 DUP1 REVERT JUMPDEST PUSH32 0x4E487B7100000000000000000000000000000000000000000000000000000000 PUSH0 MSTORE PUSH1 0x41 PUSH1 0x4 MSTORE PUSH1 0x24 PUSH0 REVERT JUMPDEST PUSH2 0x673 DUP3 PUSH2 0x3A9 JUMP JUMPDEST DUP2 ADD DUP2 DUP2 LT PUSH8 0xFFFFFFFFFFFFFFFF DUP3 GT OR ISZERO PUSH2 0x692 JUMPI PUSH2 0x691 PUSH2 0x63D JUMP JUMPDEST JUMPDEST DUP1 PUSH1 0x40 MSTORE POP POP POP JUMP JUMPDEST PUSH0 PUSH2 0x6A4 PUSH2 0x624 JUMP JUMPDEST SWAP1 POP PUSH2 0x6B0 DUP3 DUP3 PUSH2 0x66A JUMP JUMPDEST SWAP2 SWAP1 POP JUMP JUMPDEST PUSH0 PUSH8 0xFFFFFFFFFFFFFFFF DUP3 GT ISZERO PUSH2 0x6CF JUMPI PUSH2 0x6CE PUSH2 0x63D JUMP JUMPDEST JUMPDEST PUSH2 0x6D8 DUP3 PUSH2 0x3A9 JUMP JUMPDEST SWAP1 POP PUSH1 0x20 DUP2 ADD SWAP1 POP SWAP2 SWAP1 POP JUMP JUMPDEST DUP3 DUP2 DUP4 CALLDATACOPY PUSH0 DUP4 DUP4 ADD MSTORE POP POP POP JUMP JUMPDEST PUSH0 PUSH2 0x705 PUSH2 0x700 DUP5 PUSH2 0x6B5 JUMP JUMPDEST PUSH2 0x69B JUMP JUMPDEST SWAP1 POP DUP3 DUP2 MSTORE PUSH1 0x20 DUP2 ADD DUP5 DUP5 DUP5 ADD GT ISZERO PUSH2 0x721 JUMPI PUSH2 0x720 PUSH2 0x639 JUMP JUMPDEST JUMPDEST PUSH2 0x72C DUP5 DUP3 DUP6 PUSH2 0x6E5 JUMP JUMPDEST POP SWAP4 SWAP3 POP POP POP JUMP JUMPDEST PUSH0 DUP3 PUSH1 0x1F DUP4 ADD SLT PUSH2 0x748 JUMPI PUSH2 0x747 PUSH2 0x635 JUMP JUMPDEST JUMPDEST DUP2 CALLDATALOAD PUSH2 0x758 DUP5 DUP3 PUSH1 0x20 DUP7 ADD PUSH2 0x6F3 JUMP JUMPDEST SWAP2 POP POP SWAP3 SWAP2 POP POP JUMP JUMPDEST PUSH0 PUSH1 0x20 DUP3 DUP5 SUB SLT ISZERO PUSH2 0x776 JUMPI PUSH2 0x775 PUSH2 0x62D JUMP JUMPDEST JUMPDEST PUSH0 DUP3 ADD CALLDATALOAD PUSH8 0xFFFFFFFFFFFFFFFF DUP2 GT ISZERO PUSH2 0x793 JUMPI PUSH2 0x792 PUSH2 0x631 JUMP JUMPDEST JUMPDEST PUSH2 0x79F DUP5 DUP3 DUP6 ADD PUSH2 0x734 JUMP JUMPDEST SWAP2 POP POP SWAP3 SWAP2 POP POP JUMP JUMPDEST PUSH0 PUSH1 0xE0 DUP4 ADD PUSH0 DUP4 ADD MLOAD PUSH2 0x7BD PUSH0 DUP7 ADD DUP3 PUSH2 0x333 JUMP JUMPDEST POP PUSH1 0x20 DUP4 ADD MLOAD PUSH2 0x7D0 PUSH1 0x20 DUP7 ADD DUP3 PUSH2 0x372 JUMP JUMPDEST POP PUSH1 0x40 DUP4 ADD MLOAD DUP5 DUP3 SUB PUSH1 0x40 DUP7 ADD MSTORE PUSH2 0x7E8 DUP3 DUP3 PUSH2 0x3B9 JUMP JUMPDEST SWAP2 POP POP PUSH1 0x60 DUP4 ADD MLOAD DUP5 DUP3 SUB PUSH1 0x60 DUP7 ADD MSTORE PUSH2 0x802 DUP3 DUP3 PUSH2 0x3B9 JUMP JUMPDEST SWAP2 POP POP PUSH1 0x80 DUP4 ADD MLOAD PUSH2 0x817 PUSH1 0x80 DUP7 ADD DUP3 PUSH2 0x333 JUMP JUMPDEST POP PUSH1 0xA0 DUP4 ADD MLOAD PUSH2 0x82A PUSH1 0xA0 DUP7 ADD DUP3 PUSH2 0x3FC JUMP JUMPDEST POP PUSH1 0xC0 DUP4 ADD MLOAD DUP5 DUP3 SUB PUSH1 0xC0 DUP7 ADD MSTORE PUSH2 0x842 DUP3 DUP3 PUSH2 0x46F JUMP JUMPDEST SWAP2 POP POP DUP1 SWAP2 POP POP SWAP3 SWAP2 POP POP JUMP JUMPDEST PUSH0 PUSH1 0x20 DUP3 ADD SWAP1 POP DUP2 DUP2 SUB PUSH0 DUP4 ADD MSTORE PUSH2 0x867 DUP2 DUP5 PUSH2 0x7A8 JUMP JUMPDEST SWAP1 POP SWAP3 SWAP2 POP POP JUMP JUMPDEST PUSH0 PUSH8 0xFFFFFFFFFFFFFFFF DUP3 GT ISZERO PUSH2 0x889 JUMPI PUSH2 0x888 PUSH2 0x63D JUMP JUMPDEST JUMPDEST PUSH1 0x20 DUP3 MUL SWAP1 POP PUSH1 0x20 DUP2 ADD SWAP1 POP SWAP2 SWAP1 POP JUMP JUMPDEST PUSH0 DUP1 REVERT JUMPDEST PUSH0 PUSH2 0x8B0 PUSH2 0x8AB DUP5 PUSH2 0x86F JUMP JUMPDEST PUSH2 0x69B JUMP JUMPDEST SWAP1 POP DUP1 DUP4 DUP3 MSTORE PUSH1 0x20 DUP3 ADD SWAP1 POP PUSH1 0x20 DUP5 MUL DUP4 ADD DUP6 DUP2 GT ISZERO PUSH2 0x8D3 JUMPI PUSH2 0x8D2 PUSH2 0x89A JUMP JUMPDEST JUMPDEST DUP4 JUMPDEST DUP2 DUP2 LT ISZERO PUSH2 0x91A JUMPI DUP1 CALLDATALOAD PUSH8 0xFFFFFFFFFFFFFFFF DUP2 GT ISZERO PUSH2 0x8F8 JUMPI PUSH2 0x8F7 PUSH2 0x635 JUMP JUMPDEST JUMPDEST DUP1 DUP7 ADD PUSH2 0x905 DUP10 DUP3 PUSH2 0x734 JUMP JUMPDEST DUP6 MSTORE PUSH1 0x20 DUP6 ADD SWAP5 POP POP POP PUSH1 0x20 DUP2 ADD SWAP1 POP PUSH2 0x8D5 JUMP JUMPDEST POP POP POP SWAP4 SWAP3 POP POP POP JUMP JUMPDEST PUSH0 DUP3 PUSH1 0x1F DUP4 ADD SLT PUSH2 0x938 JUMPI PUSH2 0x937 PUSH2 0x635 JUMP JUMPDEST JUMPDEST DUP2 CALLDATALOAD PUSH2 0x948 DUP5 DUP3 PUSH1 0x20 DUP7 ADD PUSH2 0x89E JUMP JUMPDEST SWAP2 POP POP SWAP3 SWAP2 POP POP JUMP JUMPDEST PUSH0 DUP1 PUSH0 PUSH1 0x60 DUP5 DUP7 SUB SLT ISZERO PUSH2 0x968 JUMPI PUSH2 0x967 PUSH2 0x62D JUMP JUMPDEST JUMPDEST PUSH0 DUP5 ADD CALLDATALOAD PUSH8 0xFFFFFFFFFFFFFFFF DUP2 GT ISZERO PUSH2 0x985 JUMPI PUSH2 0x984 PUSH2 0x631 JUMP JUMPDEST JUMPDEST PUSH2 0x991 DUP7 DUP3 DUP8 ADD PUSH2 0x734 JUMP JUMPDEST SWAP4 POP POP PUSH1 0x20 DUP5 ADD CALLDATALOAD PUSH8 0xFFFFFFFFFFFFFFFF DUP2 GT ISZERO PUSH2 0x9B2 JUMPI PUSH2 0x9B1 PUSH2 0x631 JUMP JUMPDEST JUMPDEST PUSH2 0x9BE DUP7 DUP3 DUP8 ADD PUSH2 0x734 JUMP JUMPDEST SWAP3 POP POP PUSH1 0x40 DUP5 ADD CALLDATALOAD PUSH8 0xFFFFFFFFFFFFFFFF DUP2 GT ISZERO PUSH2 0x9DF JUMPI PUSH2 0x9DE PUSH2 0x631 JUMP JUMPDEST JUMPDEST PUSH2 0x9EB DUP7 DUP3 DUP8 ADD PUSH2 0x924 JUMP JUMPDEST SWAP2 POP POP SWAP3 POP SWAP3 POP SWAP3 JUMP JUMPDEST PUSH0 PUSH8 0xFFFFFFFFFFFFFFFF DUP3 GT ISZERO PUSH2 0xA0F JUMPI PUSH2 0xA0E PUSH2 0x63D JUMP JUMPDEST JUMPDEST PUSH1 0x20 DUP3 MUL SWAP1 POP PUSH1 0x20 DUP2 ADD SWAP1 POP SWAP2 SWAP1 POP JUMP JUMPDEST PUSH0 DUP1 REVERT JUMPDEST PUSH0 DUP1 REVERT JUMPDEST PUSH2 0xA31 DUP2 PUSH2 0x32A JUMP JUMPDEST DUP2 EQ PUSH2 0xA3B JUMPI PUSH0 DUP1 REVERT JUMPDEST POP JUMP JUMPDEST PUSH0 DUP2 MLOAD SWAP1 POP PUSH2 0xA4C DUP2 PUSH2 0xA28 JUMP JUMPDEST SWAP3 SWAP2 POP POP JUMP JUMPDEST PUSH2 0xA5B DUP2 PUSH2 0x361 JUMP JUMPDEST DUP2 EQ PUSH2 0xA65 JUMPI PUSH0 DUP1 REVERT JUMPDEST POP JUMP JUMPDEST PUSH0 DUP2 MLOAD SWAP1 POP PUSH2 0xA76 DUP2 PUSH2 0xA52 JUMP JUMPDEST SWAP3 SWAP2 POP POP JUMP JUMPDEST PUSH0 PUSH2 0xA8E PUSH2 0xA89 DUP5 PUSH2 0x6B5 JUMP JUMPDEST PUSH2 0x69B JUMP JUMPDEST SWAP1 POP DUP3 DUP2 MSTORE PUSH1 0x20 DUP2 ADD DUP5 DUP5 DUP5 ADD GT ISZERO PUSH2 0xAAA JUMPI PUSH2 0xAA9 PUSH2 0x639 JUMP JUMPDEST JUMPDEST PUSH2 0xAB5 DUP5 DUP3 DUP6 PUSH2 0x39B JUMP JUMPDEST POP SWAP4 SWAP3 POP POP POP JUMP JUMPDEST PUSH0 DUP3 PUSH1 0x1F DUP4 ADD SLT PUSH2 0xAD1 JUMPI PUSH2 0xAD0 PUSH2 0x635 JUMP JUMPDEST JUMPDEST DUP2 MLOAD PUSH2 0xAE1 DUP5 DUP3 PUSH1 0x20 DUP7 ADD PUSH2 0xA7C JUMP JUMPDEST SWAP2 POP POP SWAP3 SWAP2 POP POP JUMP JUMPDEST PUSH2 0xAF3 DUP2 PUSH2 0x3F1 JUMP JUMPDEST DUP2 EQ PUSH2 0xAFD JUMPI PUSH0 DUP1 REVERT JUMPDEST POP JUMP JUMPDEST PUSH0 DUP2 MLOAD SWAP1 POP PUSH2 0xB0E DUP2 PUSH2 0xAEA JUMP JUMPDEST SWAP3 SWAP2 POP POP JUMP JUMPDEST PUSH0 PUSH8 0xFFFFFFFFFFFFFFFF DUP3 GT ISZERO PUSH2 0xB2E JUMPI PUSH2 0xB2D PUSH2 0x63D JUMP JUMPDEST JUMPDEST PUSH1 0x20 DUP3 MUL SWAP1 POP PUSH1 0x20 DUP2 ADD SWAP1 POP SWAP2 SWAP1 POP JUMP JUMPDEST PUSH2 0xB48 DUP2 PUSH2 0x434 JUMP JUMPDEST DUP2 EQ PUSH2 0xB52 JUMPI PUSH0 DUP1 REVERT JUMPDEST POP JUMP JUMPDEST PUSH0 DUP2 MLOAD SWAP1 POP PUSH2 0xB63 DUP2 PUSH2 0xB3F JUMP JUMPDEST SWAP3 SWAP2 POP POP JUMP JUMPDEST PUSH0 PUSH2 0xB7B PUSH2 0xB76 DUP5 PUSH2 0xB14 JUMP JUMPDEST PUSH2 0x69B JUMP JUMPDEST SWAP1 POP DUP1 DUP4 DUP3 MSTORE PUSH1 0x20 DUP3 ADD SWAP1 POP PUSH1 0x20 DUP5 MUL DUP4 ADD DUP6 DUP2 GT ISZERO PUSH2 0xB9E JUMPI PUSH2 0xB9D PUSH2 0x89A JUMP JUMPDEST JUMPDEST DUP4 JUMPDEST DUP2 DUP2 LT ISZERO PUSH2 0xBC7 JUMPI DUP1 PUSH2 0xBB3 DUP9 DUP3 PUSH2 0xB55 JUMP JUMPDEST DUP5 MSTORE PUSH1 0x20 DUP5 ADD SWAP4 POP POP PUSH1 0x20 DUP2 ADD SWAP1 POP PUSH2 0xBA0 JUMP JUMPDEST POP POP POP SWAP4 SWAP3 POP POP POP JUMP JUMPDEST PUSH0 DUP3 PUSH1 0x1F DUP4 ADD SLT PUSH2 0xBE5 JUMPI PUSH2 0xBE4 PUSH2 0x635 JUMP JUMPDEST JUMPDEST DUP2 MLOAD PUSH2 0xBF5 DUP5 DUP3 PUSH1 0x20 DUP7 ADD PUSH2 0xB69 JUMP JUMPDEST SWAP2 POP POP SWAP3 SWAP2 POP POP JUMP JUMPDEST PUSH0 PUSH1 0xE0 DUP3 DUP5 SUB SLT ISZERO PUSH2 0xC13 JUMPI PUSH2 0xC12 PUSH2 0xA20 JUMP JUMPDEST JUMPDEST PUSH2 0xC1D PUSH1 0xE0 PUSH2 0x69B JUMP JUMPDEST SWAP1 POP PUSH0 PUSH2 0xC2C DUP5 DUP3 DUP6 ADD PUSH2 0xA3E JUMP JUMPDEST PUSH0 DUP4 ADD MSTORE POP PUSH1 0x20 PUSH2 0xC3F DUP5 DUP3 DUP6 ADD PUSH2 0xA68 JUMP JUMPDEST PUSH1 0x20 DUP4 ADD MSTORE POP PUSH1 0x40 DUP3 ADD MLOAD PUSH8 0xFFFFFFFFFFFFFFFF DUP2 GT ISZERO PUSH2 0xC63 JUMPI PUSH2 0xC62 PUSH2 0xA24 JUMP JUMPDEST JUMPDEST PUSH2 0xC6F DUP5 DUP3 DUP6 ADD PUSH2 0xABD JUMP JUMPDEST PUSH1 0x40 DUP4 ADD MSTORE POP PUSH1 0x60 DUP3 ADD MLOAD PUSH8 0xFFFFFFFFFFFFFFFF DUP2 GT ISZERO PUSH2 0xC93 JUMPI PUSH2 0xC92 PUSH2 0xA24 JUMP JUMPDEST JUMPDEST PUSH2 0xC9F DUP5 DUP3 DUP6 ADD PUSH2 0xABD JUMP JUMPDEST PUSH1 0x60 DUP4 ADD MSTORE POP PUSH1 0x80 PUSH2 0xCB3 DUP5 DUP3 DUP6 ADD PUSH2 0xA3E JUMP JUMPDEST PUSH1 0x80 DUP4 ADD MSTORE POP PUSH1 0xA0 PUSH2 0xCC7 DUP5 DUP3 DUP6 ADD PUSH2 0xB00 JUMP JUMPDEST PUSH1 0xA0 DUP4 ADD MSTORE POP PUSH1 0xC0 DUP3 ADD MLOAD PUSH8 0xFFFFFFFFFFFFFFFF DUP2 GT ISZERO PUSH2 0xCEB JUMPI PUSH2 0xCEA PUSH2 0xA24 JUMP JUMPDEST JUMPDEST PUSH2 0xCF7 DUP5 DUP3 DUP6 ADD PUSH2 0xBD1 JUMP JUMPDEST PUSH1 0xC0 DUP4 ADD MSTORE POP SWAP3 SWAP2 POP POP JUMP JUMPDEST PUSH0 PUSH2 0xD15 PUSH2 0xD10 DUP5 PUSH2 0x9F5 JUMP JUMPDEST PUSH2 0x69B JUMP JUMPDEST SWAP1 POP DUP1 DUP4 DUP3 MSTORE PUSH1 0x20 DUP3 ADD SWAP1 POP PUSH1 0x20 DUP5 MUL DUP4 ADD DUP6 DUP2 GT ISZERO PUSH2 0xD38 JUMPI PUSH2 0xD37 PUSH2 0x89A JUMP JUMPDEST JUMPDEST DUP4 JUMPDEST DUP2 DUP2 LT ISZERO PUSH2 0xD7F JUMPI DUP1 MLOAD PUSH8 0xFFFFFFFFFFFFFFFF DUP2 GT ISZERO PUSH2 0xD5D JUMPI PUSH2 0xD5C PUSH2 0x635 JUMP JUMPDEST JUMPDEST DUP1 DUP7 ADD PUSH2 0xD6A DUP10 DUP3 PUSH2 0xBFE JUMP JUMPDEST DUP6 MSTORE PUSH1 0x20 DUP6 ADD SWAP5 POP POP POP PUSH1 0x20 DUP2 ADD SWAP1 POP PUSH2 0xD3A JUMP JUMPDEST POP POP POP SWAP4 SWAP3 POP POP POP JUMP JUMPDEST PUSH0 DUP3 PUSH1 0x1F DUP4 ADD SLT PUSH2 0xD9D JUMPI PUSH2 0xD9C PUSH2 0x635 JUMP JUMPDEST JUMPDEST DUP2 MLOAD PUSH2 0xDAD DUP5 DUP3 PUSH1 0x20 DUP7 ADD PUSH2 0xD03 JUMP JUMPDEST SWAP2 POP POP SWAP3 SWAP2 POP POP JUMP JUMPDEST PUSH0 PUSH1 0x20 DUP3 DUP5 SUB SLT ISZERO PUSH2 0xDCB JUMPI PUSH2 0xDCA PUSH2 0x62D JUMP JUMPDEST JUMPDEST PUSH0 DUP3 ADD MLOAD PUSH8 0xFFFFFFFFFFFFFFFF DUP2 GT ISZERO PUSH2 0xDE8 JUMPI PUSH2 0xDE7 PUSH2 0x631 JUMP JUMPDEST JUMPDEST PUSH2 0xDF4 DUP5 DUP3 DUP6 ADD PUSH2 0xD89 JUMP JUMPDEST SWAP2 POP POP SWAP3 SWAP2 POP POP JUMP JUMPDEST PUSH0 DUP3 DUP3 MSTORE PUSH1 0x20 DUP3 ADD SWAP1 POP SWAP3 SWAP2 POP POP JUMP JUMPDEST PUSH0 PUSH2 0xE17 DUP3 PUSH2 0x381 JUMP JUMPDEST PUSH2 0xE21 DUP2 DUP6 PUSH2 0xDFD JUMP JUMPDEST SWAP4 POP PUSH2 0xE31 DUP2 DUP6 PUSH1 0x20 DUP7 ADD PUSH2 0x39B JUMP JUMPDEST PUSH2 0xE3A DUP2 PUSH2 0x3A9 JUMP JUMPDEST DUP5 ADD SWAP2 POP POP SWAP3 SWAP2 POP POP JUMP JUMPDEST PUSH0 PUSH1 0x20 DUP3 ADD SWAP1 POP DUP2 DUP2 SUB PUSH0 DUP4 ADD MSTORE PUSH2 0xE5D DUP2 DUP5 PUSH2 0xE0D JUMP JUMPDEST SWAP1 POP SWAP3 SWAP2 POP POP JUMP JUMPDEST PUSH0 PUSH1 0x20 DUP3 DUP5 SUB SLT ISZERO PUSH2 0xE7A JUMPI PUSH2 0xE79 PUSH2 0x62D JUMP JUMPDEST JUMPDEST PUSH0 DUP3 ADD MLOAD PUSH8 0xFFFFFFFFFFFFFFFF DUP2 GT ISZERO PUSH2 0xE97 JUMPI PUSH2 0xE96 PUSH2 0x631 JUMP JUMPDEST JUMPDEST PUSH2 0xEA3 DUP5 DUP3 DUP6 ADD PUSH2 0xBFE JUMP JUMPDEST SWAP2 POP POP SWAP3 SWAP2 POP POP JUMP JUMPDEST PUSH0 DUP2 MLOAD SWAP1 POP SWAP2 SWAP1 POP JUMP JUMPDEST PUSH0 DUP3 DUP3 MSTORE PUSH1 0x20 DUP3 ADD SWAP1 POP SWAP3 SWAP2 POP POP JUMP JUMPDEST PUSH0 DUP2 SWAP1 POP PUSH1 0x20 DUP3 ADD SWAP1 POP SWAP2 SWAP1 POP JUMP JUMPDEST PUSH0 PUSH2 0xEE0 DUP4 DUP4 PUSH2 0x3B9 JUMP JUMPDEST SWAP1 POP SWAP3 SWAP2 POP POP JUMP JUMPDEST PUSH0 PUSH1 0x20 DUP3 ADD SWAP1 POP SWAP2 SWAP1 POP JUMP JUMPDEST PUSH0 PUSH2 0xEFE DUP3 PUSH2 0xEAC JUMP JUMPDEST PUSH2 0xF08 DUP2 DUP6 PUSH2 0xEB6 JUMP JUMPDEST SWAP4 POP DUP4 PUSH1 0x20 DUP3 MUL DUP6 ADD PUSH2 0xF1A DUP6 PUSH2 0xEC6 JUMP JUMPDEST DUP1 PUSH0 JUMPDEST DUP6 DUP2 LT ISZERO PUSH2 0xF55 JUMPI DUP5 DUP5 SUB DUP10 MSTORE DUP2 MLOAD PUSH2 0xF36 DUP6 DUP3 PUSH2 0xED5 JUMP JUMPDEST SWAP5 POP PUSH2 0xF41 DUP4 PUSH2 0xEE8 JUMP JUMPDEST SWAP3 POP PUSH1 0x20 DUP11 ADD SWAP10 POP POP PUSH1 0x1 DUP2 ADD SWAP1 POP PUSH2 0xF1D JUMP JUMPDEST POP DUP3 SWAP8 POP DUP8 SWAP6 POP POP POP POP POP POP SWAP3 SWAP2 POP POP JUMP JUMPDEST PUSH0 PUSH1 0x60 DUP3 ADD SWAP1 POP DUP2 DUP2 SUB PUSH0 DUP4 ADD MSTORE PUSH2 0xF7F DUP2 DUP7 PUSH2 0xE0D JUMP JUMPDEST SWAP1 POP DUP2 DUP2 SUB PUSH1 0x20 DUP4 ADD MSTORE PUSH2 0xF93 DUP2 DUP6 PUSH2 0xE0D JUMP JUMPDEST SWAP1 POP DUP2 DUP2 SUB PUSH1 0x40 DUP4 ADD MSTORE PUSH2 0xFA7 DUP2 DUP5 PUSH2 0xEF4 JUMP JUMPDEST SWAP1 POP SWAP5 SWAP4 POP POP POP POP JUMP INVALID LOG2 PUSH5 0x6970667358 0x22 SLT KECCAK256 GASLIMIT LOG0 0xCB 0xB7 0xC PUSH26 0x7FC7F79B2AFC14DC06DEF88439F5DC40035A9DD1FA025DFD8C45 PUSH5 0x736F6C6343 STOP ADDMOD BYTE STOP CALLER "
				},
				"gasEstimates": {
					"creation": {
						"codeDepositCost": "814200",
						"executionCost": "infinite",
						"totalCost": "infinite"
					},
					"external": {
						"CreateWalletOrAccount(string,string,string[])": "infinite",
						"ViewAllAccountsOrWallets()": "infinite",
						"ViewSpecificAccount(string)": "infinite"
					}
				},
				"methodIdentifiers": {
					"CreateWalletOrAccount(string,string,string[])": "f87f5994",
					"ViewAllAccountsOrWallets()": "3d2737b0",
					"ViewSpecificAccount(string)": "bdea20b7"
				}
			},
			"storageLayout": {
				"storage": [
					{
						"astId": 183,
						"contract": "contracts/AccountMgt.sol:AccountManager",
						"label": "accountContract",
						"offset": 0,
						"slot": "0",
						"type": "t_contract(Account)177"
					}
				],
				"types": {
					"t_contract(Account)177": {
						"encoding": "inplace",
						"label": "contract Account",
						"numberOfBytes": "20"
					}
				}
			},
			"userdoc": {
				"kind": "user",
				"methods": {},
				"version": 1
			}
		}
	}
}